{
  "transactions": [
    {
      "hash": "0xafc8844a00ac285d0ea3bc5eaf833336e6613e8d4ec9e38eb782cda85b7563c1",
      "transactionType": "CALL",
      "contractName": null,
      "contractAddress": "0x9fe46736679d2d9a65f0992f2272de9f3c7fa6e0",
      "function": "swapExactETHForTokens(uint256,address[],address,uint256)",
      "arguments": [
        "0",
        "[0xe7f1725E7734CE288F8367e1Bb143E90bb3F0512, 0x3Ca8f9C04c7e3E1624Ac2008F92f6F366A869444]",
        "0xf39Fd6e51aad88F6F4ce6aB8827279cffFb92266",
        "1748418991"
      ],
      "transaction": {
        "from": "0xf39fd6e51aad88f6f4ce6ab8827279cfffb92266",
        "to": "0x9fe46736679d2d9a65f0992f2272de9f3c7fa6e0",
        "gas": "0x20929",
        "value": "0x2386f26fc10000",
        "input": "0x7ff36ab500000000000000000000000000000000000000000000000000000000000000000000000000000000000000000000000000000000000000000000000000000080000000000000000000000000f39fd6e51aad88f6f4ce6ab8827279cfffb92266000000000000000000000000000000000000000000000000000000006836c1af0000000000000000000000000000000000000000000000000000000000000002000000000000000000000000e7f1725e7734ce288f8367e1bb143e90bb3f05120000000000000000000000003ca8f9c04c7e3e1624ac2008f92f6f366a869444",
        "nonce": "0x17",
        "chainId": "0x7a69"
      },
      "additionalContracts": [],
      "isFixedGasLimit": false
    }
  ],
  "receipts": [],
  "libraries": [],
  "pending": [],
  "returns": {},
  "timestamp": 1748418397,
  "chain": 31337,
  "commit": null
}