{
  "transactions": [
    {
      "hash": "0x4f523af2fc8a3bce7a869f5867952afda6081180c14b10b00ea1b0681afb5451",
      "transactionType": "CALL",
      "contractName": null,
      "contractAddress": "0xb7f8bc63bbcad18155201308c8f3540b07f84f5e",
      "function": "mintInscription(string)",
      "arguments": [
        "PEPE"
      ],
      "transaction": {
        "from": "0xf39fd6e51aad88f6f4ce6ab8827279cfffb92266",
        "to": "0xb7f8bc63bbcad18155201308c8f3540b07f84f5e",
        "gas": "0x16f22",
        "value": "0x1988fe4052b8000",
        "input": "0xc59bddc8000000000000000000000000000000000000000000000000000000000000002000000000000000000000000000000000000000000000000000000000000000045045504500000000000000000000000000000000000000000000000000000000",
        "nonce": "0x1e",
        "chainId": "0x7a69"
      },
      "additionalContracts": [],
      "isFixedGasLimit": false
    },
    {
      "hash": "0x0a49b69539fd4697d457291677705c48495c966f61c01250a9b59d574b6abf36",
      "transactionType": "CALL",
      "contractName": null,
      "contractAddress": "0xb7f8bc63bbcad18155201308c8f3540b07f84f5e",
      "function": "mintInscription(string)",
      "arguments": [
        "PEPE"
      ],
      "transaction": {
        "from": "0xf39fd6e51aad88f6f4ce6ab8827279cfffb92266",
        "to": "0xb7f8bc63bbcad18155201308c8f3540b07f84f5e",
        "gas": "0x16f22",
        "value": "0x1988fe4052b8000",
        "input": "0xc59bddc8000000000000000000000000000000000000000000000000000000000000002000000000000000000000000000000000000000000000000000000000000000045045504500000000000000000000000000000000000000000000000000000000",
        "nonce": "0x1f",
        "chainId": "0x7a69"
      },
      "additionalContracts": [],
      "isFixedGasLimit": false
    },
    {
      "hash": "0xa63307bc2f30bac29636edc079471b2a47d01c7308b5ffe4afb8188cdb69ebac",
      "transactionType": "CALL",
      "contractName": null,
      "contractAddress": "0xb7f8bc63bbcad18155201308c8f3540b07f84f5e",
      "function": "mintInscription(string)",
      "arguments": [
        "PEPE"
      ],
      "transaction": {
        "from": "0xf39fd6e51aad88f6f4ce6ab8827279cfffb92266",
        "to": "0xb7f8bc63bbcad18155201308c8f3540b07f84f5e",
        "gas": "0x16f22",
        "value": "0x1988fe4052b8000",
        "input": "0xc59bddc8000000000000000000000000000000000000000000000000000000000000002000000000000000000000000000000000000000000000000000000000000000045045504500000000000000000000000000000000000000000000000000000000",
        "nonce": "0x20",
        "chainId": "0x7a69"
      },
      "additionalContracts": [],
      "isFixedGasLimit": false
    },
    {
      "hash": "0x035e004b265847d1f08330631e5a23cce5e05614e9c831bc003765fcdbcd5485",
      "transactionType": "CALL",
      "contractName": null,
      "contractAddress": "0xb7f8bc63bbcad18155201308c8f3540b07f84f5e",
      "function": "mintInscription(string)",
      "arguments": [
        "PEPE"
      ],
      "transaction": {
        "from": "0xf39fd6e51aad88f6f4ce6ab8827279cfffb92266",
        "to": "0xb7f8bc63bbcad18155201308c8f3540b07f84f5e",
        "gas": "0x16f22",
        "value": "0x1988fe4052b8000",
        "input": "0xc59bddc8000000000000000000000000000000000000000000000000000000000000002000000000000000000000000000000000000000000000000000000000000000045045504500000000000000000000000000000000000000000000000000000000",
        "nonce": "0x21",
        "chainId": "0x7a69"
      },
      "additionalContracts": [],
      "isFixedGasLimit": false
    },
    {
      "hash": "0xcc4365e6e7fc8e5e1e3ea4389a3e08b80c24bac6453b3a2985be0f568e96c572",
      "transactionType": "CALL",
      "contractName": null,
      "contractAddress": "0xb7f8bc63bbcad18155201308c8f3540b07f84f5e",
      "function": "mintInscription(string)",
      "arguments": [
        "PEPE"
      ],
      "transaction": {
        "from": "0xf39fd6e51aad88f6f4ce6ab8827279cfffb92266",
        "to": "0xb7f8bc63bbcad18155201308c8f3540b07f84f5e",
        "gas": "0x16f22",
        "value": "0x1988fe4052b8000",
        "input": "0xc59bddc8000000000000000000000000000000000000000000000000000000000000002000000000000000000000000000000000000000000000000000000000000000045045504500000000000000000000000000000000000000000000000000000000",
        "nonce": "0x22",
        "chainId": "0x7a69"
      },
      "additionalContracts": [],
      "isFixedGasLimit": false
    },
    {
      "hash": "0x7e6db85aeb39b93907a07299c23156df82d443e52214eeea92f6580bf6aa1c20",
      "transactionType": "CALL",
      "contractName": null,
      "contractAddress": "0x3ca8f9c04c7e3e1624ac2008f92f6f366a869444",
      "function": "approve(address,uint256)",
      "arguments": [
        "0x9fE46736679d2D9a65F0992F2272dE9f3c7fa6e0",
        "2000000000000000000000"
      ],
      "transaction": {
        "from": "0xf39fd6e51aad88f6f4ce6ab8827279cfffb92266",
        "to": "0x3ca8f9c04c7e3e1624ac2008f92f6f366a869444",
        "gas": "0x106ae",
        "value": "0x0",
        "input": "0x095ea7b30000000000000000000000009fe46736679d2d9a65f0992f2272de9f3c7fa6e000000000000000000000000000000000000000000000006c6b935b8bbd400000",
        "nonce": "0x23",
        "chainId": "0x7a69"
      },
      "additionalContracts": [],
      "isFixedGasLimit": false
    },
    {
      "hash": "0x7b3d530417753ec98d8169b514d4c7f325946b2085b551227b0e865ded3c51ac",
      "transactionType": "CALL",
      "contractName": null,
      "contractAddress": "0x9fe46736679d2d9a65f0992f2272de9f3c7fa6e0",
      "function": "swapExactTokensForETH(uint256,uint256,address[],address,uint256)",
      "arguments": [
        "2000000000000000000000",
        "0",
        "[0x3Ca8f9C04c7e3E1624Ac2008F92f6F366A869444, 0xe7f1725E7734CE288F8367e1Bb143E90bb3F0512]",
        "0xf39Fd6e51aad88F6F4ce6aB8827279cffFb92266",
        "1748420848"
      ],
      "transaction": {
        "from": "0xf39fd6e51aad88f6f4ce6ab8827279cfffb92266",
        "to": "0x9fe46736679d2d9a65f0992f2272de9f3c7fa6e0",
        "gas": "0x23cc9",
        "value": "0x0",
        "input": "0x18cbafe500000000000000000000000000000000000000000000006c6b935b8bbd400000000000000000000000000000000000000000000000000000000000000000000000000000000000000000000000000000000000000000000000000000000000a0000000000000000000000000f39fd6e51aad88f6f4ce6ab8827279cfffb92266000000000000000000000000000000000000000000000000000000006836c8f000000000000000000000000000000000000000000000000000000000000000020000000000000000000000003ca8f9c04c7e3e1624ac2008f92f6f366a869444000000000000000000000000e7f1725e7734ce288f8367e1bb143e90bb3f0512",
        "nonce": "0x24",
        "chainId": "0x7a69"
      },
      "additionalContracts": [],
      "isFixedGasLimit": false
    },
    {
      "hash": "0x0f5d420614810c6dfc8f0a019bb4cf5fc9b4e5f5d02bc1abf974c55eaca6a403",
      "transactionType": "CALL",
      "contractName": null,
      "contractAddress": "0x9fe46736679d2d9a65f0992f2272de9f3c7fa6e0",
      "function": "swapExactETHForTokens(uint256,address[],address,uint256)",
      "arguments": [
        "0",
        "[0xe7f1725E7734CE288F8367e1Bb143E90bb3F0512, 0x3Ca8f9C04c7e3E1624Ac2008F92f6F366A869444]",
        "0xf39Fd6e51aad88F6F4ce6aB8827279cffFb92266",
        "1748420848"
      ],
      "transaction": {
        "from": "0xf39fd6e51aad88f6f4ce6ab8827279cfffb92266",
        "to": "0x9fe46736679d2d9a65f0992f2272de9f3c7fa6e0",
        "gas": "0x20929",
        "value": "0x2386f26fc10000",
        "input": "0x7ff36ab500000000000000000000000000000000000000000000000000000000000000000000000000000000000000000000000000000000000000000000000000000080000000000000000000000000f39fd6e51aad88f6f4ce6ab8827279cfffb92266000000000000000000000000000000000000000000000000000000006836c8f00000000000000000000000000000000000000000000000000000000000000002000000000000000000000000e7f1725e7734ce288f8367e1bb143e90bb3f05120000000000000000000000003ca8f9c04c7e3e1624ac2008f92f6f366a869444",
        "nonce": "0x25",
        "chainId": "0x7a69"
      },
      "additionalContracts": [],
      "isFixedGasLimit": false
    },
    {
      "hash": "0x1cdd3b9b7d75a94166185e012916e5e161d4cf1931f717470765eaf8f6dbae1d",
      "transactionType": "CALL",
      "contractName": null,
      "contractAddress": "0xb7f8bc63bbcad18155201308c8f3540b07f84f5e",
      "function": "buyMeme(string,uint256,uint256)",
      "arguments": [
        "PEPE",
        "0",
        "1748420848"
      ],
      "transaction": {
        "from": "0xf39fd6e51aad88f6f4ce6ab8827279cfffb92266",
        "to": "0xb7f8bc63bbcad18155201308c8f3540b07f84f5e",
        "gas": "0x2bc18",
        "value": "0x2386f26fc10000",
        "input": "0x0c677a6e00000000000000000000000000000000000000000000000000000000000000600000000000000000000000000000000000000000000000000000000000000000000000000000000000000000000000000000000000000000000000006836c8f000000000000000000000000000000000000000000000000000000000000000045045504500000000000000000000000000000000000000000000000000000000",
        "nonce": "0x26",
        "chainId": "0x7a69"
      },
      "additionalContracts": [],
      "isFixedGasLimit": false
    }
  ],
  "receipts": [
    {
      "status": "0x1",
      "cumulativeGasUsed": "0x109cd",
      "logs": [
        {
          "address": "0x3ca8f9c04c7e3e1624ac2008f92f6f366a869444",
          "topics": [
            "0xddf252ad1be2c89b69c2b068fc378daa952ba7f163c4a11628f55a4df523b3ef",
            "0x0000000000000000000000000000000000000000000000000000000000000000",
            "0x000000000000000000000000f39fd6e51aad88f6f4ce6ab8827279cfffb92266"
          ],
          "data": "0x00000000000000000000000000000000000000000000003635c9adc5dea00000",
          "blockHash": "0x28a0bd8c690e4c4ee88755ece752c53d48acacba8c5af843daf05120776dfaa6",
          "blockNumber": "0x13",
          "blockTimestamp": "0x6836c5eb",
          "transactionHash": "0x4f523af2fc8a3bce7a869f5867952afda6081180c14b10b00ea1b0681afb5451",
          "transactionIndex": "0x0",
          "logIndex": "0x0",
          "removed": false
        },
        {
          "address": "0xb7f8bc63bbcad18155201308c8f3540b07f84f5e",
          "topics": [
            "0x2c00a34097ec0e58039e2abe0b22bad4d9936cde57e2c49c8a1a02980306ce8a",
            "0x608e17bb6814e7eb8d564b13416322f3d8a2dc5e36dde75519945008d7848749",
            "0x000000000000000000000000f39fd6e51aad88f6f4ce6ab8827279cfffb92266"
          ],
          "data": "0x00000000000000000000000000000000000000000000003635c9adc5dea00000",
          "blockHash": "0x28a0bd8c690e4c4ee88755ece752c53d48acacba8c5af843daf05120776dfaa6",
          "blockNumber": "0x13",
          "blockTimestamp": "0x6836c5eb",
          "transactionHash": "0x4f523af2fc8a3bce7a869f5867952afda6081180c14b10b00ea1b0681afb5451",
          "transactionIndex": "0x0",
          "logIndex": "0x1",
          "removed": false
        }
      ],
      "logsBloom": "0x00000000100000000000000000000000000400000040000000000000000000000000000000000000000000000000000000000000000000000000000000000401000000040000000000000008000000000000800000000000000000000000000000000000020000000000000100000800000000000000000000000010000000000000000000000000000000000000000000000000000000000000000000000000000000000000000000000000000000000000000000000020000000020000800000000002000000200000000000000000000000002000000000020000000020080000000000000000000000000000000000000000000000000000000000000000",
      "type": "0x2",
      "transactionHash": "0x4f523af2fc8a3bce7a869f5867952afda6081180c14b10b00ea1b0681afb5451",
      "transactionIndex": "0x0",
      "blockHash": "0x28a0bd8c690e4c4ee88755ece752c53d48acacba8c5af843daf05120776dfaa6",
      "blockNumber": "0x13",
      "gasUsed": "0x109cd",
      "effectiveGasPrice": "0x657eb74",
      "blobGasPrice": "0x1",
      "from": "0xf39fd6e51aad88f6f4ce6ab8827279cfffb92266",
      "to": "0xb7f8bc63bbcad18155201308c8f3540b07f84f5e",
      "contractAddress": null
    },
    {
      "status": "0x1",
      "cumulativeGasUsed": "0x109cd",
      "logs": [
        {
          "address": "0x3ca8f9c04c7e3e1624ac2008f92f6f366a869444",
          "topics": [
            "0xddf252ad1be2c89b69c2b068fc378daa952ba7f163c4a11628f55a4df523b3ef",
            "0x0000000000000000000000000000000000000000000000000000000000000000",
            "0x000000000000000000000000f39fd6e51aad88f6f4ce6ab8827279cfffb92266"
          ],
          "data": "0x00000000000000000000000000000000000000000000003635c9adc5dea00000",
          "blockHash": "0x9af34fc41e4cf06c64d68b40e1e4a6c2da982df9a570dd6d7c00b347aa50ec90",
          "blockNumber": "0x14",
          "blockTimestamp": "0x6836c5eb",
          "transactionHash": "0x0a49b69539fd4697d457291677705c48495c966f61c01250a9b59d574b6abf36",
          "transactionIndex": "0x0",
          "logIndex": "0x0",
          "removed": false
        },
        {
          "address": "0xb7f8bc63bbcad18155201308c8f3540b07f84f5e",
          "topics": [
            "0x2c00a34097ec0e58039e2abe0b22bad4d9936cde57e2c49c8a1a02980306ce8a",
            "0x608e17bb6814e7eb8d564b13416322f3d8a2dc5e36dde75519945008d7848749",
            "0x000000000000000000000000f39fd6e51aad88f6f4ce6ab8827279cfffb92266"
          ],
          "data": "0x00000000000000000000000000000000000000000000003635c9adc5dea00000",
          "blockHash": "0x9af34fc41e4cf06c64d68b40e1e4a6c2da982df9a570dd6d7c00b347aa50ec90",
          "blockNumber": "0x14",
          "blockTimestamp": "0x6836c5eb",
          "transactionHash": "0x0a49b69539fd4697d457291677705c48495c966f61c01250a9b59d574b6abf36",
          "transactionIndex": "0x0",
          "logIndex": "0x1",
          "removed": false
        }
      ],
      "logsBloom": "0x00000000100000000000000000000000000400000040000000000000000000000000000000000000000000000000000000000000000000000000000000000401000000040000000000000008000000000000800000000000000000000000000000000000020000000000000100000800000000000000000000000010000000000000000000000000000000000000000000000000000000000000000000000000000000000000000000000000000000000000000000000020000000020000800000000002000000200000000000000000000000002000000000020000000020080000000000000000000000000000000000000000000000000000000000000000",
      "type": "0x2",
      "transactionHash": "0x0a49b69539fd4697d457291677705c48495c966f61c01250a9b59d574b6abf36",
      "transactionIndex": "0x0",
      "blockHash": "0x9af34fc41e4cf06c64d68b40e1e4a6c2da982df9a570dd6d7c00b347aa50ec90",
      "blockNumber": "0x14",
      "gasUsed": "0x109cd",
      "effectiveGasPrice": "0x58dd9c2",
      "blobGasPrice": "0x1",
      "from": "0xf39fd6e51aad88f6f4ce6ab8827279cfffb92266",
      "to": "0xb7f8bc63bbcad18155201308c8f3540b07f84f5e",
      "contractAddress": null
    },
    {
      "status": "0x1",
      "cumulativeGasUsed": "0x2139a",
      "logs": [
        {
          "address": "0x3ca8f9c04c7e3e1624ac2008f92f6f366a869444",
          "topics": [
            "0xddf252ad1be2c89b69c2b068fc378daa952ba7f163c4a11628f55a4df523b3ef",
            "0x0000000000000000000000000000000000000000000000000000000000000000",
            "0x000000000000000000000000f39fd6e51aad88f6f4ce6ab8827279cfffb92266"
          ],
          "data": "0x00000000000000000000000000000000000000000000003635c9adc5dea00000",
          "blockHash": "0x9af34fc41e4cf06c64d68b40e1e4a6c2da982df9a570dd6d7c00b347aa50ec90",
          "blockNumber": "0x14",
          "blockTimestamp": "0x6836c5eb",
          "transactionHash": "0xa63307bc2f30bac29636edc079471b2a47d01c7308b5ffe4afb8188cdb69ebac",
          "transactionIndex": "0x1",
          "logIndex": "0x2",
          "removed": false
        },
        {
          "address": "0xb7f8bc63bbcad18155201308c8f3540b07f84f5e",
          "topics": [
            "0x2c00a34097ec0e58039e2abe0b22bad4d9936cde57e2c49c8a1a02980306ce8a",
            "0x608e17bb6814e7eb8d564b13416322f3d8a2dc5e36dde75519945008d7848749",
            "0x000000000000000000000000f39fd6e51aad88f6f4ce6ab8827279cfffb92266"
          ],
          "data": "0x00000000000000000000000000000000000000000000003635c9adc5dea00000",
          "blockHash": "0x9af34fc41e4cf06c64d68b40e1e4a6c2da982df9a570dd6d7c00b347aa50ec90",
          "blockNumber": "0x14",
          "blockTimestamp": "0x6836c5eb",
          "transactionHash": "0xa63307bc2f30bac29636edc079471b2a47d01c7308b5ffe4afb8188cdb69ebac",
          "transactionIndex": "0x1",
          "logIndex": "0x3",
          "removed": false
        }
      ],
      "logsBloom": "0x00000000100000000000000000000000000400000040000000000000000000000000000000000000000000000000000000000000000000000000000000000401000000040000000000000008000000000000800000000000000000000000000000000000020000000000000100000800000000000000000000000010000000000000000000000000000000000000000000000000000000000000000000000000000000000000000000000000000000000000000000000020000000020000800000000002000000200000000000000000000000002000000000020000000020080000000000000000000000000000000000000000000000000000000000000000",
      "type": "0x2",
      "transactionHash": "0xa63307bc2f30bac29636edc079471b2a47d01c7308b5ffe4afb8188cdb69ebac",
      "transactionIndex": "0x1",
      "blockHash": "0x9af34fc41e4cf06c64d68b40e1e4a6c2da982df9a570dd6d7c00b347aa50ec90",
      "blockNumber": "0x14",
      "gasUsed": "0x109cd",
      "effectiveGasPrice": "0x58dd9c2",
      "blobGasPrice": "0x1",
      "from": "0xf39fd6e51aad88f6f4ce6ab8827279cfffb92266",
      "to": "0xb7f8bc63bbcad18155201308c8f3540b07f84f5e",
      "contractAddress": null
    },
    {
      "status": "0x1",
      "cumulativeGasUsed": "0x109cd",
      "logs": [
        {
          "address": "0x3ca8f9c04c7e3e1624ac2008f92f6f366a869444",
          "topics": [
            "0xddf252ad1be2c89b69c2b068fc378daa952ba7f163c4a11628f55a4df523b3ef",
            "0x0000000000000000000000000000000000000000000000000000000000000000",
            "0x000000000000000000000000f39fd6e51aad88f6f4ce6ab8827279cfffb92266"
          ],
          "data": "0x00000000000000000000000000000000000000000000003635c9adc5dea00000",
          "blockHash": "0x73e6bd08f4f7f3a9d93cd094fd90370038525315b5358c70b737a73ca5e373f1",
          "blockNumber": "0x15",
          "blockTimestamp": "0x6836c5eb",
          "transactionHash": "0x035e004b265847d1f08330631e5a23cce5e05614e9c831bc003765fcdbcd5485",
          "transactionIndex": "0x0",
          "logIndex": "0x0",
          "removed": false
        },
        {
          "address": "0xb7f8bc63bbcad18155201308c8f3540b07f84f5e",
          "topics": [
            "0x2c00a34097ec0e58039e2abe0b22bad4d9936cde57e2c49c8a1a02980306ce8a",
            "0x608e17bb6814e7eb8d564b13416322f3d8a2dc5e36dde75519945008d7848749",
            "0x000000000000000000000000f39fd6e51aad88f6f4ce6ab8827279cfffb92266"
          ],
          "data": "0x00000000000000000000000000000000000000000000003635c9adc5dea00000",
          "blockHash": "0x73e6bd08f4f7f3a9d93cd094fd90370038525315b5358c70b737a73ca5e373f1",
          "blockNumber": "0x15",
          "blockTimestamp": "0x6836c5eb",
          "transactionHash": "0x035e004b265847d1f08330631e5a23cce5e05614e9c831bc003765fcdbcd5485",
          "transactionIndex": "0x0",
          "logIndex": "0x1",
          "removed": false
        }
      ],
      "logsBloom": "0x00000000100000000000000000000000000400000040000000000000000000000000000000000000000000000000000000000000000000000000000000000401000000040000000000000008000000000000800000000000000000000000000000000000020000000000000100000800000000000000000000000010000000000000000000000000000000000000000000000000000000000000000000000000000000000000000000000000000000000000000000000020000000020000800000000002000000200000000000000000000000002000000000020000000020080000000000000000000000000000000000000000000000000000000000000000",
      "type": "0x2",
      "transactionHash": "0x035e004b265847d1f08330631e5a23cce5e05614e9c831bc003765fcdbcd5485",
      "transactionIndex": "0x0",
      "blockHash": "0x73e6bd08f4f7f3a9d93cd094fd90370038525315b5358c70b737a73ca5e373f1",
      "blockNumber": "0x15",
      "gasUsed": "0x109cd",
      "effectiveGasPrice": "0x4ddbb57",
      "blobGasPrice": "0x1",
      "from": "0xf39fd6e51aad88f6f4ce6ab8827279cfffb92266",
      "to": "0xb7f8bc63bbcad18155201308c8f3540b07f84f5e",
      "contractAddress": null
    },
    {
      "status": "0x1",
      "cumulativeGasUsed": "0x109cd",
      "logs": [
        {
          "address": "0x3ca8f9c04c7e3e1624ac2008f92f6f366a869444",
          "topics": [
            "0xddf252ad1be2c89b69c2b068fc378daa952ba7f163c4a11628f55a4df523b3ef",
            "0x0000000000000000000000000000000000000000000000000000000000000000",
            "0x000000000000000000000000f39fd6e51aad88f6f4ce6ab8827279cfffb92266"
          ],
          "data": "0x00000000000000000000000000000000000000000000003635c9adc5dea00000",
          "blockHash": "0x8fb8c47a639bacb496d3effe400ce51df08bb21d0861d3303b98176f41e3dfab",
          "blockNumber": "0x16",
          "blockTimestamp": "0x6836c5eb",
          "transactionHash": "0xcc4365e6e7fc8e5e1e3ea4389a3e08b80c24bac6453b3a2985be0f568e96c572",
          "transactionIndex": "0x0",
          "logIndex": "0x0",
          "removed": false
        },
        {
          "address": "0xb7f8bc63bbcad18155201308c8f3540b07f84f5e",
          "topics": [
            "0x2c00a34097ec0e58039e2abe0b22bad4d9936cde57e2c49c8a1a02980306ce8a",
            "0x608e17bb6814e7eb8d564b13416322f3d8a2dc5e36dde75519945008d7848749",
            "0x000000000000000000000000f39fd6e51aad88f6f4ce6ab8827279cfffb92266"
          ],
          "data": "0x00000000000000000000000000000000000000000000003635c9adc5dea00000",
          "blockHash": "0x8fb8c47a639bacb496d3effe400ce51df08bb21d0861d3303b98176f41e3dfab",
          "blockNumber": "0x16",
          "blockTimestamp": "0x6836c5eb",
          "transactionHash": "0xcc4365e6e7fc8e5e1e3ea4389a3e08b80c24bac6453b3a2985be0f568e96c572",
          "transactionIndex": "0x0",
          "logIndex": "0x1",
          "removed": false
        }
      ],
      "logsBloom": "0x00000000100000000000000000000000000400000040000000000000000000000000000000000000000000000000000000000000000000000000000000000401000000040000000000000008000000000000800000000000000000000000000000000000020000000000000100000800000000000000000000000010000000000000000000000000000000000000000000000000000000000000000000000000000000000000000000000000000000000000000000000020000000020000800000000002000000200000000000000000000000002000000000020000000020080000000000000000000000000000000000000000000000000000000000000000",
      "type": "0x2",
      "transactionHash": "0xcc4365e6e7fc8e5e1e3ea4389a3e08b80c24bac6453b3a2985be0f568e96c572",
      "transactionIndex": "0x0",
      "blockHash": "0x8fb8c47a639bacb496d3effe400ce51df08bb21d0861d3303b98176f41e3dfab",
      "blockNumber": "0x16",
      "gasUsed": "0x109cd",
      "effectiveGasPrice": "0x442b8c2",
      "blobGasPrice": "0x1",
      "from": "0xf39fd6e51aad88f6f4ce6ab8827279cfffb92266",
      "to": "0xb7f8bc63bbcad18155201308c8f3540b07f84f5e",
      "contractAddress": null
    },
    {
      "status": "0x1",
      "cumulativeGasUsed": "0x1c7fb",
      "logs": [
        {
          "address": "0x3ca8f9c04c7e3e1624ac2008f92f6f366a869444",
          "topics": [
            "0x8c5be1e5ebec7d5bd14f71427d1e84f3dd0314c0f7b2291e5b200ac8c7c3b925",
            "0x000000000000000000000000f39fd6e51aad88f6f4ce6ab8827279cfffb92266",
            "0x0000000000000000000000009fe46736679d2d9a65f0992f2272de9f3c7fa6e0"
          ],
          "data": "0x00000000000000000000000000000000000000000000006c6b935b8bbd400000",
          "blockHash": "0x8fb8c47a639bacb496d3effe400ce51df08bb21d0861d3303b98176f41e3dfab",
          "blockNumber": "0x16",
          "blockTimestamp": "0x6836c5eb",
          "transactionHash": "0x7e6db85aeb39b93907a07299c23156df82d443e52214eeea92f6580bf6aa1c20",
          "transactionIndex": "0x1",
          "logIndex": "0x2",
          "removed": false
        }
      ],
      "logsBloom": "0x00000000000000000000000000000000000000000000000000000000000000000000000000000000000400000000000000400000000000000000000000200401000000000000000000000000000000000000000000000000000000000000400000000000000000000000000100000000000000000000000000000000000000000000000000000000000000000000000000000000000000000000000000000000020000000000000000000000000000000000000000000000000000000000800000000000000000200000000000000000000000002000000000000000000000000010000000000000000000000000000000000000000000000000000000000000",
      "type": "0x2",
      "transactionHash": "0x7e6db85aeb39b93907a07299c23156df82d443e52214eeea92f6580bf6aa1c20",
      "transactionIndex": "0x1",
      "blockHash": "0x8fb8c47a639bacb496d3effe400ce51df08bb21d0861d3303b98176f41e3dfab",
      "blockNumber": "0x16",
      "gasUsed": "0xbe2e",
      "effectiveGasPrice": "0x442b8c2",
      "blobGasPrice": "0x1",
      "from": "0xf39fd6e51aad88f6f4ce6ab8827279cfffb92266",
      "to": "0x3ca8f9c04c7e3e1624ac2008f92f6f366a869444",
      "contractAddress": null
    },
    {
      "status": "0x1",
      "cumulativeGasUsed": "0x1c568",
      "logs": [
        {
          "address": "0x3ca8f9c04c7e3e1624ac2008f92f6f366a869444",
          "topics": [
            "0xddf252ad1be2c89b69c2b068fc378daa952ba7f163c4a11628f55a4df523b3ef",
            "0x000000000000000000000000f39fd6e51aad88f6f4ce6ab8827279cfffb92266",
            "0x000000000000000000000000f4177fde0a6f4626358ba1ac20c9c5dad0174597"
          ],
          "data": "0x00000000000000000000000000000000000000000000006c6b935b8bbd400000",
          "blockHash": "0x62cbb0c54f8cde1e65728f2ca8ff30542fd414397d54663810691826157ba297",
          "blockNumber": "0x17",
          "blockTimestamp": "0x6836c5eb",
          "transactionHash": "0x7b3d530417753ec98d8169b514d4c7f325946b2085b551227b0e865ded3c51ac",
          "transactionIndex": "0x0",
          "logIndex": "0x0",
          "removed": false
        },
        {
          "address": "0xe7f1725e7734ce288f8367e1bb143e90bb3f0512",
          "topics": [
            "0xddf252ad1be2c89b69c2b068fc378daa952ba7f163c4a11628f55a4df523b3ef",
            "0x000000000000000000000000f4177fde0a6f4626358ba1ac20c9c5dad0174597",
            "0x0000000000000000000000009fe46736679d2d9a65f0992f2272de9f3c7fa6e0"
          ],
          "data": "0x0000000000000000000000000000000000000000000000000061ae28f176a457",
          "blockHash": "0x62cbb0c54f8cde1e65728f2ca8ff30542fd414397d54663810691826157ba297",
          "blockNumber": "0x17",
          "blockTimestamp": "0x6836c5eb",
          "transactionHash": "0x7b3d530417753ec98d8169b514d4c7f325946b2085b551227b0e865ded3c51ac",
          "transactionIndex": "0x0",
          "logIndex": "0x1",
          "removed": false
        },
        {
          "address": "0xf4177fde0a6f4626358ba1ac20c9c5dad0174597",
          "topics": [
            "0x1c411e9a96e071241c2f21f7726b17ae89e3cab4c78be50e062b03a9fffbbad1"
          ],
          "data": "0x0000000000000000000000000000000000000000000000d2449e523d3e9e15ec000000000000000000000000000000000000000000000000005c08fa88c13b2c",
          "blockHash": "0x62cbb0c54f8cde1e65728f2ca8ff30542fd414397d54663810691826157ba297",
          "blockNumber": "0x17",
          "blockTimestamp": "0x6836c5eb",
          "transactionHash": "0x7b3d530417753ec98d8169b514d4c7f325946b2085b551227b0e865ded3c51ac",
          "transactionIndex": "0x0",
          "logIndex": "0x2",
          "removed": false
        },
        {
          "address": "0xf4177fde0a6f4626358ba1ac20c9c5dad0174597",
          "topics": [
            "0xd78ad95fa46c994b6551d0da85fc275fe613ce37657fb8d5e3d130840159d822",
            "0x0000000000000000000000009fe46736679d2d9a65f0992f2272de9f3c7fa6e0",
            "0x0000000000000000000000009fe46736679d2d9a65f0992f2272de9f3c7fa6e0"
          ],
          "data": "0x00000000000000000000000000000000000000000000006c6b935b8bbd400000000000000000000000000000000000000000000000000000000000000000000000000000000000000000000000000000000000000000000000000000000000000000000000000000000000000000000000000000000000000061ae28f176a457",
          "blockHash": "0x62cbb0c54f8cde1e65728f2ca8ff30542fd414397d54663810691826157ba297",
          "blockNumber": "0x17",
          "blockTimestamp": "0x6836c5eb",
          "transactionHash": "0x7b3d530417753ec98d8169b514d4c7f325946b2085b551227b0e865ded3c51ac",
          "transactionIndex": "0x0",
          "logIndex": "0x3",
          "removed": false
        },
        {
          "address": "0xe7f1725e7734ce288f8367e1bb143e90bb3f0512",
          "topics": [
            "0x7fcf532c15f0a6db0bd6d0e038bea71d30d808c7d98cb3bf7268a95bf5081b65",
            "0x0000000000000000000000009fe46736679d2d9a65f0992f2272de9f3c7fa6e0"
          ],
          "data": "0x0000000000000000000000000000000000000000000000000061ae28f176a457",
          "blockHash": "0x62cbb0c54f8cde1e65728f2ca8ff30542fd414397d54663810691826157ba297",
          "blockNumber": "0x17",
          "blockTimestamp": "0x6836c5eb",
          "transactionHash": "0x7b3d530417753ec98d8169b514d4c7f325946b2085b551227b0e865ded3c51ac",
          "transactionIndex": "0x0",
          "logIndex": "0x4",
          "removed": false
        }
      ],
      "logsBloom": "0x00200000000000000000000080000000000000000000000000000000000000000000000000000000000400000000000010400000000000000000000000000401000000000000000000000008000000200000000000400000000000000000400000000000000000000200000100000000008100000000040000000010000000000000000000000000000000000000000000000000004000080000004000000000000800000000000000000000000000000000000000000000000000000000800000000002000000200000000000001000000000002000001000000002000000000000000000000000000000080000000000000000000000800000000000000000",
      "type": "0x2",
      "transactionHash": "0x7b3d530417753ec98d8169b514d4c7f325946b2085b551227b0e865ded3c51ac",
      "transactionIndex": "0x0",
      "blockHash": "0x62cbb0c54f8cde1e65728f2ca8ff30542fd414397d54663810691826157ba297",
      "blockNumber": "0x17",
      "gasUsed": "0x1c568",
      "effectiveGasPrice": "0x3bb7149",
      "blobGasPrice": "0x1",
      "from": "0xf39fd6e51aad88f6f4ce6ab8827279cfffb92266",
      "to": "0x9fe46736679d2d9a65f0992f2272de9f3c7fa6e0",
      "contractAddress": null
    },
    {
      "status": "0x1",
      "cumulativeGasUsed": "0x33eb8",
      "logs": [
        {
          "address": "0xe7f1725e7734ce288f8367e1bb143e90bb3f0512",
          "topics": [
            "0xe1fffcc4923d04b559f4d29a8bfc6cda04eb5b0d3c460751c2402c5c5cc9109c",
            "0x0000000000000000000000009fe46736679d2d9a65f0992f2272de9f3c7fa6e0"
          ],
          "data": "0x000000000000000000000000000000000000000000000000002386f26fc10000",
          "blockHash": "0x62cbb0c54f8cde1e65728f2ca8ff30542fd414397d54663810691826157ba297",
          "blockNumber": "0x17",
          "blockTimestamp": "0x6836c5eb",
          "transactionHash": "0x0f5d420614810c6dfc8f0a019bb4cf5fc9b4e5f5d02bc1abf974c55eaca6a403",
          "transactionIndex": "0x1",
          "logIndex": "0x5",
          "removed": false
        },
        {
          "address": "0xe7f1725e7734ce288f8367e1bb143e90bb3f0512",
          "topics": [
            "0xddf252ad1be2c89b69c2b068fc378daa952ba7f163c4a11628f55a4df523b3ef",
            "0x0000000000000000000000009fe46736679d2d9a65f0992f2272de9f3c7fa6e0",
            "0x000000000000000000000000f4177fde0a6f4626358ba1ac20c9c5dad0174597"
          ],
          "data": "0x000000000000000000000000000000000000000000000000002386f26fc10000",
          "blockHash": "0x62cbb0c54f8cde1e65728f2ca8ff30542fd414397d54663810691826157ba297",
          "blockNumber": "0x17",
          "blockTimestamp": "0x6836c5eb",
          "transactionHash": "0x0f5d420614810c6dfc8f0a019bb4cf5fc9b4e5f5d02bc1abf974c55eaca6a403",
          "transactionIndex": "0x1",
          "logIndex": "0x6",
          "removed": false
        },
        {
          "address": "0x3ca8f9c04c7e3e1624ac2008f92f6f366a869444",
          "topics": [
            "0xddf252ad1be2c89b69c2b068fc378daa952ba7f163c4a11628f55a4df523b3ef",
            "0x000000000000000000000000f4177fde0a6f4626358ba1ac20c9c5dad0174597",
            "0x000000000000000000000000f39fd6e51aad88f6f4ce6ab8827279cfffb92266"
          ],
          "data": "0x00000000000000000000000000000000000000000000003a6f3de61bb81b4464",
          "blockHash": "0x62cbb0c54f8cde1e65728f2ca8ff30542fd414397d54663810691826157ba297",
          "blockNumber": "0x17",
          "blockTimestamp": "0x6836c5eb",
          "transactionHash": "0x0f5d420614810c6dfc8f0a019bb4cf5fc9b4e5f5d02bc1abf974c55eaca6a403",
          "transactionIndex": "0x1",
          "logIndex": "0x7",
          "removed": false
        },
        {
          "address": "0xf4177fde0a6f4626358ba1ac20c9c5dad0174597",
          "topics": [
            "0x1c411e9a96e071241c2f21f7726b17ae89e3cab4c78be50e062b03a9fffbbad1"
          ],
          "data": "0x000000000000000000000000000000000000000000000097d5606c218682d188000000000000000000000000000000000000000000000000007f8fecf8823b2c",
          "blockHash": "0x62cbb0c54f8cde1e65728f2ca8ff30542fd414397d54663810691826157ba297",
          "blockNumber": "0x17",
          "blockTimestamp": "0x6836c5eb",
          "transactionHash": "0x0f5d420614810c6dfc8f0a019bb4cf5fc9b4e5f5d02bc1abf974c55eaca6a403",
          "transactionIndex": "0x1",
          "logIndex": "0x8",
          "removed": false
        },
        {
          "address": "0xf4177fde0a6f4626358ba1ac20c9c5dad0174597",
          "topics": [
            "0xd78ad95fa46c994b6551d0da85fc275fe613ce37657fb8d5e3d130840159d822",
            "0x0000000000000000000000009fe46736679d2d9a65f0992f2272de9f3c7fa6e0",
            "0x000000000000000000000000f39fd6e51aad88f6f4ce6ab8827279cfffb92266"
          ],
          "data": "0x0000000000000000000000000000000000000000000000000000000000000000000000000000000000000000000000000000000000000000002386f26fc1000000000000000000000000000000000000000000000000003a6f3de61bb81b44640000000000000000000000000000000000000000000000000000000000000000",
          "blockHash": "0x62cbb0c54f8cde1e65728f2ca8ff30542fd414397d54663810691826157ba297",
          "blockNumber": "0x17",
          "blockTimestamp": "0x6836c5eb",
          "transactionHash": "0x0f5d420614810c6dfc8f0a019bb4cf5fc9b4e5f5d02bc1abf974c55eaca6a403",
          "transactionIndex": "0x1",
          "logIndex": "0x9",
          "removed": false
        }
      ],
      "logsBloom": "0x00200000000000000000000080000000000000000000000000000000000000000000000000000000000400000000000010400000000000000000000000000401000000000000000000000008000000200000000000000000000000008000400000000000000000000200000100000000008100000000000000000010000000000000000000000000000000000000000000000001004000080000004000000000000800000000000000000000000000000000000000000000000000000000800000000002000000200000000000001000000000002000001000000000000000000000000000000000000000080000000000000000000000c00000000000000000",
      "type": "0x2",
      "transactionHash": "0x0f5d420614810c6dfc8f0a019bb4cf5fc9b4e5f5d02bc1abf974c55eaca6a403",
      "transactionIndex": "0x1",
      "blockHash": "0x62cbb0c54f8cde1e65728f2ca8ff30542fd414397d54663810691826157ba297",
      "blockNumber": "0x17",
      "gasUsed": "0x17950",
      "effectiveGasPrice": "0x3bb7149",
      "blobGasPrice": "0x1",
      "from": "0xf39fd6e51aad88f6f4ce6ab8827279cfffb92266",
      "to": "0x9fe46736679d2d9a65f0992f2272de9f3c7fa6e0",
      "contractAddress": null
    },
    {
      "status": "0x1",
      "cumulativeGasUsed": "0x53994",
      "logs": [
        {
          "address": "0xe7f1725e7734ce288f8367e1bb143e90bb3f0512",
          "topics": [
            "0xe1fffcc4923d04b559f4d29a8bfc6cda04eb5b0d3c460751c2402c5c5cc9109c",
            "0x0000000000000000000000009fe46736679d2d9a65f0992f2272de9f3c7fa6e0"
          ],
          "data": "0x000000000000000000000000000000000000000000000000002386f26fc10000",
          "blockHash": "0x62cbb0c54f8cde1e65728f2ca8ff30542fd414397d54663810691826157ba297",
          "blockNumber": "0x17",
          "blockTimestamp": "0x6836c5eb",
          "transactionHash": "0x1cdd3b9b7d75a94166185e012916e5e161d4cf1931f717470765eaf8f6dbae1d",
          "transactionIndex": "0x2",
          "logIndex": "0xa",
          "removed": false
        },
        {
          "address": "0xe7f1725e7734ce288f8367e1bb143e90bb3f0512",
          "topics": [
            "0xddf252ad1be2c89b69c2b068fc378daa952ba7f163c4a11628f55a4df523b3ef",
            "0x0000000000000000000000009fe46736679d2d9a65f0992f2272de9f3c7fa6e0",
            "0x000000000000000000000000f4177fde0a6f4626358ba1ac20c9c5dad0174597"
          ],
          "data": "0x000000000000000000000000000000000000000000000000002386f26fc10000",
          "blockHash": "0x62cbb0c54f8cde1e65728f2ca8ff30542fd414397d54663810691826157ba297",
          "blockNumber": "0x17",
          "blockTimestamp": "0x6836c5eb",
          "transactionHash": "0x1cdd3b9b7d75a94166185e012916e5e161d4cf1931f717470765eaf8f6dbae1d",
          "transactionIndex": "0x2",
          "logIndex": "0xb",
          "removed": false
        },
        {
          "address": "0x3ca8f9c04c7e3e1624ac2008f92f6f366a869444",
          "topics": [
            "0xddf252ad1be2c89b69c2b068fc378daa952ba7f163c4a11628f55a4df523b3ef",
            "0x000000000000000000000000f4177fde0a6f4626358ba1ac20c9c5dad0174597",
            "0x000000000000000000000000f39fd6e51aad88f6f4ce6ab8827279cfffb92266"
          ],
          "data": "0x000000000000000000000000000000000000000000000020ff5d71fbaddb6a23",
          "blockHash": "0x62cbb0c54f8cde1e65728f2ca8ff30542fd414397d54663810691826157ba297",
          "blockNumber": "0x17",
          "blockTimestamp": "0x6836c5eb",
          "transactionHash": "0x1cdd3b9b7d75a94166185e012916e5e161d4cf1931f717470765eaf8f6dbae1d",
          "transactionIndex": "0x2",
          "logIndex": "0xc",
          "removed": false
        },
        {
          "address": "0xf4177fde0a6f4626358ba1ac20c9c5dad0174597",
          "topics": [
            "0x1c411e9a96e071241c2f21f7726b17ae89e3cab4c78be50e062b03a9fffbbad1"
          ],
          "data": "0x000000000000000000000000000000000000000000000076d602fa25d8a7676500000000000000000000000000000000000000000000000000a316df68433b2c",
          "blockHash": "0x62cbb0c54f8cde1e65728f2ca8ff30542fd414397d54663810691826157ba297",
          "blockNumber": "0x17",
          "blockTimestamp": "0x6836c5eb",
          "transactionHash": "0x1cdd3b9b7d75a94166185e012916e5e161d4cf1931f717470765eaf8f6dbae1d",
          "transactionIndex": "0x2",
          "logIndex": "0xd",
          "removed": false
        },
        {
          "address": "0xf4177fde0a6f4626358ba1ac20c9c5dad0174597",
          "topics": [
            "0xd78ad95fa46c994b6551d0da85fc275fe613ce37657fb8d5e3d130840159d822",
            "0x0000000000000000000000009fe46736679d2d9a65f0992f2272de9f3c7fa6e0",
            "0x000000000000000000000000f39fd6e51aad88f6f4ce6ab8827279cfffb92266"
          ],
          "data": "0x0000000000000000000000000000000000000000000000000000000000000000000000000000000000000000000000000000000000000000002386f26fc10000000000000000000000000000000000000000000000000020ff5d71fbaddb6a230000000000000000000000000000000000000000000000000000000000000000",
          "blockHash": "0x62cbb0c54f8cde1e65728f2ca8ff30542fd414397d54663810691826157ba297",
          "blockNumber": "0x17",
          "blockTimestamp": "0x6836c5eb",
          "transactionHash": "0x1cdd3b9b7d75a94166185e012916e5e161d4cf1931f717470765eaf8f6dbae1d",
          "transactionIndex": "0x2",
          "logIndex": "0xe",
          "removed": false
        }
      ],
      "logsBloom": "0x00200000000000000000000080000000000000000000000000000000000000000000000000000000000400000000000010400000000000000000000000000401000000000000000000000008000000200000000000000000000000008000400000000000000000000200000100000000008100000000000000000010000000000000000000000000000000000000000000000001004000080000004000000000000800000000000000000000000000000000000000000000000000000000800000000002000000200000000000001000000000002000001000000000000000000000000000000000000000080000000000000000000000c00000000000000000",
      "type": "0x2",
      "transactionHash": "0x1cdd3b9b7d75a94166185e012916e5e161d4cf1931f717470765eaf8f6dbae1d",
      "transactionIndex": "0x2",
      "blockHash": "0x62cbb0c54f8cde1e65728f2ca8ff30542fd414397d54663810691826157ba297",
      "blockNumber": "0x17",
      "gasUsed": "0x1fadc",
      "effectiveGasPrice": "0x3bb7149",
      "blobGasPrice": "0x1",
      "from": "0xf39fd6e51aad88f6f4ce6ab8827279cfffb92266",
      "to": "0xb7f8bc63bbcad18155201308c8f3540b07f84f5e",
      "contractAddress": null
    }
  ],
  "libraries": [],
  "pending": [],
  "returns": {},
  "timestamp": 1748420075,
  "chain": 31337,
  "commit": null
}