{
  "transactions": [
    {
      "hash": "0xe96baf60169d05aea8fe861cd3b69308f6a44e70cff913209d6b6d81d4424952",
      "transactionType": "CREATE",
      "contractName": "MemeTWAPOracle",
      "contractAddress": "0x998abeb3e57409262ae5b751f60747921b33613e",
      "function": null,
      "arguments": [
        "0x5FbDB2315678afecb367f032d93F642f64180aa3",
        "0xe7f1725E7734CE288F8367e1Bb143E90bb3F0512"
      ],
      "transaction": {
        "from": "0xf39fd6e51aad88f6f4ce6ab8827279cfffb92266",
        "gas": "0x154508",
        "value": "0x0",
        "input": "0x60c0346101a3576113b390601f38839003908101601f19168201906001600160401b038211838310176101a757808391604095869485528339810103126101a357610055602061004e836101bb565b92016101bb565b90331561018c575f8054336001600160a01b03198216811783558551936001600160a01b039384939192918416907f8be0079c531659141344cd1fd0a4f28419497f9722a3daafe3b4186f6b6457e09080a31691821561014a57508216156101065760805260a052516111e390816101d082396080518181816101930152818161069d01528181610bcf0152610ee7015260a0518181816104590152818161066201528181610b990152610eab0152f35b825162461bcd60e51b815260206004820152601460248201527f496e76616c6964205745544820616464726573730000000000000000000000006044820152606490fd5b62461bcd60e51b815260206004820152601760248201527f496e76616c696420666163746f727920616464726573730000000000000000006044820152606490fd5b8251631e4fbdf760e01b81525f6004820152602490fd5b5f80fd5b634e487b7160e01b5f52604160045260245ffd5b51906001600160a01b03821682036101a35756fe6040608081526004361015610012575f80fd5b5f90813560e01c806302459966146104a35780633ca52526146104885780633fc8cef31461044557806353d1e07e1461041c578063715018a6146103c257806376fb7b521461032b5780637d92ab5314610276578063852227481461024e5780638da5cb5b1461022757806396e85ced146101f9578063c14ce674146101c2578063c45a01551461017f578063e1a381ec1461013e5763f2fde38b146100b6575f80fd5b3461013a57602036600319011261013a576100cf6104eb565b6100d7610532565b6001600160a01b03908116918215610123575082546001600160a01b0319811683178455167f8be0079c531659141344cd1fd0a4f28419497f9722a3daafe3b4186f6b6457e08380a380f35b51631e4fbdf760e01b815260048101849052602490fd5b5080fd5b503461013a57602036600319011261013a5761017b9061016461015f6104eb565b610e92565b915190815290151560208201529081906040820190565b0390f35b503461013a578160031936011261013a57517f00000000000000000000000000000000000000000000000000000000000000006001600160a01b03168152602090f35b503461013a57602036600319011261013a5760209181906001600160a01b036101e96104eb565b1681526001845220549051908152f35b503461013a57602036600319011261013a5760209061021e6102196104eb565b610647565b90519015158152f35b503461013a578160031936011261013a57905490516001600160a01b039091168152602090f35b503461013a578060031936011261013a5760209061021e61026d6104eb565b6024359061107a565b5090346103285781600319360112610328576102906104eb565b6001600160a01b03168082526001602052828220546024359291908310156102ee578184916102c6949352600160205220610505565b5080546001820154600290920154925190815260208101919091526040810191909152606090f35b835162461bcd60e51b8152602060048201526013602482015272496e646578206f7574206f6620626f756e647360681b6044820152606490fd5b80fd5b503461013a57602036600319011261013a576103456104eb565b61034d610532565b6001600160a01b03168252600160208190529082208054838255909181610372578380f35b60039282840292848404036103ae57845260208420918201915b82811061039857508380f35b808585925585838201558560028201550161038c565b634e487b7160e01b85526011600452602485fd5b82346103285780600319360112610328576103db610532565b80546001600160a01b03198116825581906001600160a01b03167f8be0079c531659141344cd1fd0a4f28419497f9722a3daafe3b4186f6b6457e08280a380f35b503461013a578060031936011261013a5761017b9061016461043c6104eb565b60243590610aff565b503461013a578160031936011261013a57517f00000000000000000000000000000000000000000000000000000000000000006001600160a01b03168152602090f35b503461013a578160031936011261013a5760209051600a8152f35b503461013a578060031936011261013a576104bc6104eb565b6001600160a01b031682526001602052808220805460243591908210156104e757906102c691610505565b8380fd5b600435906001600160a01b038216820361050157565b5f80fd5b805482101561051e575f52600360205f20910201905f90565b634e487b7160e01b5f52603260045260245ffd5b5f546001600160a01b0316330361054557565b60405163118cdaa760e01b8152336004820152602490fd5b602081019081106001600160401b0382111761057857604052565b634e487b7160e01b5f52604160045260245ffd5b90601f801991011681019081106001600160401b0382111761057857604052565b9081602091031261050157516001600160a01b03811681036105015790565b6001600160a01b0391821681529116602082015260400190565b919061060657604081600292518455602081015160018501550151910155565b634e487b7160e01b5f525f60045260245ffd5b9190820391821161062657565b634e487b7160e01b5f52601160045260245ffd5b9190820180921161062657565b6040805163e6a4390560e01b8152600492916020908261068a7f0000000000000000000000000000000000000000000000000000000000000000868884016105cc565b6001600160a01b039491849183919003817f000000000000000000000000000000000000000000000000000000000000000088165afa908115610ad7579084915f91610aaa575b5016918215610aa0575f9063ffffffff94854216958451635909c0d560e01b815283818b818a5afa948515610a95578095610a63575b50508451635a3d549360e01b81528484828c818b5afa918215610a59575f92610a2a575b508a60608399895192838092630240bc6b60e21b82525afa938415610a20575f94859286916109e7575b5081168b8103610941575b505050505050835196606088018881106001600160401b0382111761092e578552868852838389015285858901521695865f52600197888352845f208054600a8110155f146108cd57505f8a5b610820575b5080545f1981019290831161080d575060609694926107f87f14995b7b36f23cc69c26d29b9a65835b6d788e1189d68ba9adb17cf0a95b6ad8999795936107fe93610505565b906105e6565b8251948552840152820152a290565b601190634e487b7160e01b5f525260245ffd5b81545f1981019081116108b5578110156108c8578a81018082116108b5576108489083610505565b506108538284610505565b9190916108a357808203610887575b50505f198114610874578a018a6107ad565b601183634e487b7160e01b5f525260245ffd5b805482558c8101548d8301556002809101549101555f80610862565b5f85634e487b7160e01b82525260245ffd5b601184634e487b7160e01b5f525260245ffd5b6107b2565b91600160401b83101561091b575060609694926107f883610916938d7f14995b7b36f23cc69c26d29b9a65835b6d788e1189d68ba9adb17cf0a95b6ad89c9a9896018155610505565b6107fe565b604190634e487b7160e01b5f525260245ffd5b60418a634e487b7160e01b5f525260245ffd5b8b038181116109d4571691821515806109c2575b806109b0575b610966575b80610760565b9498509295506109a5939192610999926001600160e01b03916109929161099f90868686868e876110fd565b5116610e7f565b9061063a565b986110fd565b935f80808080610960565b506001600160701b038216151561095b565b506001600160701b0385161515610955565b60118e634e487b7160e01b5f525260245ffd5b9050819550610a0e91925060603d8111610a19575b610a06818361058c565b810190610e49565b929195909290610755565b503d6109fc565b88513d5f823e3d90fd5b90918582813d8311610a52575b610a41818361058c565b81010312610328575051905f61072b565b503d610a37565b87513d5f823e3d90fd5b909194508382813d8311610a8e575b610a7c818361058c565b81010312610328575051925f80610707565b503d610a72565b8651903d90823e3d90fd5b5050505050505f90565b610aca9150843d8611610ad0575b610ac2818361058c565b8101906105ad565b5f6106d1565b503d610ab8565b82513d5f823e3d90fd5b8115610aeb570490565b634e487b7160e01b5f52601260045260245ffd5b6001600160a01b038181165f818152600160209081526040822080549295949093919060028410610e27575f1997848901948511610e1357879885805b610da3575b5050610b64610b508688610505565b5054610b5c8b89610505565b505490610619565b10610d9a575b610b83610b778587610505565b5054610b5c8a88610505565b958615610d8b5760405163e6a4390560e01b81527f000000000000000000000000000000000000000000000000000000000000000090848180610bca8587600484016105cc565b0381877f0000000000000000000000000000000000000000000000000000000000000000165afa8015610d8057610d63575b50828116808614610d1257851015610d0b57505b16908115610cc857501494610c5c9392610c579290918715610cb357610c3860019184610505565b500154915b8715610ca757600191610c4f91610505565b500154610619565b610ae1565b9115610c6a575b5090600190565b8115610ca1578115610c8d57506a0c097ce7bc90715b34b9f160241b045f610c63565b634e487b7160e01b81526012600452602490fd5b91829150565b600291610c4f91610505565b610cbf60029184610505565b50015491610c3d565b6064906040519062461bcd60e51b82526004820152601c60248201527b4d656d65545741504f7261636c653a205a45524f5f4144445245535360201b6044820152fd5b9050610c10565b60405162461bcd60e51b815260048101869052602360248201527f4d656d65545741504f7261636c653a204944454e544943414c5f41444452455360448201526253455360e81b6064820152608490fd5b610d7990853d8711610ad057610ac2818361058c565b505f610bfc565b6040513d8c823e3d90fd5b50505050505050809291509190565b96508596610b6a565b610dad8789610505565b505482820190828211610dff57610dc98591610b5c848d610505565b1015610df257508015610dde57810180610b3c565b634e487b7160e01b8a52601160045260248afd5b929a505050975f80610b41565b634e487b7160e01b8c52601160045260248cfd5b634e487b7160e01b88526011600452602488fd5b505050505050809291509190565b51906001600160701b038216820361050157565b9081606091031261050157610e5d81610e35565b916040610e6c60208401610e35565b92015163ffffffff811681036105015790565b8181029291811591840414171561062657565b6040805163e6a4390560e01b8152602092919080610ed47f000000000000000000000000000000000000000000000000000000000000000085600484016105cc565b6001600160a01b039291869183919003817f000000000000000000000000000000000000000000000000000000000000000086165afa908115611070579082915f91611053575b5016928315611048578251630240bc6b60e21b815294606086600481885afa94851561103e575f968796611011575b509080600492865193848092630dfe168160e01b82525afa94851561100857505f94610fe5575b505081169116145f14610fb457670de0b6b3a76400006001600160701b039182168181029291811591840414171561062657610fae921690610ae1565b90600190565b90670de0b6b3a76400006001600160701b039182168181029291811591840414171561062657610fae921690610ae1565b83929450908161100092903d10610ad057610ac2818361058c565b92905f610f71565b513d5f823e3d90fd5b8297506004929196506110319060603d8111610a1957610a06818361058c565b5097909796919250610f4a565b84513d5f823e3d90fd5b50505050505f905f90565b61106a9150863d8811610ad057610ac2818361058c565b5f610f1b565b83513d5f823e3d90fd5b6001600160a01b03165f90815260016020526040812080549190600283106110f6575f1983018381116110e2576110b19082610505565b505492156110ce57815260209020546110c991610619565b101590565b634e487b7160e01b82526032600452602482fd5b634e487b7160e01b83526011600452602483fd5b5091505090565b905f60405161110b8161055d565b526001600160701b0390811690811561116e5782161561115a576001600160e01b0391611147919060701b600160701b600160e01b0316610ae1565b16604051906111558261055d565b815290565b50506040516111688161055d565b5f815290565b60405162461bcd60e51b81526020600482015260176024820152764669786564506f696e743a204449565f42595f5a45524f60481b6044820152606490fdfea26469706673582212206108425b5850a5ea792b7626ac417f41709dc4afa0ae8077b37d275280864e0d64736f6c634300081400330000000000000000000000005fbdb2315678afecb367f032d93f642f64180aa3000000000000000000000000e7f1725e7734ce288f8367e1bb143e90bb3f0512",
        "nonce": "0x27",
        "chainId": "0x7a69"
      },
      "additionalContracts": [],
      "isFixedGasLimit": false
    },
    {
      "hash": "0xa99aa8cc5eacf0cc758743724d4da095e4904051d9f3a4259cd5482d35a26afa",
      "transactionType": "CALL",
      "contractName": "MemeTWAPOracle",
      "contractAddress": "0x998abeb3e57409262ae5b751f60747921b33613e",
      "function": "updatePrice(address)",
      "arguments": [
        "0x3Ca8f9C04c7e3E1624Ac2008F92f6F366A869444"
      ],
      "transaction": {
        "from": "0xf39fd6e51aad88f6f4ce6ab8827279cfffb92266",
        "to": "0x998abeb3e57409262ae5b751f60747921b33613e",
        "gas": "0x2be62",
        "value": "0x0",
        "input": "0x96e85ced0000000000000000000000003ca8f9c04c7e3e1624ac2008f92f6f366a869444",
        "nonce": "0x28",
        "chainId": "0x7a69"
      },
      "additionalContracts": [],
      "isFixedGasLimit": false
    },
    {
      "hash": "0xd9aebc6d2811f8bbaf7b6d7d3fd033bcae6fc01b7a510a2af298e722ae6a7b0d",
      "transactionType": "CALL",
      "contractName": null,
      "contractAddress": "0x9fe46736679d2d9a65f0992f2272de9f3c7fa6e0",
      "function": "swapExactETHForTokens(uint256,address[],address,uint256)",
      "arguments": [
        "0",
        "[0xe7f1725E7734CE288F8367e1Bb143E90bb3F0512, 0x3Ca8f9C04c7e3E1624Ac2008F92f6F366A869444]",
        "0x9f7cF1d1F558E57ef88a59ac3D47214eF25B6A06",
        "1748424575"
      ],
      "transaction": {
        "from": "0xf39fd6e51aad88f6f4ce6ab8827279cfffb92266",
        "to": "0x9fe46736679d2d9a65f0992f2272de9f3c7fa6e0",
        "gas": "0x2656c",
        "value": "0x2386f26fc10000",
        "input": "0x7ff36ab5000000000000000000000000000000000000000000000000000000000000000000000000000000000000000000000000000000000000000000000000000000800000000000000000000000009f7cf1d1f558e57ef88a59ac3d47214ef25b6a06000000000000000000000000000000000000000000000000000000006836d77f0000000000000000000000000000000000000000000000000000000000000002000000000000000000000000e7f1725e7734ce288f8367e1bb143e90bb3f05120000000000000000000000003ca8f9c04c7e3e1624ac2008f92f6f366a869444",
        "nonce": "0x29",
        "chainId": "0x7a69"
      },
      "additionalContracts": [],
      "isFixedGasLimit": false
    },
    {
      "hash": "0xa25a48c614e313da64641c06658537df19bd9c309c35198b020949a2592d6272",
      "transactionType": "CALL",
      "contractName": "MemeTWAPOracle",
      "contractAddress": "0x998abeb3e57409262ae5b751f60747921b33613e",
      "function": "updatePrice(address)",
      "arguments": [
        "0x3Ca8f9C04c7e3E1624Ac2008F92f6F366A869444"
      ],
      "transaction": {
        "from": "0xf39fd6e51aad88f6f4ce6ab8827279cfffb92266",
        "to": "0x998abeb3e57409262ae5b751f60747921b33613e",
        "gas": "0x2621f",
        "value": "0x0",
        "input": "0x96e85ced0000000000000000000000003ca8f9c04c7e3e1624ac2008f92f6f366a869444",
        "nonce": "0x2a",
        "chainId": "0x7a69"
      },
      "additionalContracts": [],
      "isFixedGasLimit": false
    },
    {
      "hash": "0x102dfdd3d844e354421759f17385052d91cfa2f88543d656826e1b6df4625d16",
      "transactionType": "CALL",
      "contractName": null,
      "contractAddress": "0x9fe46736679d2d9a65f0992f2272de9f3c7fa6e0",
      "function": "swapExactETHForTokens(uint256,address[],address,uint256)",
      "arguments": [
        "0",
        "[0xe7f1725E7734CE288F8367e1Bb143E90bb3F0512, 0x3Ca8f9C04c7e3E1624Ac2008F92f6F366A869444]",
        "0x9f7cF1d1F558E57ef88a59ac3D47214eF25B6A06",
        "1748428175"
      ],
      "transaction": {
        "from": "0xf39fd6e51aad88f6f4ce6ab8827279cfffb92266",
        "to": "0x9fe46736679d2d9a65f0992f2272de9f3c7fa6e0",
        "gas": "0x20929",
        "value": "0x6f05b59d3b20000",
        "input": "0x7ff36ab5000000000000000000000000000000000000000000000000000000000000000000000000000000000000000000000000000000000000000000000000000000800000000000000000000000009f7cf1d1f558e57ef88a59ac3d47214ef25b6a06000000000000000000000000000000000000000000000000000000006836e58f0000000000000000000000000000000000000000000000000000000000000002000000000000000000000000e7f1725e7734ce288f8367e1bb143e90bb3f05120000000000000000000000003ca8f9c04c7e3e1624ac2008f92f6f366a869444",
        "nonce": "0x2b",
        "chainId": "0x7a69"
      },
      "additionalContracts": [],
      "isFixedGasLimit": false
    },
    {
      "hash": "0xfcef8e05562f0fc72958476cad6cd766a37214538616f96364f052b52c601739",
      "transactionType": "CALL",
      "contractName": "MemeTWAPOracle",
      "contractAddress": "0x998abeb3e57409262ae5b751f60747921b33613e",
      "function": "updatePrice(address)",
      "arguments": [
        "0x3Ca8f9C04c7e3E1624Ac2008F92f6F366A869444"
      ],
      "transaction": {
        "from": "0xf39fd6e51aad88f6f4ce6ab8827279cfffb92266",
        "to": "0x998abeb3e57409262ae5b751f60747921b33613e",
        "gas": "0x2621f",
        "value": "0x0",
        "input": "0x96e85ced0000000000000000000000003ca8f9c04c7e3e1624ac2008f92f6f366a869444",
        "nonce": "0x2c",
        "chainId": "0x7a69"
      },
      "additionalContracts": [],
      "isFixedGasLimit": false
    },
    {
      "hash": "0x6b913d978754cd5180ce3dabc4fec972edc80a6e784351176b488d833392c1ab",
      "transactionType": "CALL",
      "contractName": null,
      "contractAddress": "0x3ca8f9c04c7e3e1624ac2008f92f6f366a869444",
      "function": "approve(address,uint256)",
      "arguments": [
        "0x9fE46736679d2D9a65F0992F2272dE9f3c7fa6e0",
        "4403931518093873663053"
      ],
      "transaction": {
        "from": "0xf39fd6e51aad88f6f4ce6ab8827279cfffb92266",
        "to": "0x3ca8f9c04c7e3e1624ac2008f92f6f366a869444",
        "gas": "0x106d0",
        "value": "0x0",
        "input": "0x095ea7b30000000000000000000000009fe46736679d2d9a65f0992f2272de9f3c7fa6e00000000000000000000000000000000000000000000000eebcd3bead5c1c4c4d",
        "nonce": "0x2d",
        "chainId": "0x7a69"
      },
      "additionalContracts": [],
      "isFixedGasLimit": false
    },
    {
      "hash": "0x43a3e557a1fef95c843a3d57717937bb44d2d6d04df92887318777f53d6b2788",
      "transactionType": "CALL",
      "contractName": null,
      "contractAddress": "0x9fe46736679d2d9a65f0992f2272de9f3c7fa6e0",
      "function": "swapExactTokensForETH(uint256,uint256,address[],address,uint256)",
      "arguments": [
        "4403931518093873663053",
        "0",
        "[0x3Ca8f9C04c7e3E1624Ac2008F92f6F366A869444, 0xe7f1725E7734CE288F8367e1Bb143E90bb3F0512]",
        "0x9f7cF1d1F558E57ef88a59ac3D47214eF25B6A06",
        "1748431775"
      ],
      "transaction": {
        "from": "0xf39fd6e51aad88f6f4ce6ab8827279cfffb92266",
        "to": "0x9fe46736679d2d9a65f0992f2272de9f3c7fa6e0",
        "gas": "0x2f63a",
        "value": "0x0",
        "input": "0x18cbafe50000000000000000000000000000000000000000000000eebcd3bead5c1c4c4d000000000000000000000000000000000000000000000000000000000000000000000000000000000000000000000000000000000000000000000000000000a00000000000000000000000009f7cf1d1f558e57ef88a59ac3d47214ef25b6a06000000000000000000000000000000000000000000000000000000006836f39f00000000000000000000000000000000000000000000000000000000000000020000000000000000000000003ca8f9c04c7e3e1624ac2008f92f6f366a869444000000000000000000000000e7f1725e7734ce288f8367e1bb143e90bb3f0512",
        "nonce": "0x2e",
        "chainId": "0x7a69"
      },
      "additionalContracts": [],
      "isFixedGasLimit": false
    },
    {
      "hash": "0x6661089eed47746c2f1b3575cebae54b2ebe445aed2e9636bf2b591aa2ffa034",
      "transactionType": "CALL",
      "contractName": "MemeTWAPOracle",
      "contractAddress": "0x998abeb3e57409262ae5b751f60747921b33613e",
      "function": "updatePrice(address)",
      "arguments": [
        "0x3Ca8f9C04c7e3E1624Ac2008F92f6F366A869444"
      ],
      "transaction": {
        "from": "0xf39fd6e51aad88f6f4ce6ab8827279cfffb92266",
        "to": "0x998abeb3e57409262ae5b751f60747921b33613e",
        "gas": "0x2621f",
        "value": "0x0",
        "input": "0x96e85ced0000000000000000000000003ca8f9c04c7e3e1624ac2008f92f6f366a869444",
        "nonce": "0x2f",
        "chainId": "0x7a69"
      },
      "additionalContracts": [],
      "isFixedGasLimit": false
    },
    {
      "hash": "0x36dfd1b06386dad3ec1ba752ca60040b70104a743084362375accab481c95ba3",
      "transactionType": "CALL",
      "contractName": null,
      "contractAddress": "0x9fe46736679d2d9a65f0992f2272de9f3c7fa6e0",
      "function": "swapExactETHForTokens(uint256,address[],address,uint256)",
      "arguments": [
        "0",
        "[0xe7f1725E7734CE288F8367e1Bb143E90bb3F0512, 0x3Ca8f9C04c7e3E1624Ac2008F92f6F366A869444]",
        "0x9f7cF1d1F558E57ef88a59ac3D47214eF25B6A06",
        "1748435375"
      ],
      "transaction": {
        "from": "0xf39fd6e51aad88f6f4ce6ab8827279cfffb92266",
        "to": "0x9fe46736679d2d9a65f0992f2272de9f3c7fa6e0",
        "gas": "0x20929",
        "value": "0x2c68af0bb140000",
        "input": "0x7ff36ab5000000000000000000000000000000000000000000000000000000000000000000000000000000000000000000000000000000000000000000000000000000800000000000000000000000009f7cf1d1f558e57ef88a59ac3d47214ef25b6a0600000000000000000000000000000000000000000000000000000000683701af0000000000000000000000000000000000000000000000000000000000000002000000000000000000000000e7f1725e7734ce288f8367e1bb143e90bb3f05120000000000000000000000003ca8f9c04c7e3e1624ac2008f92f6f366a869444",
        "nonce": "0x30",
        "chainId": "0x7a69"
      },
      "additionalContracts": [],
      "isFixedGasLimit": false
    },
    {
      "hash": "0x5fc67145ef691dc07dfda68f60e7d2003b8943dff0f530e379cb01a083f45bdf",
      "transactionType": "CALL",
      "contractName": "MemeTWAPOracle",
      "contractAddress": "0x998abeb3e57409262ae5b751f60747921b33613e",
      "function": "updatePrice(address)",
      "arguments": [
        "0x3Ca8f9C04c7e3E1624Ac2008F92f6F366A869444"
      ],
      "transaction": {
        "from": "0xf39fd6e51aad88f6f4ce6ab8827279cfffb92266",
        "to": "0x998abeb3e57409262ae5b751f60747921b33613e",
        "gas": "0x2621f",
        "value": "0x0",
        "input": "0x96e85ced0000000000000000000000003ca8f9c04c7e3e1624ac2008f92f6f366a869444",
        "nonce": "0x31",
        "chainId": "0x7a69"
      },
      "additionalContracts": [],
      "isFixedGasLimit": false
    }
  ],
  "receipts": [
    {
      "status": "0x1",
      "cumulativeGasUsed": "0x105c7d",
      "logs": [
        {
          "address": "0x998abeb3e57409262ae5b751f60747921b33613e",
          "topics": [
            "0x8be0079c531659141344cd1fd0a4f28419497f9722a3daafe3b4186f6b6457e0",
            "0x0000000000000000000000000000000000000000000000000000000000000000",
            "0x000000000000000000000000f39fd6e51aad88f6f4ce6ab8827279cfffb92266"
          ],
          "data": "0x",
          "blockHash": "0xa9bd44d18c4fca07a249b75031c583cb1daecac17d8c7b1efc1ca5c8f7638fe0",
          "blockNumber": "0x18",
          "blockTimestamp": "0x6836cb99",
          "transactionHash": "0xe96baf60169d05aea8fe861cd3b69308f6a44e70cff913209d6b6d81d4424952",
          "transactionIndex": "0x0",
          "logIndex": "0x0",
          "removed": false
        }
      ],
      "logsBloom": "0x00002000000000000000000000000000000000000000000000800000000000000000000000000000000000000000000080000000000000000000000000000000000000000000000000000000000000000001000000000000000000000000000000000000020000000000000100000800000000000000000000000100000000400000000000000000000000000000000000000000000000000000000000000000000000000000000000000000000000000000000000000000000000000000000000000000000000200000000000000000000000002000000000000000000020000000000000000000000000000000000000000000000000000000000000000000",
      "type": "0x2",
      "transactionHash": "0xe96baf60169d05aea8fe861cd3b69308f6a44e70cff913209d6b6d81d4424952",
      "transactionIndex": "0x0",
      "blockHash": "0xa9bd44d18c4fca07a249b75031c583cb1daecac17d8c7b1efc1ca5c8f7638fe0",
      "blockNumber": "0x18",
      "gasUsed": "0x105c7d",
      "effectiveGasPrice": "0x346bd13",
      "blobGasPrice": "0x1",
      "from": "0xf39fd6e51aad88f6f4ce6ab8827279cfffb92266",
      "to": null,
      "contractAddress": "0x998abeb3e57409262ae5b751f60747921b33613e"
    },
    {
      "status": "0x1",
      "cumulativeGasUsed": "0x20202",
      "logs": [
        {
          "address": "0x998abeb3e57409262ae5b751f60747921b33613e",
          "topics": [
            "0x14995b7b36f23cc69c26d29b9a65835b6d788e1189d68ba9adb17cf0a95b6ad8",
            "0x0000000000000000000000003ca8f9c04c7e3e1624ac2008f92f6f366a869444"
          ],
          "data": "0x000000000000000000000000000000000000000000000000000000006836cb9900000000000000000000000000000000000038420ecedd7dbef67f5056a51f1600000000000000000000000000000583001ed22d3baa52cec6ee25884085d520",
          "blockHash": "0xb173c5099b90193c98433b96e2862c8f4255d053dd3b8de968ebb3b97ccc3cfd",
          "blockNumber": "0x19",
          "blockTimestamp": "0x6836cb99",
          "transactionHash": "0xa99aa8cc5eacf0cc758743724d4da095e4904051d9f3a4259cd5482d35a26afa",
          "transactionIndex": "0x0",
          "logIndex": "0x0",
          "removed": false
        }
      ],
      "logsBloom": "0x00002000000000000000000000000000000000000000000000000000000000000000000000000000000000000000000080000000000000000000000000000000002000000000000000000000000000000000000000000020000000000000000000000000000000000000000000000000000000000000080000000100000000000002000000000000000000080000000000000000000000000000000000000000000000000000000000000000000000000000000000000000000000000000000000000000000000000000000000000000000000000000000000000000000000000000000000000000000000000000001000000000000000000000000000000000",
      "type": "0x2",
      "transactionHash": "0xa99aa8cc5eacf0cc758743724d4da095e4904051d9f3a4259cd5482d35a26afa",
      "transactionIndex": "0x0",
      "blockHash": "0xb173c5099b90193c98433b96e2862c8f4255d053dd3b8de968ebb3b97ccc3cfd",
      "blockNumber": "0x19",
      "gasUsed": "0x20202",
      "effectiveGasPrice": "0x2e56409",
      "blobGasPrice": "0x1",
      "from": "0xf39fd6e51aad88f6f4ce6ab8827279cfffb92266",
      "to": "0x998abeb3e57409262ae5b751f60747921b33613e",
      "contractAddress": null
    },
    {
      "status": "0x1",
      "cumulativeGasUsed": "0x3e897",
      "logs": [
        {
          "address": "0xe7f1725e7734ce288f8367e1bb143e90bb3f0512",
          "topics": [
            "0xe1fffcc4923d04b559f4d29a8bfc6cda04eb5b0d3c460751c2402c5c5cc9109c",
            "0x0000000000000000000000009fe46736679d2d9a65f0992f2272de9f3c7fa6e0"
          ],
          "data": "0x000000000000000000000000000000000000000000000000002386f26fc10000",
          "blockHash": "0xb173c5099b90193c98433b96e2862c8f4255d053dd3b8de968ebb3b97ccc3cfd",
          "blockNumber": "0x19",
          "blockTimestamp": "0x6836cb99",
          "transactionHash": "0xd9aebc6d2811f8bbaf7b6d7d3fd033bcae6fc01b7a510a2af298e722ae6a7b0d",
          "transactionIndex": "0x1",
          "logIndex": "0x1",
          "removed": false
        },
        {
          "address": "0xe7f1725e7734ce288f8367e1bb143e90bb3f0512",
          "topics": [
            "0xddf252ad1be2c89b69c2b068fc378daa952ba7f163c4a11628f55a4df523b3ef",
            "0x0000000000000000000000009fe46736679d2d9a65f0992f2272de9f3c7fa6e0",
            "0x000000000000000000000000f4177fde0a6f4626358ba1ac20c9c5dad0174597"
          ],
          "data": "0x000000000000000000000000000000000000000000000000002386f26fc10000",
          "blockHash": "0xb173c5099b90193c98433b96e2862c8f4255d053dd3b8de968ebb3b97ccc3cfd",
          "blockNumber": "0x19",
          "blockTimestamp": "0x6836cb99",
          "transactionHash": "0xd9aebc6d2811f8bbaf7b6d7d3fd033bcae6fc01b7a510a2af298e722ae6a7b0d",
          "transactionIndex": "0x1",
          "logIndex": "0x2",
          "removed": false
        },
        {
          "address": "0x3ca8f9c04c7e3e1624ac2008f92f6f366a869444",
          "topics": [
            "0xddf252ad1be2c89b69c2b068fc378daa952ba7f163c4a11628f55a4df523b3ef",
            "0x000000000000000000000000f4177fde0a6f4626358ba1ac20c9c5dad0174597",
            "0x0000000000000000000000009f7cf1d1f558e57ef88a59ac3d47214ef25b6a06"
          ],
          "data": "0x0000000000000000000000000000000000000000000000153444179647b4412e",
          "blockHash": "0xb173c5099b90193c98433b96e2862c8f4255d053dd3b8de968ebb3b97ccc3cfd",
          "blockNumber": "0x19",
          "blockTimestamp": "0x6836cb99",
          "transactionHash": "0xd9aebc6d2811f8bbaf7b6d7d3fd033bcae6fc01b7a510a2af298e722ae6a7b0d",
          "transactionIndex": "0x1",
          "logIndex": "0x3",
          "removed": false
        },
        {
          "address": "0xf4177fde0a6f4626358ba1ac20c9c5dad0174597",
          "topics": [
            "0x1c411e9a96e071241c2f21f7726b17ae89e3cab4c78be50e062b03a9fffbbad1"
          ],
          "data": "0x000000000000000000000000000000000000000000000061a1bee28f90f3263700000000000000000000000000000000000000000000000000c69dd1d8043b2c",
          "blockHash": "0xb173c5099b90193c98433b96e2862c8f4255d053dd3b8de968ebb3b97ccc3cfd",
          "blockNumber": "0x19",
          "blockTimestamp": "0x6836cb99",
          "transactionHash": "0xd9aebc6d2811f8bbaf7b6d7d3fd033bcae6fc01b7a510a2af298e722ae6a7b0d",
          "transactionIndex": "0x1",
          "logIndex": "0x4",
          "removed": false
        },
        {
          "address": "0xf4177fde0a6f4626358ba1ac20c9c5dad0174597",
          "topics": [
            "0xd78ad95fa46c994b6551d0da85fc275fe613ce37657fb8d5e3d130840159d822",
            "0x0000000000000000000000009fe46736679d2d9a65f0992f2272de9f3c7fa6e0",
            "0x0000000000000000000000009f7cf1d1f558e57ef88a59ac3d47214ef25b6a06"
          ],
          "data": "0x0000000000000000000000000000000000000000000000000000000000000000000000000000000000000000000000000000000000000000002386f26fc100000000000000000000000000000000000000000000000000153444179647b4412e0000000000000000000000000000000000000000000000000000000000000000",
          "blockHash": "0xb173c5099b90193c98433b96e2862c8f4255d053dd3b8de968ebb3b97ccc3cfd",
          "blockNumber": "0x19",
          "blockTimestamp": "0x6836cb99",
          "transactionHash": "0xd9aebc6d2811f8bbaf7b6d7d3fd033bcae6fc01b7a510a2af298e722ae6a7b0d",
          "transactionIndex": "0x1",
          "logIndex": "0x5",
          "removed": false
        }
      ],
      "logsBloom": "0x00200000000000000000000080000000000000000000000000000000000000000000000000000000000400000000000010400000000000000000000000000401000040000000000000000008000000200000000000000000000000008000400000000000000000000200000000000000008100000000000000000010000000000000000000000000000000800000000000000001004000080000004000000000000800004000000000000000000000000000000000000000000000000000800000000002000000000000000000001000000000000000001000000000000000000000000000000000000000080000000000000000000000c00000000000000000",
      "type": "0x2",
      "transactionHash": "0xd9aebc6d2811f8bbaf7b6d7d3fd033bcae6fc01b7a510a2af298e722ae6a7b0d",
      "transactionIndex": "0x1",
      "blockHash": "0xb173c5099b90193c98433b96e2862c8f4255d053dd3b8de968ebb3b97ccc3cfd",
      "blockNumber": "0x19",
      "gasUsed": "0x1e695",
      "effectiveGasPrice": "0x2e56409",
      "blobGasPrice": "0x1",
      "from": "0xf39fd6e51aad88f6f4ce6ab8827279cfffb92266",
      "to": "0x9fe46736679d2d9a65f0992f2272de9f3c7fa6e0",
      "contractAddress": null
    },
    {
      "status": "0x1",
      "cumulativeGasUsed": "0x5a24f",
      "logs": [
        {
          "address": "0x998abeb3e57409262ae5b751f60747921b33613e",
          "topics": [
            "0x14995b7b36f23cc69c26d29b9a65835b6d788e1189d68ba9adb17cf0a95b6ad8",
            "0x0000000000000000000000003ca8f9c04c7e3e1624ac2008f92f6f366a869444"
          ],
          "data": "0x000000000000000000000000000000000000000000000000000000006836cb9900000000000000000000000000000000000038420ecedd7dbef67f5056a51f1600000000000000000000000000000583001ed22d3baa52cec6ee25884085d520",
          "blockHash": "0xb173c5099b90193c98433b96e2862c8f4255d053dd3b8de968ebb3b97ccc3cfd",
          "blockNumber": "0x19",
          "blockTimestamp": "0x6836cb99",
          "transactionHash": "0xa25a48c614e313da64641c06658537df19bd9c309c35198b020949a2592d6272",
          "transactionIndex": "0x2",
          "logIndex": "0x6",
          "removed": false
        }
      ],
      "logsBloom": "0x00002000000000000000000000000000000000000000000000000000000000000000000000000000000000000000000080000000000000000000000000000000002000000000000000000000000000000000000000000020000000000000000000000000000000000000000000000000000000000000080000000100000000000002000000000000000000080000000000000000000000000000000000000000000000000000000000000000000000000000000000000000000000000000000000000000000000000000000000000000000000000000000000000000000000000000000000000000000000000000001000000000000000000000000000000000",
      "type": "0x2",
      "transactionHash": "0xa25a48c614e313da64641c06658537df19bd9c309c35198b020949a2592d6272",
      "transactionIndex": "0x2",
      "blockHash": "0xb173c5099b90193c98433b96e2862c8f4255d053dd3b8de968ebb3b97ccc3cfd",
      "blockNumber": "0x19",
      "gasUsed": "0x1b9b8",
      "effectiveGasPrice": "0x2e56409",
      "blobGasPrice": "0x1",
      "from": "0xf39fd6e51aad88f6f4ce6ab8827279cfffb92266",
      "to": "0x998abeb3e57409262ae5b751f60747921b33613e",
      "contractAddress": null
    },
    {
      "status": "0x1",
      "cumulativeGasUsed": "0x17950",
      "logs": [
        {
          "address": "0xe7f1725e7734ce288f8367e1bb143e90bb3f0512",
          "topics": [
            "0xe1fffcc4923d04b559f4d29a8bfc6cda04eb5b0d3c460751c2402c5c5cc9109c",
            "0x0000000000000000000000009fe46736679d2d9a65f0992f2272de9f3c7fa6e0"
          ],
          "data": "0x00000000000000000000000000000000000000000000000006f05b59d3b20000",
          "blockHash": "0x05d10fca4747b35759eb1eb3f798a40d3aba2677b9185f920f0132be837e6c68",
          "blockNumber": "0x1a",
          "blockTimestamp": "0x6836cb99",
          "transactionHash": "0x102dfdd3d844e354421759f17385052d91cfa2f88543d656826e1b6df4625d16",
          "transactionIndex": "0x0",
          "logIndex": "0x0",
          "removed": false
        },
        {
          "address": "0xe7f1725e7734ce288f8367e1bb143e90bb3f0512",
          "topics": [
            "0xddf252ad1be2c89b69c2b068fc378daa952ba7f163c4a11628f55a4df523b3ef",
            "0x0000000000000000000000009fe46736679d2d9a65f0992f2272de9f3c7fa6e0",
            "0x000000000000000000000000f4177fde0a6f4626358ba1ac20c9c5dad0174597"
          ],
          "data": "0x00000000000000000000000000000000000000000000000006f05b59d3b20000",
          "blockHash": "0x05d10fca4747b35759eb1eb3f798a40d3aba2677b9185f920f0132be837e6c68",
          "blockNumber": "0x1a",
          "blockTimestamp": "0x6836cb99",
          "transactionHash": "0x102dfdd3d844e354421759f17385052d91cfa2f88543d656826e1b6df4625d16",
          "transactionIndex": "0x0",
          "logIndex": "0x1",
          "removed": false
        },
        {
          "address": "0x3ca8f9c04c7e3e1624ac2008f92f6f366a869444",
          "topics": [
            "0xddf252ad1be2c89b69c2b068fc378daa952ba7f163c4a11628f55a4df523b3ef",
            "0x000000000000000000000000f4177fde0a6f4626358ba1ac20c9c5dad0174597",
            "0x0000000000000000000000009f7cf1d1f558e57ef88a59ac3d47214ef25b6a06"
          ],
          "data": "0x000000000000000000000000000000000000000000000057c968473090ff582b",
          "blockHash": "0x05d10fca4747b35759eb1eb3f798a40d3aba2677b9185f920f0132be837e6c68",
          "blockNumber": "0x1a",
          "blockTimestamp": "0x6836cb99",
          "transactionHash": "0x102dfdd3d844e354421759f17385052d91cfa2f88543d656826e1b6df4625d16",
          "transactionIndex": "0x0",
          "logIndex": "0x2",
          "removed": false
        },
        {
          "address": "0xf4177fde0a6f4626358ba1ac20c9c5dad0174597",
          "topics": [
            "0x1c411e9a96e071241c2f21f7726b17ae89e3cab4c78be50e062b03a9fffbbad1"
          ],
          "data": "0x000000000000000000000000000000000000000000000009d8569b5efff3ce0c00000000000000000000000000000000000000000000000007b6f92babb63b2c",
          "blockHash": "0x05d10fca4747b35759eb1eb3f798a40d3aba2677b9185f920f0132be837e6c68",
          "blockNumber": "0x1a",
          "blockTimestamp": "0x6836cb99",
          "transactionHash": "0x102dfdd3d844e354421759f17385052d91cfa2f88543d656826e1b6df4625d16",
          "transactionIndex": "0x0",
          "logIndex": "0x3",
          "removed": false
        },
        {
          "address": "0xf4177fde0a6f4626358ba1ac20c9c5dad0174597",
          "topics": [
            "0xd78ad95fa46c994b6551d0da85fc275fe613ce37657fb8d5e3d130840159d822",
            "0x0000000000000000000000009fe46736679d2d9a65f0992f2272de9f3c7fa6e0",
            "0x0000000000000000000000009f7cf1d1f558e57ef88a59ac3d47214ef25b6a06"
          ],
          "data": "0x000000000000000000000000000000000000000000000000000000000000000000000000000000000000000000000000000000000000000006f05b59d3b20000000000000000000000000000000000000000000000000057c968473090ff582b0000000000000000000000000000000000000000000000000000000000000000",
          "blockHash": "0x05d10fca4747b35759eb1eb3f798a40d3aba2677b9185f920f0132be837e6c68",
          "blockNumber": "0x1a",
          "blockTimestamp": "0x6836cb99",
          "transactionHash": "0x102dfdd3d844e354421759f17385052d91cfa2f88543d656826e1b6df4625d16",
          "transactionIndex": "0x0",
          "logIndex": "0x4",
          "removed": false
        }
      ],
      "logsBloom": "0x00200000000000000000000080000000000000000000000000000000000000000000000000000000000400000000000010400000000000000000000000000401000040000000000000000008000000200000000000000000000000008000400000000000000000000200000000000000008100000000000000000010000000000000000000000000000000800000000000000001004000080000004000000000000800004000000000000000000000000000000000000000000000000000800000000002000000000000000000001000000000000000001000000000000000000000000000000000000000080000000000000000000000c00000000000000000",
      "type": "0x2",
      "transactionHash": "0x102dfdd3d844e354421759f17385052d91cfa2f88543d656826e1b6df4625d16",
      "transactionIndex": "0x0",
      "blockHash": "0x05d10fca4747b35759eb1eb3f798a40d3aba2677b9185f920f0132be837e6c68",
      "blockNumber": "0x1a",
      "gasUsed": "0x17950",
      "effectiveGasPrice": "0x28aff85",
      "blobGasPrice": "0x1",
      "from": "0xf39fd6e51aad88f6f4ce6ab8827279cfffb92266",
      "to": "0x9fe46736679d2d9a65f0992f2272de9f3c7fa6e0",
      "contractAddress": null
    },
    {
      "status": "0x1",
      "cumulativeGasUsed": "0x33308",
      "logs": [
        {
          "address": "0x998abeb3e57409262ae5b751f60747921b33613e",
          "topics": [
            "0x14995b7b36f23cc69c26d29b9a65835b6d788e1189d68ba9adb17cf0a95b6ad8",
            "0x0000000000000000000000003ca8f9c04c7e3e1624ac2008f92f6f366a869444"
          ],
          "data": "0x000000000000000000000000000000000000000000000000000000006836cb9900000000000000000000000000000000000038420ecedd7dbef67f5056a51f1600000000000000000000000000000583001ed22d3baa52cec6ee25884085d520",
          "blockHash": "0x05d10fca4747b35759eb1eb3f798a40d3aba2677b9185f920f0132be837e6c68",
          "blockNumber": "0x1a",
          "blockTimestamp": "0x6836cb99",
          "transactionHash": "0xfcef8e05562f0fc72958476cad6cd766a37214538616f96364f052b52c601739",
          "transactionIndex": "0x1",
          "logIndex": "0x5",
          "removed": false
        }
      ],
      "logsBloom": "0x00002000000000000000000000000000000000000000000000000000000000000000000000000000000000000000000080000000000000000000000000000000002000000000000000000000000000000000000000000020000000000000000000000000000000000000000000000000000000000000080000000100000000000002000000000000000000080000000000000000000000000000000000000000000000000000000000000000000000000000000000000000000000000000000000000000000000000000000000000000000000000000000000000000000000000000000000000000000000000000001000000000000000000000000000000000",
      "type": "0x2",
      "transactionHash": "0xfcef8e05562f0fc72958476cad6cd766a37214538616f96364f052b52c601739",
      "transactionIndex": "0x1",
      "blockHash": "0x05d10fca4747b35759eb1eb3f798a40d3aba2677b9185f920f0132be837e6c68",
      "blockNumber": "0x1a",
      "gasUsed": "0x1b9b8",
      "effectiveGasPrice": "0x28aff85",
      "blobGasPrice": "0x1",
      "from": "0xf39fd6e51aad88f6f4ce6ab8827279cfffb92266",
      "to": "0x998abeb3e57409262ae5b751f60747921b33613e",
      "contractAddress": null
    },
    {
      "status": "0x1",
      "cumulativeGasUsed": "0x3f14e",
      "logs": [
        {
          "address": "0x3ca8f9c04c7e3e1624ac2008f92f6f366a869444",
          "topics": [
            "0x8c5be1e5ebec7d5bd14f71427d1e84f3dd0314c0f7b2291e5b200ac8c7c3b925",
            "0x000000000000000000000000f39fd6e51aad88f6f4ce6ab8827279cfffb92266",
            "0x0000000000000000000000009fe46736679d2d9a65f0992f2272de9f3c7fa6e0"
          ],
          "data": "0x0000000000000000000000000000000000000000000000eebcd3bead5c1c4c4d",
          "blockHash": "0x05d10fca4747b35759eb1eb3f798a40d3aba2677b9185f920f0132be837e6c68",
          "blockNumber": "0x1a",
          "blockTimestamp": "0x6836cb99",
          "transactionHash": "0x6b913d978754cd5180ce3dabc4fec972edc80a6e784351176b488d833392c1ab",
          "transactionIndex": "0x2",
          "logIndex": "0x6",
          "removed": false
        }
      ],
      "logsBloom": "0x00000000000000000000000000000000000000000000000000000000000000000000000000000000000400000000000000400000000000000000000000200401000000000000000000000000000000000000000000000000000000000000400000000000000000000000000100000000000000000000000000000000000000000000000000000000000000000000000000000000000000000000000000000000020000000000000000000000000000000000000000000000000000000000800000000000000000200000000000000000000000002000000000000000000000000010000000000000000000000000000000000000000000000000000000000000",
      "type": "0x2",
      "transactionHash": "0x6b913d978754cd5180ce3dabc4fec972edc80a6e784351176b488d833392c1ab",
      "transactionIndex": "0x2",
      "blockHash": "0x05d10fca4747b35759eb1eb3f798a40d3aba2677b9185f920f0132be837e6c68",
      "blockNumber": "0x1a",
      "gasUsed": "0xbe46",
      "effectiveGasPrice": "0x28aff85",
      "blobGasPrice": "0x1",
      "from": "0xf39fd6e51aad88f6f4ce6ab8827279cfffb92266",
      "to": "0x3ca8f9c04c7e3e1624ac2008f92f6f366a869444",
      "contractAddress": null
    },
    {
      "status": "0x1",
      "cumulativeGasUsed": "0x5f7c1",
      "logs": [
        {
          "address": "0x3ca8f9c04c7e3e1624ac2008f92f6f366a869444",
          "topics": [
            "0xddf252ad1be2c89b69c2b068fc378daa952ba7f163c4a11628f55a4df523b3ef",
            "0x000000000000000000000000f39fd6e51aad88f6f4ce6ab8827279cfffb92266",
            "0x000000000000000000000000f4177fde0a6f4626358ba1ac20c9c5dad0174597"
          ],
          "data": "0x0000000000000000000000000000000000000000000000eebcd3bead5c1c4c4d",
          "blockHash": "0x05d10fca4747b35759eb1eb3f798a40d3aba2677b9185f920f0132be837e6c68",
          "blockNumber": "0x1a",
          "blockTimestamp": "0x6836cb99",
          "transactionHash": "0x43a3e557a1fef95c843a3d57717937bb44d2d6d04df92887318777f53d6b2788",
          "transactionIndex": "0x3",
          "logIndex": "0x7",
          "removed": false
        },
        {
          "address": "0xe7f1725e7734ce288f8367e1bb143e90bb3f0512",
          "topics": [
            "0xddf252ad1be2c89b69c2b068fc378daa952ba7f163c4a11628f55a4df523b3ef",
            "0x000000000000000000000000f4177fde0a6f4626358ba1ac20c9c5dad0174597",
            "0x0000000000000000000000009fe46736679d2d9a65f0992f2272de9f3c7fa6e0"
          ],
          "data": "0x00000000000000000000000000000000000000000000000007688762d8291499",
          "blockHash": "0x05d10fca4747b35759eb1eb3f798a40d3aba2677b9185f920f0132be837e6c68",
          "blockNumber": "0x1a",
          "blockTimestamp": "0x6836cb99",
          "transactionHash": "0x43a3e557a1fef95c843a3d57717937bb44d2d6d04df92887318777f53d6b2788",
          "transactionIndex": "0x3",
          "logIndex": "0x8",
          "removed": false
        },
        {
          "address": "0xf4177fde0a6f4626358ba1ac20c9c5dad0174597",
          "topics": [
            "0x1c411e9a96e071241c2f21f7726b17ae89e3cab4c78be50e062b03a9fffbbad1"
          ],
          "data": "0x0000000000000000000000000000000000000000000000f8952a5a0c5c101a59000000000000000000000000000000000000000000000000004e71c8d38d2693",
          "blockHash": "0x05d10fca4747b35759eb1eb3f798a40d3aba2677b9185f920f0132be837e6c68",
          "blockNumber": "0x1a",
          "blockTimestamp": "0x6836cb99",
          "transactionHash": "0x43a3e557a1fef95c843a3d57717937bb44d2d6d04df92887318777f53d6b2788",
          "transactionIndex": "0x3",
          "logIndex": "0x9",
          "removed": false
        },
        {
          "address": "0xf4177fde0a6f4626358ba1ac20c9c5dad0174597",
          "topics": [
            "0xd78ad95fa46c994b6551d0da85fc275fe613ce37657fb8d5e3d130840159d822",
            "0x0000000000000000000000009fe46736679d2d9a65f0992f2272de9f3c7fa6e0",
            "0x0000000000000000000000009fe46736679d2d9a65f0992f2272de9f3c7fa6e0"
          ],
          "data": "0x0000000000000000000000000000000000000000000000eebcd3bead5c1c4c4d0000000000000000000000000000000000000000000000000000000000000000000000000000000000000000000000000000000000000000000000000000000000000000000000000000000000000000000000000000000007688762d8291499",
          "blockHash": "0x05d10fca4747b35759eb1eb3f798a40d3aba2677b9185f920f0132be837e6c68",
          "blockNumber": "0x1a",
          "blockTimestamp": "0x6836cb99",
          "transactionHash": "0x43a3e557a1fef95c843a3d57717937bb44d2d6d04df92887318777f53d6b2788",
          "transactionIndex": "0x3",
          "logIndex": "0xa",
          "removed": false
        },
        {
          "address": "0xe7f1725e7734ce288f8367e1bb143e90bb3f0512",
          "topics": [
            "0x7fcf532c15f0a6db0bd6d0e038bea71d30d808c7d98cb3bf7268a95bf5081b65",
            "0x0000000000000000000000009fe46736679d2d9a65f0992f2272de9f3c7fa6e0"
          ],
          "data": "0x00000000000000000000000000000000000000000000000007688762d8291499",
          "blockHash": "0x05d10fca4747b35759eb1eb3f798a40d3aba2677b9185f920f0132be837e6c68",
          "blockNumber": "0x1a",
          "blockTimestamp": "0x6836cb99",
          "transactionHash": "0x43a3e557a1fef95c843a3d57717937bb44d2d6d04df92887318777f53d6b2788",
          "transactionIndex": "0x3",
          "logIndex": "0xb",
          "removed": false
        }
      ],
      "logsBloom": "0x00200000000000000000000080000000000000000000000000000000000000000000000000000000000400000000000010400000000000000000000000000401000000000000000000000008000000200000000000400000000000000000400000000000000000000200000100000000008100000000040000000010000000000000000000000000000000000000000000000000004000080000004000000000000800000000000000000000000000000000000000000000000000000000800000000002000000200000000000001000000000002000001000000002000000000000000000000000000000080000000000000000000000800000000000000000",
      "type": "0x2",
      "transactionHash": "0x43a3e557a1fef95c843a3d57717937bb44d2d6d04df92887318777f53d6b2788",
      "transactionIndex": "0x3",
      "blockHash": "0x05d10fca4747b35759eb1eb3f798a40d3aba2677b9185f920f0132be837e6c68",
      "blockNumber": "0x1a",
      "gasUsed": "0x20673",
      "effectiveGasPrice": "0x28aff85",
      "blobGasPrice": "0x1",
      "from": "0xf39fd6e51aad88f6f4ce6ab8827279cfffb92266",
      "to": "0x9fe46736679d2d9a65f0992f2272de9f3c7fa6e0",
      "contractAddress": null
    },
    {
      "status": "0x1",
      "cumulativeGasUsed": "0x1b9b8",
      "logs": [
        {
          "address": "0x998abeb3e57409262ae5b751f60747921b33613e",
          "topics": [
            "0x14995b7b36f23cc69c26d29b9a65835b6d788e1189d68ba9adb17cf0a95b6ad8",
            "0x0000000000000000000000003ca8f9c04c7e3e1624ac2008f92f6f366a869444"
          ],
          "data": "0x000000000000000000000000000000000000000000000000000000006836cb9900000000000000000000000000000000000038420ecedd7dbef67f5056a51f1600000000000000000000000000000583001ed22d3baa52cec6ee25884085d520",
          "blockHash": "0x5060593cbb5c6066e57cfa3d35ee938cae9b08ded937e2a253f50e599aeb9564",
          "blockNumber": "0x1b",
          "blockTimestamp": "0x6836cb99",
          "transactionHash": "0x6661089eed47746c2f1b3575cebae54b2ebe445aed2e9636bf2b591aa2ffa034",
          "transactionIndex": "0x0",
          "logIndex": "0x0",
          "removed": false
        }
      ],
      "logsBloom": "0x00002000000000000000000000000000000000000000000000000000000000000000000000000000000000000000000080000000000000000000000000000000002000000000000000000000000000000000000000000020000000000000000000000000000000000000000000000000000000000000080000000100000000000002000000000000000000080000000000000000000000000000000000000000000000000000000000000000000000000000000000000000000000000000000000000000000000000000000000000000000000000000000000000000000000000000000000000000000000000000001000000000000000000000000000000000",
      "type": "0x2",
      "transactionHash": "0x6661089eed47746c2f1b3575cebae54b2ebe445aed2e9636bf2b591aa2ffa034",
      "transactionIndex": "0x0",
      "blockHash": "0x5060593cbb5c6066e57cfa3d35ee938cae9b08ded937e2a253f50e599aeb9564",
      "blockNumber": "0x1b",
      "gasUsed": "0x1b9b8",
      "effectiveGasPrice": "0x23bbebf",
      "blobGasPrice": "0x1",
      "from": "0xf39fd6e51aad88f6f4ce6ab8827279cfffb92266",
      "to": "0x998abeb3e57409262ae5b751f60747921b33613e",
      "contractAddress": null
    },
    {
      "status": "0x1",
      "cumulativeGasUsed": "0x17950",
      "logs": [
        {
          "address": "0xe7f1725e7734ce288f8367e1bb143e90bb3f0512",
          "topics": [
            "0xe1fffcc4923d04b559f4d29a8bfc6cda04eb5b0d3c460751c2402c5c5cc9109c",
            "0x0000000000000000000000009fe46736679d2d9a65f0992f2272de9f3c7fa6e0"
          ],
          "data": "0x00000000000000000000000000000000000000000000000002c68af0bb140000",
          "blockHash": "0x1eb716f9542520d0adb3f4983159df7ee662677badb77c11bbadb5b5e95d35cd",
          "blockNumber": "0x1c",
          "blockTimestamp": "0x6836cb99",
          "transactionHash": "0x36dfd1b06386dad3ec1ba752ca60040b70104a743084362375accab481c95ba3",
          "transactionIndex": "0x0",
          "logIndex": "0x0",
          "removed": false
        },
        {
          "address": "0xe7f1725e7734ce288f8367e1bb143e90bb3f0512",
          "topics": [
            "0xddf252ad1be2c89b69c2b068fc378daa952ba7f163c4a11628f55a4df523b3ef",
            "0x0000000000000000000000009fe46736679d2d9a65f0992f2272de9f3c7fa6e0",
            "0x000000000000000000000000f4177fde0a6f4626358ba1ac20c9c5dad0174597"
          ],
          "data": "0x00000000000000000000000000000000000000000000000002c68af0bb140000",
          "blockHash": "0x1eb716f9542520d0adb3f4983159df7ee662677badb77c11bbadb5b5e95d35cd",
          "blockNumber": "0x1c",
          "blockTimestamp": "0x6836cb99",
          "transactionHash": "0x36dfd1b06386dad3ec1ba752ca60040b70104a743084362375accab481c95ba3",
          "transactionIndex": "0x0",
          "logIndex": "0x1",
          "removed": false
        },
        {
          "address": "0x3ca8f9c04c7e3e1624ac2008f92f6f366a869444",
          "topics": [
            "0xddf252ad1be2c89b69c2b068fc378daa952ba7f163c4a11628f55a4df523b3ef",
            "0x000000000000000000000000f4177fde0a6f4626358ba1ac20c9c5dad0174597",
            "0x0000000000000000000000009f7cf1d1f558e57ef88a59ac3d47214ef25b6a06"
          ],
          "data": "0x0000000000000000000000000000000000000000000000dfccf2673bfb2f80af",
          "blockHash": "0x1eb716f9542520d0adb3f4983159df7ee662677badb77c11bbadb5b5e95d35cd",
          "blockNumber": "0x1c",
          "blockTimestamp": "0x6836cb99",
          "transactionHash": "0x36dfd1b06386dad3ec1ba752ca60040b70104a743084362375accab481c95ba3",
          "transactionIndex": "0x0",
          "logIndex": "0x2",
          "removed": false
        },
        {
          "address": "0xf4177fde0a6f4626358ba1ac20c9c5dad0174597",
          "topics": [
            "0x1c411e9a96e071241c2f21f7726b17ae89e3cab4c78be50e062b03a9fffbbad1"
          ],
          "data": "0x000000000000000000000000000000000000000000000018c837f2d060e099aa0000000000000000000000000000000000000000000000000314fcb98ea12693",
          "blockHash": "0x1eb716f9542520d0adb3f4983159df7ee662677badb77c11bbadb5b5e95d35cd",
          "blockNumber": "0x1c",
          "blockTimestamp": "0x6836cb99",
          "transactionHash": "0x36dfd1b06386dad3ec1ba752ca60040b70104a743084362375accab481c95ba3",
          "transactionIndex": "0x0",
          "logIndex": "0x3",
          "removed": false
        },
        {
          "address": "0xf4177fde0a6f4626358ba1ac20c9c5dad0174597",
          "topics": [
            "0xd78ad95fa46c994b6551d0da85fc275fe613ce37657fb8d5e3d130840159d822",
            "0x0000000000000000000000009fe46736679d2d9a65f0992f2272de9f3c7fa6e0",
            "0x0000000000000000000000009f7cf1d1f558e57ef88a59ac3d47214ef25b6a06"
          ],
          "data": "0x000000000000000000000000000000000000000000000000000000000000000000000000000000000000000000000000000000000000000002c68af0bb1400000000000000000000000000000000000000000000000000dfccf2673bfb2f80af0000000000000000000000000000000000000000000000000000000000000000",
          "blockHash": "0x1eb716f9542520d0adb3f4983159df7ee662677badb77c11bbadb5b5e95d35cd",
          "blockNumber": "0x1c",
          "blockTimestamp": "0x6836cb99",
          "transactionHash": "0x36dfd1b06386dad3ec1ba752ca60040b70104a743084362375accab481c95ba3",
          "transactionIndex": "0x0",
          "logIndex": "0x4",
          "removed": false
        }
      ],
      "logsBloom": "0x00200000000000000000000080000000000000000000000000000000000000000000000000000000000400000000000010400000000000000000000000000401000040000000000000000008000000200000000000000000000000008000400000000000000000000200000000000000008100000000000000000010000000000000000000000000000000800000000000000001004000080000004000000000000800004000000000000000000000000000000000000000000000000000800000000002000000000000000000001000000000000000001000000000000000000000000000000000000000080000000000000000000000c00000000000000000",
      "type": "0x2",
      "transactionHash": "0x36dfd1b06386dad3ec1ba752ca60040b70104a743084362375accab481c95ba3",
      "transactionIndex": "0x0",
      "blockHash": "0x1eb716f9542520d0adb3f4983159df7ee662677badb77c11bbadb5b5e95d35cd",
      "blockNumber": "0x1c",
      "gasUsed": "0x17950",
      "effectiveGasPrice": "0x1f4d0d5",
      "blobGasPrice": "0x1",
      "from": "0xf39fd6e51aad88f6f4ce6ab8827279cfffb92266",
      "to": "0x9fe46736679d2d9a65f0992f2272de9f3c7fa6e0",
      "contractAddress": null
    },
    {
      "status": "0x1",
      "cumulativeGasUsed": "0x33308",
      "logs": [
        {
          "address": "0x998abeb3e57409262ae5b751f60747921b33613e",
          "topics": [
            "0x14995b7b36f23cc69c26d29b9a65835b6d788e1189d68ba9adb17cf0a95b6ad8",
            "0x0000000000000000000000003ca8f9c04c7e3e1624ac2008f92f6f366a869444"
          ],
          "data": "0x000000000000000000000000000000000000000000000000000000006836cb9900000000000000000000000000000000000038420ecedd7dbef67f5056a51f1600000000000000000000000000000583001ed22d3baa52cec6ee25884085d520",
          "blockHash": "0x1eb716f9542520d0adb3f4983159df7ee662677badb77c11bbadb5b5e95d35cd",
          "blockNumber": "0x1c",
          "blockTimestamp": "0x6836cb99",
          "transactionHash": "0x5fc67145ef691dc07dfda68f60e7d2003b8943dff0f530e379cb01a083f45bdf",
          "transactionIndex": "0x1",
          "logIndex": "0x5",
          "removed": false
        }
      ],
      "logsBloom": "0x00002000000000000000000000000000000000000000000000000000000000000000000000000000000000000000000080000000000000000000000000000000002000000000000000000000000000000000000000000020000000000000000000000000000000000000000000000000000000000000080000000100000000000002000000000000000000080000000000000000000000000000000000000000000000000000000000000000000000000000000000000000000000000000000000000000000000000000000000000000000000000000000000000000000000000000000000000000000000000000001000000000000000000000000000000000",
      "type": "0x2",
      "transactionHash": "0x5fc67145ef691dc07dfda68f60e7d2003b8943dff0f530e379cb01a083f45bdf",
      "transactionIndex": "0x1",
      "blockHash": "0x1eb716f9542520d0adb3f4983159df7ee662677badb77c11bbadb5b5e95d35cd",
      "blockNumber": "0x1c",
      "gasUsed": "0x1b9b8",
      "effectiveGasPrice": "0x1f4d0d5",
      "blobGasPrice": "0x1",
      "from": "0xf39fd6e51aad88f6f4ce6ab8827279cfffb92266",
      "to": "0x998abeb3e57409262ae5b751f60747921b33613e",
      "contractAddress": null
    }
  ],
  "libraries": [],
  "pending": [],
  "returns": {},
  "timestamp": 1748421529,
  "chain": 31337,
  "commit": null
}