{
  "transactions": [
    {
      "hash": null,
      "transactionType": "CREATE",
      "contractName": "MemeTWAPOracle",
      "contractAddress": "0x1291be112d480055dafd8a610b7d1e203891c274",
      "function": null,
      "arguments": [
        "0x5FbDB2315678afecb367f032d93F642f64180aa3",
        "0xe7f1725E7734CE288F8367e1Bb143E90bb3F0512"
      ],
      "transaction": {
        "from": "0xf39fd6e51aad88f6f4ce6ab8827279cfffb92266",
        "gas": "0x154508",
        "value": "0x0",
        "input": "0x60c0346101a3576113b390601f38839003908101601f19168201906001600160401b038211838310176101a757808391604095869485528339810103126101a357610055602061004e836101bb565b92016101bb565b90331561018c575f8054336001600160a01b03198216811783558551936001600160a01b039384939192918416907f8be0079c531659141344cd1fd0a4f28419497f9722a3daafe3b4186f6b6457e09080a31691821561014a57508216156101065760805260a052516111e390816101d082396080518181816101930152818161069d01528181610bcf0152610ee7015260a0518181816104590152818161066201528181610b990152610eab0152f35b825162461bcd60e51b815260206004820152601460248201527f496e76616c6964205745544820616464726573730000000000000000000000006044820152606490fd5b62461bcd60e51b815260206004820152601760248201527f496e76616c696420666163746f727920616464726573730000000000000000006044820152606490fd5b8251631e4fbdf760e01b81525f6004820152602490fd5b5f80fd5b634e487b7160e01b5f52604160045260245ffd5b51906001600160a01b03821682036101a35756fe6040608081526004361015610012575f80fd5b5f90813560e01c806302459966146104a35780633ca52526146104885780633fc8cef31461044557806353d1e07e1461041c578063715018a6146103c257806376fb7b521461032b5780637d92ab5314610276578063852227481461024e5780638da5cb5b1461022757806396e85ced146101f9578063c14ce674146101c2578063c45a01551461017f578063e1a381ec1461013e5763f2fde38b146100b6575f80fd5b3461013a57602036600319011261013a576100cf6104eb565b6100d7610532565b6001600160a01b03908116918215610123575082546001600160a01b0319811683178455167f8be0079c531659141344cd1fd0a4f28419497f9722a3daafe3b4186f6b6457e08380a380f35b51631e4fbdf760e01b815260048101849052602490fd5b5080fd5b503461013a57602036600319011261013a5761017b9061016461015f6104eb565b610e92565b915190815290151560208201529081906040820190565b0390f35b503461013a578160031936011261013a57517f00000000000000000000000000000000000000000000000000000000000000006001600160a01b03168152602090f35b503461013a57602036600319011261013a5760209181906001600160a01b036101e96104eb565b1681526001845220549051908152f35b503461013a57602036600319011261013a5760209061021e6102196104eb565b610647565b90519015158152f35b503461013a578160031936011261013a57905490516001600160a01b039091168152602090f35b503461013a578060031936011261013a5760209061021e61026d6104eb565b6024359061107a565b5090346103285781600319360112610328576102906104eb565b6001600160a01b03168082526001602052828220546024359291908310156102ee578184916102c6949352600160205220610505565b5080546001820154600290920154925190815260208101919091526040810191909152606090f35b835162461bcd60e51b8152602060048201526013602482015272496e646578206f7574206f6620626f756e647360681b6044820152606490fd5b80fd5b503461013a57602036600319011261013a576103456104eb565b61034d610532565b6001600160a01b03168252600160208190529082208054838255909181610372578380f35b60039282840292848404036103ae57845260208420918201915b82811061039857508380f35b808585925585838201558560028201550161038c565b634e487b7160e01b85526011600452602485fd5b82346103285780600319360112610328576103db610532565b80546001600160a01b03198116825581906001600160a01b03167f8be0079c531659141344cd1fd0a4f28419497f9722a3daafe3b4186f6b6457e08280a380f35b503461013a578060031936011261013a5761017b9061016461043c6104eb565b60243590610aff565b503461013a578160031936011261013a57517f00000000000000000000000000000000000000000000000000000000000000006001600160a01b03168152602090f35b503461013a578160031936011261013a5760209051600a8152f35b503461013a578060031936011261013a576104bc6104eb565b6001600160a01b031682526001602052808220805460243591908210156104e757906102c691610505565b8380fd5b600435906001600160a01b038216820361050157565b5f80fd5b805482101561051e575f52600360205f20910201905f90565b634e487b7160e01b5f52603260045260245ffd5b5f546001600160a01b0316330361054557565b60405163118cdaa760e01b8152336004820152602490fd5b602081019081106001600160401b0382111761057857604052565b634e487b7160e01b5f52604160045260245ffd5b90601f801991011681019081106001600160401b0382111761057857604052565b9081602091031261050157516001600160a01b03811681036105015790565b6001600160a01b0391821681529116602082015260400190565b919061060657604081600292518455602081015160018501550151910155565b634e487b7160e01b5f525f60045260245ffd5b9190820391821161062657565b634e487b7160e01b5f52601160045260245ffd5b9190820180921161062657565b6040805163e6a4390560e01b8152600492916020908261068a7f0000000000000000000000000000000000000000000000000000000000000000868884016105cc565b6001600160a01b039491849183919003817f000000000000000000000000000000000000000000000000000000000000000088165afa908115610ad7579084915f91610aaa575b5016918215610aa0575f9063ffffffff94854216958451635909c0d560e01b815283818b818a5afa948515610a95578095610a63575b50508451635a3d549360e01b81528484828c818b5afa918215610a59575f92610a2a575b508a60608399895192838092630240bc6b60e21b82525afa938415610a20575f94859286916109e7575b5081168b8103610941575b505050505050835196606088018881106001600160401b0382111761092e578552868852838389015285858901521695865f52600197888352845f208054600a8110155f146108cd57505f8a5b610820575b5080545f1981019290831161080d575060609694926107f87f14995b7b36f23cc69c26d29b9a65835b6d788e1189d68ba9adb17cf0a95b6ad8999795936107fe93610505565b906105e6565b8251948552840152820152a290565b601190634e487b7160e01b5f525260245ffd5b81545f1981019081116108b5578110156108c8578a81018082116108b5576108489083610505565b506108538284610505565b9190916108a357808203610887575b50505f198114610874578a018a6107ad565b601183634e487b7160e01b5f525260245ffd5b805482558c8101548d8301556002809101549101555f80610862565b5f85634e487b7160e01b82525260245ffd5b601184634e487b7160e01b5f525260245ffd5b6107b2565b91600160401b83101561091b575060609694926107f883610916938d7f14995b7b36f23cc69c26d29b9a65835b6d788e1189d68ba9adb17cf0a95b6ad89c9a9896018155610505565b6107fe565b604190634e487b7160e01b5f525260245ffd5b60418a634e487b7160e01b5f525260245ffd5b8b038181116109d4571691821515806109c2575b806109b0575b610966575b80610760565b9498509295506109a5939192610999926001600160e01b03916109929161099f90868686868e876110fd565b5116610e7f565b9061063a565b986110fd565b935f80808080610960565b506001600160701b038216151561095b565b506001600160701b0385161515610955565b60118e634e487b7160e01b5f525260245ffd5b9050819550610a0e91925060603d8111610a19575b610a06818361058c565b810190610e49565b929195909290610755565b503d6109fc565b88513d5f823e3d90fd5b90918582813d8311610a52575b610a41818361058c565b81010312610328575051905f61072b565b503d610a37565b87513d5f823e3d90fd5b909194508382813d8311610a8e575b610a7c818361058c565b81010312610328575051925f80610707565b503d610a72565b8651903d90823e3d90fd5b5050505050505f90565b610aca9150843d8611610ad0575b610ac2818361058c565b8101906105ad565b5f6106d1565b503d610ab8565b82513d5f823e3d90fd5b8115610aeb570490565b634e487b7160e01b5f52601260045260245ffd5b6001600160a01b038181165f818152600160209081526040822080549295949093919060028410610e27575f1997848901948511610e1357879885805b610da3575b5050610b64610b508688610505565b5054610b5c8b89610505565b505490610619565b10610d9a575b610b83610b778587610505565b5054610b5c8a88610505565b958615610d8b5760405163e6a4390560e01b81527f000000000000000000000000000000000000000000000000000000000000000090848180610bca8587600484016105cc565b0381877f0000000000000000000000000000000000000000000000000000000000000000165afa8015610d8057610d63575b50828116808614610d1257851015610d0b57505b16908115610cc857501494610c5c9392610c579290918715610cb357610c3860019184610505565b500154915b8715610ca757600191610c4f91610505565b500154610619565b610ae1565b9115610c6a575b5090600190565b8115610ca1578115610c8d57506a0c097ce7bc90715b34b9f160241b045f610c63565b634e487b7160e01b81526012600452602490fd5b91829150565b600291610c4f91610505565b610cbf60029184610505565b50015491610c3d565b6064906040519062461bcd60e51b82526004820152601c60248201527b4d656d65545741504f7261636c653a205a45524f5f4144445245535360201b6044820152fd5b9050610c10565b60405162461bcd60e51b815260048101869052602360248201527f4d656d65545741504f7261636c653a204944454e544943414c5f41444452455360448201526253455360e81b6064820152608490fd5b610d7990853d8711610ad057610ac2818361058c565b505f610bfc565b6040513d8c823e3d90fd5b50505050505050809291509190565b96508596610b6a565b610dad8789610505565b505482820190828211610dff57610dc98591610b5c848d610505565b1015610df257508015610dde57810180610b3c565b634e487b7160e01b8a52601160045260248afd5b929a505050975f80610b41565b634e487b7160e01b8c52601160045260248cfd5b634e487b7160e01b88526011600452602488fd5b505050505050809291509190565b51906001600160701b038216820361050157565b9081606091031261050157610e5d81610e35565b916040610e6c60208401610e35565b92015163ffffffff811681036105015790565b8181029291811591840414171561062657565b6040805163e6a4390560e01b8152602092919080610ed47f000000000000000000000000000000000000000000000000000000000000000085600484016105cc565b6001600160a01b039291869183919003817f000000000000000000000000000000000000000000000000000000000000000086165afa908115611070579082915f91611053575b5016928315611048578251630240bc6b60e21b815294606086600481885afa94851561103e575f968796611011575b509080600492865193848092630dfe168160e01b82525afa94851561100857505f94610fe5575b505081169116145f14610fb457670de0b6b3a76400006001600160701b039182168181029291811591840414171561062657610fae921690610ae1565b90600190565b90670de0b6b3a76400006001600160701b039182168181029291811591840414171561062657610fae921690610ae1565b83929450908161100092903d10610ad057610ac2818361058c565b92905f610f71565b513d5f823e3d90fd5b8297506004929196506110319060603d8111610a1957610a06818361058c565b5097909796919250610f4a565b84513d5f823e3d90fd5b50505050505f905f90565b61106a9150863d8811610ad057610ac2818361058c565b5f610f1b565b83513d5f823e3d90fd5b6001600160a01b03165f90815260016020526040812080549190600283106110f6575f1983018381116110e2576110b19082610505565b505492156110ce57815260209020546110c991610619565b101590565b634e487b7160e01b82526032600452602482fd5b634e487b7160e01b83526011600452602483fd5b5091505090565b905f60405161110b8161055d565b526001600160701b0390811690811561116e5782161561115a576001600160e01b0391611147919060701b600160701b600160e01b0316610ae1565b16604051906111558261055d565b815290565b50506040516111688161055d565b5f815290565b60405162461bcd60e51b81526020600482015260176024820152764669786564506f696e743a204449565f42595f5a45524f60481b6044820152606490fdfea26469706673582212205c0e9b724acf32b2bc11c5474ec2d0b47eeed3f232429ea371036203bfc53f7764736f6c634300081400330000000000000000000000005fbdb2315678afecb367f032d93f642f64180aa3000000000000000000000000e7f1725e7734ce288f8367e1bb143e90bb3f0512",
        "nonce": "0x32",
        "chainId": "0x7a69"
      },
      "additionalContracts": [],
      "isFixedGasLimit": false
    },
    {
      "hash": null,
      "transactionType": "CALL",
      "contractName": "MemeTWAPOracle",
      "contractAddress": "0x1291be112d480055dafd8a610b7d1e203891c274",
      "function": "updatePrice(address)",
      "arguments": [
        "0x3Ca8f9C04c7e3E1624Ac2008F92f6F366A869444"
      ],
      "transaction": {
        "from": "0xf39fd6e51aad88f6f4ce6ab8827279cfffb92266",
        "to": "0x1291be112d480055dafd8a610b7d1e203891c274",
        "gas": "0x2be62",
        "value": "0x0",
        "input": "0x96e85ced0000000000000000000000003ca8f9c04c7e3e1624ac2008f92f6f366a869444",
        "nonce": "0x33",
        "chainId": "0x7a69"
      },
      "additionalContracts": [],
      "isFixedGasLimit": false
    },
    {
      "hash": null,
      "transactionType": "CALL",
      "contractName": null,
      "contractAddress": "0x9fe46736679d2d9a65f0992f2272de9f3c7fa6e0",
      "function": "swapExactETHForTokens(uint256,address[],address,uint256)",
      "arguments": [
        "0",
        "[0xe7f1725E7734CE288F8367e1Bb143E90bb3F0512, 0x3Ca8f9C04c7e3E1624Ac2008F92f6F366A869444]",
        "0x9f7cF1d1F558E57ef88a59ac3D47214eF25B6A06",
        "1748426029"
      ],
      "transaction": {
        "from": "0xf39fd6e51aad88f6f4ce6ab8827279cfffb92266",
        "to": "0x9fe46736679d2d9a65f0992f2272de9f3c7fa6e0",
        "gas": "0x20929",
        "value": "0x2386f26fc10000",
        "input": "0x7ff36ab5000000000000000000000000000000000000000000000000000000000000000000000000000000000000000000000000000000000000000000000000000000800000000000000000000000009f7cf1d1f558e57ef88a59ac3d47214ef25b6a06000000000000000000000000000000000000000000000000000000006836dd2d0000000000000000000000000000000000000000000000000000000000000002000000000000000000000000e7f1725e7734ce288f8367e1bb143e90bb3f05120000000000000000000000003ca8f9c04c7e3e1624ac2008f92f6f366a869444",
        "nonce": "0x34",
        "chainId": "0x7a69"
      },
      "additionalContracts": [],
      "isFixedGasLimit": false
    },
    {
      "hash": null,
      "transactionType": "CALL",
      "contractName": "MemeTWAPOracle",
      "contractAddress": "0x1291be112d480055dafd8a610b7d1e203891c274",
      "function": "updatePrice(address)",
      "arguments": [
        "0x3Ca8f9C04c7e3E1624Ac2008F92f6F366A869444"
      ],
      "transaction": {
        "from": "0xf39fd6e51aad88f6f4ce6ab8827279cfffb92266",
        "to": "0x1291be112d480055dafd8a610b7d1e203891c274",
        "gas": "0x2621f",
        "value": "0x0",
        "input": "0x96e85ced0000000000000000000000003ca8f9c04c7e3e1624ac2008f92f6f366a869444",
        "nonce": "0x35",
        "chainId": "0x7a69"
      },
      "additionalContracts": [],
      "isFixedGasLimit": false
    },
    {
      "hash": null,
      "transactionType": "CALL",
      "contractName": null,
      "contractAddress": "0x9fe46736679d2d9a65f0992f2272de9f3c7fa6e0",
      "function": "swapExactETHForTokens(uint256,address[],address,uint256)",
      "arguments": [
        "0",
        "[0xe7f1725E7734CE288F8367e1Bb143E90bb3F0512, 0x3Ca8f9C04c7e3E1624Ac2008F92f6F366A869444]",
        "0x9f7cF1d1F558E57ef88a59ac3D47214eF25B6A06",
        "1748429629"
      ],
      "transaction": {
        "from": "0xf39fd6e51aad88f6f4ce6ab8827279cfffb92266",
        "to": "0x9fe46736679d2d9a65f0992f2272de9f3c7fa6e0",
        "gas": "0x20929",
        "value": "0x2386f26fc10000",
        "input": "0x7ff36ab5000000000000000000000000000000000000000000000000000000000000000000000000000000000000000000000000000000000000000000000000000000800000000000000000000000009f7cf1d1f558e57ef88a59ac3d47214ef25b6a06000000000000000000000000000000000000000000000000000000006836eb3d0000000000000000000000000000000000000000000000000000000000000002000000000000000000000000e7f1725e7734ce288f8367e1bb143e90bb3f05120000000000000000000000003ca8f9c04c7e3e1624ac2008f92f6f366a869444",
        "nonce": "0x36",
        "chainId": "0x7a69"
      },
      "additionalContracts": [],
      "isFixedGasLimit": false
    },
    {
      "hash": null,
      "transactionType": "CALL",
      "contractName": "MemeTWAPOracle",
      "contractAddress": "0x1291be112d480055dafd8a610b7d1e203891c274",
      "function": "updatePrice(address)",
      "arguments": [
        "0x3Ca8f9C04c7e3E1624Ac2008F92f6F366A869444"
      ],
      "transaction": {
        "from": "0xf39fd6e51aad88f6f4ce6ab8827279cfffb92266",
        "to": "0x1291be112d480055dafd8a610b7d1e203891c274",
        "gas": "0x2621f",
        "value": "0x0",
        "input": "0x96e85ced0000000000000000000000003ca8f9c04c7e3e1624ac2008f92f6f366a869444",
        "nonce": "0x37",
        "chainId": "0x7a69"
      },
      "additionalContracts": [],
      "isFixedGasLimit": false
    },
    {
      "hash": null,
      "transactionType": "CALL",
      "contractName": null,
      "contractAddress": "0x9fe46736679d2d9a65f0992f2272de9f3c7fa6e0",
      "function": "swapExactETHForTokens(uint256,address[],address,uint256)",
      "arguments": [
        "0",
        "[0xe7f1725E7734CE288F8367e1Bb143E90bb3F0512, 0x3Ca8f9C04c7e3E1624Ac2008F92f6F366A869444]",
        "0x9f7cF1d1F558E57ef88a59ac3D47214eF25B6A06",
        "1748433229"
      ],
      "transaction": {
        "from": "0xf39fd6e51aad88f6f4ce6ab8827279cfffb92266",
        "to": "0x9fe46736679d2d9a65f0992f2272de9f3c7fa6e0",
        "gas": "0x20929",
        "value": "0x2386f26fc10000",
        "input": "0x7ff36ab5000000000000000000000000000000000000000000000000000000000000000000000000000000000000000000000000000000000000000000000000000000800000000000000000000000009f7cf1d1f558e57ef88a59ac3d47214ef25b6a06000000000000000000000000000000000000000000000000000000006836f94d0000000000000000000000000000000000000000000000000000000000000002000000000000000000000000e7f1725e7734ce288f8367e1bb143e90bb3f05120000000000000000000000003ca8f9c04c7e3e1624ac2008f92f6f366a869444",
        "nonce": "0x38",
        "chainId": "0x7a69"
      },
      "additionalContracts": [],
      "isFixedGasLimit": false
    },
    {
      "hash": null,
      "transactionType": "CALL",
      "contractName": "MemeTWAPOracle",
      "contractAddress": "0x1291be112d480055dafd8a610b7d1e203891c274",
      "function": "updatePrice(address)",
      "arguments": [
        "0x3Ca8f9C04c7e3E1624Ac2008F92f6F366A869444"
      ],
      "transaction": {
        "from": "0xf39fd6e51aad88f6f4ce6ab8827279cfffb92266",
        "to": "0x1291be112d480055dafd8a610b7d1e203891c274",
        "gas": "0x2621f",
        "value": "0x0",
        "input": "0x96e85ced0000000000000000000000003ca8f9c04c7e3e1624ac2008f92f6f366a869444",
        "nonce": "0x39",
        "chainId": "0x7a69"
      },
      "additionalContracts": [],
      "isFixedGasLimit": false
    },
    {
      "hash": null,
      "transactionType": "CALL",
      "contractName": null,
      "contractAddress": "0x9fe46736679d2d9a65f0992f2272de9f3c7fa6e0",
      "function": "swapExactETHForTokens(uint256,address[],address,uint256)",
      "arguments": [
        "0",
        "[0xe7f1725E7734CE288F8367e1Bb143E90bb3F0512, 0x3Ca8f9C04c7e3E1624Ac2008F92f6F366A869444]",
        "0x9f7cF1d1F558E57ef88a59ac3D47214eF25B6A06",
        "1748436829"
      ],
      "transaction": {
        "from": "0xf39fd6e51aad88f6f4ce6ab8827279cfffb92266",
        "to": "0x9fe46736679d2d9a65f0992f2272de9f3c7fa6e0",
        "gas": "0x20929",
        "value": "0x2386f26fc10000",
        "input": "0x7ff36ab5000000000000000000000000000000000000000000000000000000000000000000000000000000000000000000000000000000000000000000000000000000800000000000000000000000009f7cf1d1f558e57ef88a59ac3d47214ef25b6a06000000000000000000000000000000000000000000000000000000006837075d0000000000000000000000000000000000000000000000000000000000000002000000000000000000000000e7f1725e7734ce288f8367e1bb143e90bb3f05120000000000000000000000003ca8f9c04c7e3e1624ac2008f92f6f366a869444",
        "nonce": "0x3a",
        "chainId": "0x7a69"
      },
      "additionalContracts": [],
      "isFixedGasLimit": false
    },
    {
      "hash": null,
      "transactionType": "CALL",
      "contractName": "MemeTWAPOracle",
      "contractAddress": "0x1291be112d480055dafd8a610b7d1e203891c274",
      "function": "updatePrice(address)",
      "arguments": [
        "0x3Ca8f9C04c7e3E1624Ac2008F92f6F366A869444"
      ],
      "transaction": {
        "from": "0xf39fd6e51aad88f6f4ce6ab8827279cfffb92266",
        "to": "0x1291be112d480055dafd8a610b7d1e203891c274",
        "gas": "0x2621f",
        "value": "0x0",
        "input": "0x96e85ced0000000000000000000000003ca8f9c04c7e3e1624ac2008f92f6f366a869444",
        "nonce": "0x3b",
        "chainId": "0x7a69"
      },
      "additionalContracts": [],
      "isFixedGasLimit": false
    },
    {
      "hash": null,
      "transactionType": "CALL",
      "contractName": null,
      "contractAddress": "0x9fe46736679d2d9a65f0992f2272de9f3c7fa6e0",
      "function": "swapExactETHForTokens(uint256,address[],address,uint256)",
      "arguments": [
        "0",
        "[0xe7f1725E7734CE288F8367e1Bb143E90bb3F0512, 0x3Ca8f9C04c7e3E1624Ac2008F92f6F366A869444]",
        "0x9f7cF1d1F558E57ef88a59ac3D47214eF25B6A06",
        "1748440429"
      ],
      "transaction": {
        "from": "0xf39fd6e51aad88f6f4ce6ab8827279cfffb92266",
        "to": "0x9fe46736679d2d9a65f0992f2272de9f3c7fa6e0",
        "gas": "0x20929",
        "value": "0x2386f26fc10000",
        "input": "0x7ff36ab5000000000000000000000000000000000000000000000000000000000000000000000000000000000000000000000000000000000000000000000000000000800000000000000000000000009f7cf1d1f558e57ef88a59ac3d47214ef25b6a06000000000000000000000000000000000000000000000000000000006837156d0000000000000000000000000000000000000000000000000000000000000002000000000000000000000000e7f1725e7734ce288f8367e1bb143e90bb3f05120000000000000000000000003ca8f9c04c7e3e1624ac2008f92f6f366a869444",
        "nonce": "0x3c",
        "chainId": "0x7a69"
      },
      "additionalContracts": [],
      "isFixedGasLimit": false
    },
    {
      "hash": null,
      "transactionType": "CALL",
      "contractName": null,
      "contractAddress": "0x3ca8f9c04c7e3e1624ac2008f92f6f366a869444",
      "function": "approve(address,uint256)",
      "arguments": [
        "0x9fE46736679d2D9a65F0992F2272dE9f3c7fa6e0",
        "4403931518093873663054"
      ],
      "transaction": {
        "from": "0xf39fd6e51aad88f6f4ce6ab8827279cfffb92266",
        "to": "0x3ca8f9c04c7e3e1624ac2008f92f6f366a869444",
        "gas": "0x106d0",
        "value": "0x0",
        "input": "0x095ea7b30000000000000000000000009fe46736679d2d9a65f0992f2272de9f3c7fa6e00000000000000000000000000000000000000000000000eebcd3bead5c1c4c4e",
        "nonce": "0x3d",
        "chainId": "0x7a69"
      },
      "additionalContracts": [],
      "isFixedGasLimit": false
    },
    {
      "hash": null,
      "transactionType": "CALL",
      "contractName": null,
      "contractAddress": "0x3ca8f9c04c7e3e1624ac2008f92f6f366a869444",
      "function": "approve(address,uint256)",
      "arguments": [
        "0x9fE46736679d2D9a65F0992F2272dE9f3c7fa6e0",
        "2201965759046936831527"
      ],
      "transaction": {
        "from": "0xf39fd6e51aad88f6f4ce6ab8827279cfffb92266",
        "to": "0x3ca8f9c04c7e3e1624ac2008f92f6f366a869444",
        "gas": "0xb495",
        "value": "0x0",
        "input": "0x095ea7b30000000000000000000000009fe46736679d2d9a65f0992f2272de9f3c7fa6e00000000000000000000000000000000000000000000000775e69df56ae0e2627",
        "nonce": "0x3e",
        "chainId": "0x7a69"
      },
      "additionalContracts": [],
      "isFixedGasLimit": false
    },
    {
      "hash": null,
      "transactionType": "CALL",
      "contractName": null,
      "contractAddress": "0x9fe46736679d2d9a65f0992f2272de9f3c7fa6e0",
      "function": "swapExactTokensForETH(uint256,uint256,address[],address,uint256)",
      "arguments": [
        "2201965759046936831527",
        "0",
        "[0x3Ca8f9C04c7e3E1624Ac2008F92f6F366A869444, 0xe7f1725E7734CE288F8367e1Bb143E90bb3F0512]",
        "0x9f7cF1d1F558E57ef88a59ac3D47214eF25B6A06",
        "1748440429"
      ],
      "transaction": {
        "from": "0xf39fd6e51aad88f6f4ce6ab8827279cfffb92266",
        "to": "0x9fe46736679d2d9a65f0992f2272de9f3c7fa6e0",
        "gas": "0x26a03",
        "value": "0x0",
        "input": "0x18cbafe50000000000000000000000000000000000000000000000775e69df56ae0e2627000000000000000000000000000000000000000000000000000000000000000000000000000000000000000000000000000000000000000000000000000000a00000000000000000000000009f7cf1d1f558e57ef88a59ac3d47214ef25b6a06000000000000000000000000000000000000000000000000000000006837156d00000000000000000000000000000000000000000000000000000000000000020000000000000000000000003ca8f9c04c7e3e1624ac2008f92f6f366a869444000000000000000000000000e7f1725e7734ce288f8367e1bb143e90bb3f0512",
        "nonce": "0x3f",
        "chainId": "0x7a69"
      },
      "additionalContracts": [],
      "isFixedGasLimit": false
    },
    {
      "hash": null,
      "transactionType": "CALL",
      "contractName": "MemeTWAPOracle",
      "contractAddress": "0x1291be112d480055dafd8a610b7d1e203891c274",
      "function": "updatePrice(address)",
      "arguments": [
        "0x3Ca8f9C04c7e3E1624Ac2008F92f6F366A869444"
      ],
      "transaction": {
        "from": "0xf39fd6e51aad88f6f4ce6ab8827279cfffb92266",
        "to": "0x1291be112d480055dafd8a610b7d1e203891c274",
        "gas": "0x2621f",
        "value": "0x0",
        "input": "0x96e85ced0000000000000000000000003ca8f9c04c7e3e1624ac2008f92f6f366a869444",
        "nonce": "0x40",
        "chainId": "0x7a69"
      },
      "additionalContracts": [],
      "isFixedGasLimit": false
    },
    {
      "hash": null,
      "transactionType": "CALL",
      "contractName": null,
      "contractAddress": "0x9fe46736679d2d9a65f0992f2272de9f3c7fa6e0",
      "function": "swapExactETHForTokens(uint256,address[],address,uint256)",
      "arguments": [
        "0",
        "[0xe7f1725E7734CE288F8367e1Bb143E90bb3F0512, 0x3Ca8f9C04c7e3E1624Ac2008F92f6F366A869444]",
        "0x9f7cF1d1F558E57ef88a59ac3D47214eF25B6A06",
        "1748440429"
      ],
      "transaction": {
        "from": "0xf39fd6e51aad88f6f4ce6ab8827279cfffb92266",
        "to": "0x9fe46736679d2d9a65f0992f2272de9f3c7fa6e0",
        "gas": "0x20929",
        "value": "0x429d069189e0000",
        "input": "0x7ff36ab5000000000000000000000000000000000000000000000000000000000000000000000000000000000000000000000000000000000000000000000000000000800000000000000000000000009f7cf1d1f558e57ef88a59ac3d47214ef25b6a06000000000000000000000000000000000000000000000000000000006837156d0000000000000000000000000000000000000000000000000000000000000002000000000000000000000000e7f1725e7734ce288f8367e1bb143e90bb3f05120000000000000000000000003ca8f9c04c7e3e1624ac2008f92f6f366a869444",
        "nonce": "0x41",
        "chainId": "0x7a69"
      },
      "additionalContracts": [],
      "isFixedGasLimit": false
    },
    {
      "hash": null,
      "transactionType": "CALL",
      "contractName": "MemeTWAPOracle",
      "contractAddress": "0x1291be112d480055dafd8a610b7d1e203891c274",
      "function": "updatePrice(address)",
      "arguments": [
        "0x3Ca8f9C04c7e3E1624Ac2008F92f6F366A869444"
      ],
      "transaction": {
        "from": "0xf39fd6e51aad88f6f4ce6ab8827279cfffb92266",
        "to": "0x1291be112d480055dafd8a610b7d1e203891c274",
        "gas": "0x2621f",
        "value": "0x0",
        "input": "0x96e85ced0000000000000000000000003ca8f9c04c7e3e1624ac2008f92f6f366a869444",
        "nonce": "0x42",
        "chainId": "0x7a69"
      },
      "additionalContracts": [],
      "isFixedGasLimit": false
    },
    {
      "hash": null,
      "transactionType": "CALL",
      "contractName": null,
      "contractAddress": "0x9fe46736679d2d9a65f0992f2272de9f3c7fa6e0",
      "function": "swapExactETHForTokens(uint256,address[],address,uint256)",
      "arguments": [
        "0",
        "[0xe7f1725E7734CE288F8367e1Bb143E90bb3F0512, 0x3Ca8f9C04c7e3E1624Ac2008F92f6F366A869444]",
        "0x9f7cF1d1F558E57ef88a59ac3D47214eF25B6A06",
        "1748442229"
      ],
      "transaction": {
        "from": "0xf39fd6e51aad88f6f4ce6ab8827279cfffb92266",
        "to": "0x9fe46736679d2d9a65f0992f2272de9f3c7fa6e0",
        "gas": "0x20929",
        "value": "0x11c37937e08000",
        "input": "0x7ff36ab5000000000000000000000000000000000000000000000000000000000000000000000000000000000000000000000000000000000000000000000000000000800000000000000000000000009f7cf1d1f558e57ef88a59ac3d47214ef25b6a060000000000000000000000000000000000000000000000000000000068371c750000000000000000000000000000000000000000000000000000000000000002000000000000000000000000e7f1725e7734ce288f8367e1bb143e90bb3f05120000000000000000000000003ca8f9c04c7e3e1624ac2008f92f6f366a869444",
        "nonce": "0x43",
        "chainId": "0x7a69"
      },
      "additionalContracts": [],
      "isFixedGasLimit": false
    },
    {
      "hash": null,
      "transactionType": "CALL",
      "contractName": "MemeTWAPOracle",
      "contractAddress": "0x1291be112d480055dafd8a610b7d1e203891c274",
      "function": "updatePrice(address)",
      "arguments": [
        "0x3Ca8f9C04c7e3E1624Ac2008F92f6F366A869444"
      ],
      "transaction": {
        "from": "0xf39fd6e51aad88f6f4ce6ab8827279cfffb92266",
        "to": "0x1291be112d480055dafd8a610b7d1e203891c274",
        "gas": "0x2621f",
        "value": "0x0",
        "input": "0x96e85ced0000000000000000000000003ca8f9c04c7e3e1624ac2008f92f6f366a869444",
        "nonce": "0x44",
        "chainId": "0x7a69"
      },
      "additionalContracts": [],
      "isFixedGasLimit": false
    },
    {
      "hash": null,
      "transactionType": "CALL",
      "contractName": null,
      "contractAddress": "0x9fe46736679d2d9a65f0992f2272de9f3c7fa6e0",
      "function": "swapExactETHForTokens(uint256,address[],address,uint256)",
      "arguments": [
        "0",
        "[0xe7f1725E7734CE288F8367e1Bb143E90bb3F0512, 0x3Ca8f9C04c7e3E1624Ac2008F92f6F366A869444]",
        "0x9f7cF1d1F558E57ef88a59ac3D47214eF25B6A06",
        "1748444029"
      ],
      "transaction": {
        "from": "0xf39fd6e51aad88f6f4ce6ab8827279cfffb92266",
        "to": "0x9fe46736679d2d9a65f0992f2272de9f3c7fa6e0",
        "gas": "0x20929",
        "value": "0x11c37937e08000",
        "input": "0x7ff36ab5000000000000000000000000000000000000000000000000000000000000000000000000000000000000000000000000000000000000000000000000000000800000000000000000000000009f7cf1d1f558e57ef88a59ac3d47214ef25b6a06000000000000000000000000000000000000000000000000000000006837237d0000000000000000000000000000000000000000000000000000000000000002000000000000000000000000e7f1725e7734ce288f8367e1bb143e90bb3f05120000000000000000000000003ca8f9c04c7e3e1624ac2008f92f6f366a869444",
        "nonce": "0x45",
        "chainId": "0x7a69"
      },
      "additionalContracts": [],
      "isFixedGasLimit": false
    },
    {
      "hash": null,
      "transactionType": "CALL",
      "contractName": "MemeTWAPOracle",
      "contractAddress": "0x1291be112d480055dafd8a610b7d1e203891c274",
      "function": "updatePrice(address)",
      "arguments": [
        "0x3Ca8f9C04c7e3E1624Ac2008F92f6F366A869444"
      ],
      "transaction": {
        "from": "0xf39fd6e51aad88f6f4ce6ab8827279cfffb92266",
        "to": "0x1291be112d480055dafd8a610b7d1e203891c274",
        "gas": "0x2621f",
        "value": "0x0",
        "input": "0x96e85ced0000000000000000000000003ca8f9c04c7e3e1624ac2008f92f6f366a869444",
        "nonce": "0x46",
        "chainId": "0x7a69"
      },
      "additionalContracts": [],
      "isFixedGasLimit": false
    },
    {
      "hash": null,
      "transactionType": "CALL",
      "contractName": null,
      "contractAddress": "0x9fe46736679d2d9a65f0992f2272de9f3c7fa6e0",
      "function": "swapExactETHForTokens(uint256,address[],address,uint256)",
      "arguments": [
        "0",
        "[0xe7f1725E7734CE288F8367e1Bb143E90bb3F0512, 0x3Ca8f9C04c7e3E1624Ac2008F92f6F366A869444]",
        "0x9f7cF1d1F558E57ef88a59ac3D47214eF25B6A06",
        "1748445829"
      ],
      "transaction": {
        "from": "0xf39fd6e51aad88f6f4ce6ab8827279cfffb92266",
        "to": "0x9fe46736679d2d9a65f0992f2272de9f3c7fa6e0",
        "gas": "0x20929",
        "value": "0x11c37937e08000",
        "input": "0x7ff36ab5000000000000000000000000000000000000000000000000000000000000000000000000000000000000000000000000000000000000000000000000000000800000000000000000000000009f7cf1d1f558e57ef88a59ac3d47214ef25b6a060000000000000000000000000000000000000000000000000000000068372a850000000000000000000000000000000000000000000000000000000000000002000000000000000000000000e7f1725e7734ce288f8367e1bb143e90bb3f05120000000000000000000000003ca8f9c04c7e3e1624ac2008f92f6f366a869444",
        "nonce": "0x47",
        "chainId": "0x7a69"
      },
      "additionalContracts": [],
      "isFixedGasLimit": false
    },
    {
      "hash": null,
      "transactionType": "CALL",
      "contractName": "MemeTWAPOracle",
      "contractAddress": "0x1291be112d480055dafd8a610b7d1e203891c274",
      "function": "updatePrice(address)",
      "arguments": [
        "0x3Ca8f9C04c7e3E1624Ac2008F92f6F366A869444"
      ],
      "transaction": {
        "from": "0xf39fd6e51aad88f6f4ce6ab8827279cfffb92266",
        "to": "0x1291be112d480055dafd8a610b7d1e203891c274",
        "gas": "0x2621f",
        "value": "0x0",
        "input": "0x96e85ced0000000000000000000000003ca8f9c04c7e3e1624ac2008f92f6f366a869444",
        "nonce": "0x48",
        "chainId": "0x7a69"
      },
      "additionalContracts": [],
      "isFixedGasLimit": false
    },
    {
      "hash": null,
      "transactionType": "CALL",
      "contractName": null,
      "contractAddress": "0x9fe46736679d2d9a65f0992f2272de9f3c7fa6e0",
      "function": "swapExactETHForTokens(uint256,address[],address,uint256)",
      "arguments": [
        "0",
        "[0xe7f1725E7734CE288F8367e1Bb143E90bb3F0512, 0x3Ca8f9C04c7e3E1624Ac2008F92f6F366A869444]",
        "0x9f7cF1d1F558E57ef88a59ac3D47214eF25B6A06",
        "1748447629"
      ],
      "transaction": {
        "from": "0xf39fd6e51aad88f6f4ce6ab8827279cfffb92266",
        "to": "0x9fe46736679d2d9a65f0992f2272de9f3c7fa6e0",
        "gas": "0x20929",
        "value": "0x11c37937e08000",
        "input": "0x7ff36ab5000000000000000000000000000000000000000000000000000000000000000000000000000000000000000000000000000000000000000000000000000000800000000000000000000000009f7cf1d1f558e57ef88a59ac3d47214ef25b6a06000000000000000000000000000000000000000000000000000000006837318d0000000000000000000000000000000000000000000000000000000000000002000000000000000000000000e7f1725e7734ce288f8367e1bb143e90bb3f05120000000000000000000000003ca8f9c04c7e3e1624ac2008f92f6f366a869444",
        "nonce": "0x49",
        "chainId": "0x7a69"
      },
      "additionalContracts": [],
      "isFixedGasLimit": false
    },
    {
      "hash": null,
      "transactionType": "CALL",
      "contractName": "MemeTWAPOracle",
      "contractAddress": "0x1291be112d480055dafd8a610b7d1e203891c274",
      "function": "updatePrice(address)",
      "arguments": [
        "0x3Ca8f9C04c7e3E1624Ac2008F92f6F366A869444"
      ],
      "transaction": {
        "from": "0xf39fd6e51aad88f6f4ce6ab8827279cfffb92266",
        "to": "0x1291be112d480055dafd8a610b7d1e203891c274",
        "gas": "0x27961",
        "value": "0x0",
        "input": "0x96e85ced0000000000000000000000003ca8f9c04c7e3e1624ac2008f92f6f366a869444",
        "nonce": "0x4a",
        "chainId": "0x7a69"
      },
      "additionalContracts": [],
      "isFixedGasLimit": false
    },
    {
      "hash": null,
      "transactionType": "CALL",
      "contractName": null,
      "contractAddress": "0x9fe46736679d2d9a65f0992f2272de9f3c7fa6e0",
      "function": "swapExactETHForTokens(uint256,address[],address,uint256)",
      "arguments": [
        "0",
        "[0xe7f1725E7734CE288F8367e1Bb143E90bb3F0512, 0x3Ca8f9C04c7e3E1624Ac2008F92f6F366A869444]",
        "0x9f7cF1d1F558E57ef88a59ac3D47214eF25B6A06",
        "1748449429"
      ],
      "transaction": {
        "from": "0xf39fd6e51aad88f6f4ce6ab8827279cfffb92266",
        "to": "0x9fe46736679d2d9a65f0992f2272de9f3c7fa6e0",
        "gas": "0x20929",
        "value": "0x11c37937e08000",
        "input": "0x7ff36ab5000000000000000000000000000000000000000000000000000000000000000000000000000000000000000000000000000000000000000000000000000000800000000000000000000000009f7cf1d1f558e57ef88a59ac3d47214ef25b6a0600000000000000000000000000000000000000000000000000000000683738950000000000000000000000000000000000000000000000000000000000000002000000000000000000000000e7f1725e7734ce288f8367e1bb143e90bb3f05120000000000000000000000003ca8f9c04c7e3e1624ac2008f92f6f366a869444",
        "nonce": "0x4b",
        "chainId": "0x7a69"
      },
      "additionalContracts": [],
      "isFixedGasLimit": false
    },
    {
      "hash": null,
      "transactionType": "CALL",
      "contractName": "MemeTWAPOracle",
      "contractAddress": "0x1291be112d480055dafd8a610b7d1e203891c274",
      "function": "updatePrice(address)",
      "arguments": [
        "0x3Ca8f9C04c7e3E1624Ac2008F92f6F366A869444"
      ],
      "transaction": {
        "from": "0xf39fd6e51aad88f6f4ce6ab8827279cfffb92266",
        "to": "0x1291be112d480055dafd8a610b7d1e203891c274",
        "gas": "0x27961",
        "value": "0x0",
        "input": "0x96e85ced0000000000000000000000003ca8f9c04c7e3e1624ac2008f92f6f366a869444",
        "nonce": "0x4c",
        "chainId": "0x7a69"
      },
      "additionalContracts": [],
      "isFixedGasLimit": false
    }
  ],
  "receipts": [],
  "libraries": [],
  "pending": [],
  "returns": {},
  "timestamp": 1748422513,
  "chain": 31337,
  "commit": null
}