{
  "transactions": [
    {
      "hash": "0xe5bc139e705a273629d387178017e6a8056b97c9a9d81e8f20f788a30eb511b3",
      "transactionType": "CALL",
      "contractName": null,
      "contractAddress": "0xb7f8bc63bbcad18155201308c8f3540b07f84f5e",
      "function": "deployInscription(string,uint256,uint256,uint256)",
      "arguments": [
        "PEPE",
        "1000000000000000000000000",
        "1000000000000000000000",
        "100000000000000000"
      ],
      "transaction": {
        "from": "0xf39fd6e51aad88f6f4ce6ab8827279cfffb92266",
        "to": "0xb7f8bc63bbcad18155201308c8f3540b07f84f5e",
        "gas": "0x69fd4",
        "value": "0x2386f26fc10000",
        "input": "0x3ef8af43000000000000000000000000000000000000000000000000000000000000008000000000000000000000000000000000000000000000d3c21bcecceda100000000000000000000000000000000000000000000000000003635c9adc5dea00000000000000000000000000000000000000000000000000000016345785d8a000000000000000000000000000000000000000000000000000000000000000000045045504500000000000000000000000000000000000000000000000000000000",
        "nonce": "0xf",
        "chainId": "0x7a69"
      },
      "additionalContracts": [
        {
          "transactionType": "CREATE",
          "address": "0x3ca8f9c04c7e3e1624ac2008f92f6f366a869444",
          "initCode": "0x3d602d80600a3d3981f3363d3d373d3d3d363d738daf17a20c9dba35f005b6324f493785d239719d5af43d82803e903d91602b57fd5bf3"
        }
      ],
      "isFixedGasLimit": false
    },
    {
      "hash": "0x963b545634e395a1ddf9373303a25f1916890627a5fe3e054c82a23568187851",
      "transactionType": "CALL",
      "contractName": null,
      "contractAddress": "0xb7f8bc63bbcad18155201308c8f3540b07f84f5e",
      "function": "mintInscription(string)",
      "arguments": [
        "PEPE"
      ],
      "transaction": {
        "from": "0xf39fd6e51aad88f6f4ce6ab8827279cfffb92266",
        "to": "0xb7f8bc63bbcad18155201308c8f3540b07f84f5e",
        "gas": "0x2a9cd",
        "value": "0x1988fe4052b8000",
        "input": "0xc59bddc8000000000000000000000000000000000000000000000000000000000000002000000000000000000000000000000000000000000000000000000000000000045045504500000000000000000000000000000000000000000000000000000000",
        "nonce": "0x10",
        "chainId": "0x7a69"
      },
      "additionalContracts": [],
      "isFixedGasLimit": false
    },
    {
      "hash": "0x49014b861bdb1f5d7924be58df58d93a59d1a95f314c0ad89917fd09143bb42d",
      "transactionType": "CALL",
      "contractName": null,
      "contractAddress": "0xb7f8bc63bbcad18155201308c8f3540b07f84f5e",
      "function": "mintInscription(string)",
      "arguments": [
        "PEPE"
      ],
      "transaction": {
        "from": "0xf39fd6e51aad88f6f4ce6ab8827279cfffb92266",
        "to": "0xb7f8bc63bbcad18155201308c8f3540b07f84f5e",
        "gas": "0x16f22",
        "value": "0x1988fe4052b8000",
        "input": "0xc59bddc8000000000000000000000000000000000000000000000000000000000000002000000000000000000000000000000000000000000000000000000000000000045045504500000000000000000000000000000000000000000000000000000000",
        "nonce": "0x11",
        "chainId": "0x7a69"
      },
      "additionalContracts": [],
      "isFixedGasLimit": false
    },
    {
      "hash": "0x5ade1f2d5eedc3ad0dec522fe938d4bad04b7621b0e2956f4dbcd8f20b90f8fb",
      "transactionType": "CALL",
      "contractName": null,
      "contractAddress": "0xb7f8bc63bbcad18155201308c8f3540b07f84f5e",
      "function": "mintInscription(string)",
      "arguments": [
        "PEPE"
      ],
      "transaction": {
        "from": "0xf39fd6e51aad88f6f4ce6ab8827279cfffb92266",
        "to": "0xb7f8bc63bbcad18155201308c8f3540b07f84f5e",
        "gas": "0x16f22",
        "value": "0x1988fe4052b8000",
        "input": "0xc59bddc8000000000000000000000000000000000000000000000000000000000000002000000000000000000000000000000000000000000000000000000000000000045045504500000000000000000000000000000000000000000000000000000000",
        "nonce": "0x12",
        "chainId": "0x7a69"
      },
      "additionalContracts": [],
      "isFixedGasLimit": false
    },
    {
      "hash": "0xc2b7341371a072f507f05144f868a94c819c419e410ee597090f3b519d17a593",
      "transactionType": "CALL",
      "contractName": null,
      "contractAddress": "0xb7f8bc63bbcad18155201308c8f3540b07f84f5e",
      "function": "mintInscription(string)",
      "arguments": [
        "PEPE"
      ],
      "transaction": {
        "from": "0xf39fd6e51aad88f6f4ce6ab8827279cfffb92266",
        "to": "0xb7f8bc63bbcad18155201308c8f3540b07f84f5e",
        "gas": "0x16f22",
        "value": "0x1988fe4052b8000",
        "input": "0xc59bddc8000000000000000000000000000000000000000000000000000000000000002000000000000000000000000000000000000000000000000000000000000000045045504500000000000000000000000000000000000000000000000000000000",
        "nonce": "0x13",
        "chainId": "0x7a69"
      },
      "additionalContracts": [],
      "isFixedGasLimit": false
    },
    {
      "hash": "0x374b4312cd4ff5f0264333747bd7e22b34068e0f80c34b9d603104450609cd8e",
      "transactionType": "CALL",
      "contractName": null,
      "contractAddress": "0xb7f8bc63bbcad18155201308c8f3540b07f84f5e",
      "function": "mintInscription(string)",
      "arguments": [
        "PEPE"
      ],
      "transaction": {
        "from": "0xf39fd6e51aad88f6f4ce6ab8827279cfffb92266",
        "to": "0xb7f8bc63bbcad18155201308c8f3540b07f84f5e",
        "gas": "0x16f22",
        "value": "0x1988fe4052b8000",
        "input": "0xc59bddc8000000000000000000000000000000000000000000000000000000000000002000000000000000000000000000000000000000000000000000000000000000045045504500000000000000000000000000000000000000000000000000000000",
        "nonce": "0x14",
        "chainId": "0x7a69"
      },
      "additionalContracts": [],
      "isFixedGasLimit": false
    },
    {
      "hash": "0x4fb9a9889a1ddba6fa9d3bb9556466733153b1438104be87fc81fccc3c4a9bf8",
      "transactionType": "CALL",
      "contractName": null,
      "contractAddress": "0xb7f8bc63bbcad18155201308c8f3540b07f84f5e",
      "function": null,
      "arguments": null,
      "transaction": {
        "from": "0xf39fd6e51aad88f6f4ce6ab8827279cfffb92266",
        "to": "0xb7f8bc63bbcad18155201308c8f3540b07f84f5e",
        "gas": "0x71bc",
        "value": "0x1bc16d674ec80000",
        "input": "0x",
        "nonce": "0x15",
        "chainId": "0x7a69"
      },
      "additionalContracts": [],
      "isFixedGasLimit": false
    },
    {
      "hash": "0xb241ad3e6a3e8e61ef4626ad36b23d04e63a7b41bf6ceaeb4a7974eb5f71c08f",
      "transactionType": "CALL",
      "contractName": null,
      "contractAddress": "0xb7f8bc63bbcad18155201308c8f3540b07f84f5e",
      "function": "buyAndAddLiquidity(string,uint256)",
      "arguments": [
        "PEPE",
        "200000000000000000"
      ],
      "transaction": {
        "from": "0xf39fd6e51aad88f6f4ce6ab8827279cfffb92266",
        "to": "0xb7f8bc63bbcad18155201308c8f3540b07f84f5e",
        "gas": "0x2c7976",
        "value": "0x0",
        "input": "0x7fecabce000000000000000000000000000000000000000000000000000000000000004000000000000000000000000000000000000000000000000002c68af0bb14000000000000000000000000000000000000000000000000000000000000000000045045504500000000000000000000000000000000000000000000000000000000",
        "nonce": "0x16",
        "chainId": "0x7a69"
      },
      "additionalContracts": [
        {
          "transactionType": "CREATE2",
          "address": "0xf4177fde0a6f4626358ba1ac20c9c5dad0174597",
          "initCode": "0x608080604052346100e957602081610018600a936100ed565b82815201692ab734b9bbb0b8102b1960b11b8152206001602060405161003d816100ed565b82815201603160f81b815220906040519160208301917f8b73c3c69bb8fe3d512ecc4cf759cc79239f7b179b0ffacaa9a75d522b39400f8352604084015260608301524660808301523060a083015260a0825260c082019180831060018060401b038411176100d55760408390525190206003556001600c55600580546001600160a01b03191633179055611ede9081620001098239f35b634e487b7160e01b5f52604160045260245ffd5b5f80fd5b604081019081106001600160401b038211176100d55760405256fe60806040526004361015610011575f80fd5b5f803560e01c8063022c0d9f1461105c57806306fdde03146110195780630902f1ac14610fd8578063095ea7b314610fb15780630dfe168114610f8857806318160ddd14610f6b57806323b872dd14610ed157806330adf81f14610e96578063313ce56714610e7a5780633644e51514610e5c578063485cc95514610dc85780635909c0d514610daa5780635a3d549314610d8c5780636a62784214610ad557806370a0823114610a9c5780637464fc3d14610a7e5780637ecebe0014610a4557806389afcb44146106fe57806395d89b41146106bb578063a9059cbb14610689578063ba9a7a561461066c578063bc25cf7714610520578063c45a0155146104f7578063d21220a7146104ce578063d505accf146102c4578063dd62ed3e146102775763fff6cae914610143575f80fd5b346102745780600319360112610274576101616001600c54146117c5565b600c8190556006546040516370a0823160e01b808252306004830152916020916001600160a01b039183908290602490829086165afa9182156102695783918693610238575b50600754169360246040518096819382523060048301525afa91821561022d5784926101f7575b506008546101ef93506001600160701b03607082901c811693911691611895565b6001600c5580f35b90915082813d8311610226575b61020e8183611684565b81010312610222576101ef9151905f6101ce565b5f80fd5b503d610204565b6040513d86823e3d90fd5b8281939294503d8311610262575b6102508183611684565b8101031261022257829051915f6101a7565b503d610246565b6040513d87823e3d90fd5b80fd5b503461027457604036600319011261027457610291611622565b604061029b611638565b9260018060a01b03809316815260026020522091165f52602052602060405f2054604051908152f35b50346102745760e0366003190112610274576102de611622565b6102e6611638565b604435906064356084359060ff82168092036104ca57428110610490576003546001600160a01b0386811680895260046020526040892080549195929492905f19831461047c576001830190556040519260208401927f6e71edae12b1b97f4d1f60370fef10105fa2faae0126114a169c64845d6126c98452876040860152868916606086015289608086015260a085015260c084015260c0835260e08301938385106001600160401b0386111761046857848b94610122608095602098604052825190209161010081019461190160f01b86526101028201520152604281526103cf81611669565b519020906040519182528482015260a435604082015260c435606082015282805260015afa156102695785511690811515918261045e575b50501561041a57610417926116ec565b80f35b60405162461bcd60e51b815260206004820152601c60248201527b556e697377617056323a20494e56414c49445f5349474e415455524560201b6044820152606490fd5b1490505f80610407565b634e487b7160e01b5f52604160045260245ffd5b634e487b7160e01b8b52601160045260248bfd5b60405162461bcd60e51b8152602060048201526012602482015271155b9a5cddd85c158c8e881156141254915160721b6044820152606490fd5b8580fd5b50346102745780600319360112610274576007546040516001600160a01b039091168152602090f35b50346102745780600319360112610274576005546040516001600160a01b039091168152602090f35b5034610274576020806003193601126106685761053b611622565b9061054a6001600c54146117c5565b600c8390556006546007546040516370a0823160e01b80825230600483015290946001600160a01b039283169490939092168286602481845afa95861561065d57879661062c575b506008546001600160701b03966105b8929186916105b2918a1690611d4c565b91611b32565b6040519081523060048201528181602481875afa9182156106215786926105f1575b50506105b2906101ef9460085460701c1690611d4c565b90809250813d831161061a575b6106088183611684565b810103126102225751836105b26105da565b503d6105fe565b6040513d88823e3d90fd5b9095508281813d8311610656575b6106448183611684565b810103126102225751946105b8610592565b503d61063a565b6040513d89823e3d90fd5b5080fd5b503461027457806003193601126102745760206040516103e88152f35b5034610274576040366003190112610274576106b06106a6611622565b602435903361173f565b602060405160018152f35b50346102745780600319360112610274576106fa6040516106db8161164e565b60068152652aa72496ab1960d11b6020820152604051918291826116a5565b0390f35b503461027457602090816003193601126102745761071a611622565b906107296001600c54146117c5565b80600c556107356117a7565b506006546007546040516370a0823160e01b8082523060048301529794966001600160a01b039384169690949192841686846024818b5afa938415610a3a578294610a0b575b5060405199808b523060048c0152878b602481855afa988915610a00578a9b849b9a6109cd575b50308452600189526107dd6107bc8660408720549c6119f5565b966107d16107d68d6107d18954948592611de4565b611805565b9d8d611de4565b998b1515806109c4575b15610981576024939291858b9230825260018452610809816040842054611d4c565b308352600185526040832055610820818354611d4c565b82556040519081525f80516020611e89833981519152843092a36108458d8b83611b32565b6108508c8b86611b32565b604051948580928582523060048301525afa92831561022d579089918594610950575b5060246040518094819382523060048301525afa928315610944579261090e575b50986108a3929160409a611895565b6108e9575b855191858352848484015216907fdccd412f0b1252819cb1fd330b93224ca42612892bb3f4f789976e6d81936496863392a36001600c558351928352820152f35b600854610906906001600160701b03607082901c81169116611de4565b600b556108a8565b929150988683813d831161093d575b6109278183611684565b8101031261022257915191989091906040610894565b503d61091d565b604051903d90823e3d90fd5b8281939295503d831161097a575b6109688183611684565b8101031261022257889051925f610873565b503d61095e565b60405162461bcd60e51b8152600481018b9052602860248201525f80516020611e698339815191526044820152671657d0955493915160c21b6064820152608490fd5b508a15156107e7565b8980929c50819b503d83116109f9575b6109e78183611684565b81010312610222578a9851995f6107a2565b503d6109dd565b6040513d85823e3d90fd5b9093508681813d8311610a33575b610a238183611684565b810103126102225751925f61077b565b503d610a19565b6040513d84823e3d90fd5b5034610274576020366003190112610274576020906040906001600160a01b03610a6d611622565b168152600483522054604051908152f35b50346102745780600319360112610274576020600b54604051908152f35b5034610274576020366003190112610274576020906040906001600160a01b03610ac4611622565b168152600183522054604051908152f35b5034610274576020908160031936011261027457610af1611622565b90610b006001600c54146117c5565b80600c55610b0c6117a7565b506006546040516370a0823160e01b8082523060048301529094939290916001600160a01b039088908790602490829085165afa958615610269579088918697610d5b575b50600754169260246040518095819382523060048301525afa91821561022d578492610d2c575b506001600160701b039280841692610b908488611d4c565b9685841694610b9f8684611d4c565b9789610bab87876119f5565b9782549384155f14610cf8575050610bcf9250610bca91508990611de4565b611c85565b6103e7198101908111610ce45798610be75f54611cde565b5f555f805260018b52610bfd60405f2054611cde565b5f805260018c5260405f20555f805f80516020611e898339815191528d6040516103e88152a35b8915610ca15790610c3b8a610c4096959493611823565b611895565b610c83575b50604051918252838201527f4c209b5fc8ad50758f13e2e1088ba56a560dff690a1c6fef26394f4c03821c4f60403392a26001600c55604051908152f35b610c989060085490808260701c169116611de4565b600b555f610c45565b60405162461bcd60e51b8152600481018c9052602860248201525f80516020611e698339815191526044820152671657d3525395115160c21b6064820152608490fd5b634e487b7160e01b5f52601160045260245ffd5b610d0c6107d1916107d187610d1396611de4565b948c611de4565b905080821015610d2557505b98610c24565b9050610d1f565b9091508681813d8311610d54575b610d448183611684565b810103126102225751905f610b78565b503d610d3a565b8281939298503d8311610d85575b610d738183611684565b8101031261022257879051955f610b51565b503d610d69565b50346102745780600319360112610274576020600a54604051908152f35b50346102745780600319360112610274576020600954604051908152f35b503461027457604036600319011261027457610de2611622565b610dea611638565b6005546001600160a01b03919082163303610e20578160018060a01b031993168360065416176006551690600754161760075580f35b60405162461bcd60e51b81526020600482015260146024820152732ab734b9bbb0b82b191d102327a92124a22222a760611b6044820152606490fd5b50346102745780600319360112610274576020600354604051908152f35b5034610274578060031936011261027457602060405160128152f35b503461027457806003193601126102745760206040517f6e71edae12b1b97f4d1f60370fef10105fa2faae0126114a169c64845d6126c98152f35b503461027457606036600319011261027457610f2a610eee611622565b610ef6611638565b6044359160018060a01b0381168086526020956002875260408120335f5287525f1960405f205403610f33575b505061173f565b60405160018152f35b80826040925260028852818120335f528852610f5286835f2054611d4c565b9281526002885220335f52865260405f20555f80610f23565b503461027457806003193601126102745760209054604051908152f35b50346102745780600319360112610274576006546040516001600160a01b039091168152602090f35b5034610274576040366003190112610274576106b0610fce611622565b60243590336116ec565b5034610274578060031936011261027457606063ffffffff610ff86117a7565b9092916040519360018060701b038092168552166020840152166040820152f35b50346102745780600319360112610274576106fa6040516110398161164e565b600a8152692ab734b9bbb0b8102b1960b11b6020820152604051918291826116a5565b5034610274576080366003190112610274576001600160a01b036044358082169003610668576001600160401b036064351161066857366023606435011215610668576001600160401b0360643560040135116106685736602460643560040135606435010111610668576110d56001600c54146117c5565b81600c55600435159081158092611617575b156115c4576110f46117a7565b509092906001600160701b03841660043510806115b0575b15611574578260065416836007541692818560443516141580611566575b1561152957611515575b602435611501575b6064356004013561143f575b906020602492604051938480926370a0823160e01b82523060048301525afa918215610621578692611408575b506020602493604051948580926370a0823160e01b82523060048301525afa9283156106215786936113d4575b506111b86004356001600160701b038716611c78565b8211156113cd576111dd6111d76004356001600160701b038816611c78565b83611c78565b945b6001600160701b038216936111f660243586611c78565b8111156113c65761121261120c60243587611c78565b82611c78565b945b87158015906113bd575b1561136c5761126f61125f61124461123588611da6565b61123e8c611dc5565b90611d4c565b61125961125086611da6565b61123e8b611dc5565b90611de4565b916001600160701b038516611de4565b90620f42409182810292818404811482151715610ce45783040361131d57106112e95761129b93611895565b60405192835260208301526004356040830152602435606083015260443516907fd78ad95fa46c994b6551d0da85fc275fe613ce37657fb8d5e3d130840159d82260803392a36001600c5580f35b60405162461bcd60e51b815260206004820152600c60248201526b556e697377617056323a204b60a01b6044820152606490fd5b60405162461bcd60e51b815260206004820152602160248201527f536166654d6174683a206d756c7469706c69636174696f6e206f766572666c6f6044820152607760f81b6064820152608490fd5b60405162461bcd60e51b8152602060048201526024808201527f556e697377617056323a20494e53554646494349454e545f494e5055545f414d60448201526313d5539560e21b6064820152608490fd5b5085151561121e565b8794611214565b85946111df565b9092506020813d602011611400575b816113f060209383611684565b810103126102225751915f6111a2565b3d91506113e3565b9291506020833d602011611437575b8161142460209383611684565b8101031261022257915190916020611175565b3d9150611417565b83604435163b156104ca576040516304347a1760e21b815233600482015260043560248201526024356044820152608060648201526064356004013560848201526064356004013560246064350160a48301378660a46064356004013583010152868160a481601f19601f60643560040135011681010301818389604435165af1801561065d576114d1575b50611148565b6001600160401b0381979297116114ed576040529460206114cb565b634e487b7160e01b82526041600452602482fd5b61151060243560443585611b32565b61113c565b61152460043560443583611b32565b611134565b60405162461bcd60e51b8152602060048201526015602482015274556e697377617056323a20494e56414c49445f544f60581b6044820152606490fd5b50838560443516141561112a565b60405162461bcd60e51b815260206004820152602160248201525f80516020611e698339815191526044820152605960f81b6064820152608490fd5b506001600160701b0381166024351061110c565b60405162461bcd60e51b815260206004820152602560248201527f556e697377617056323a20494e53554646494349454e545f4f55545055545f416044820152641353d5539560da1b6064820152608490fd5b5060243515156110e7565b600435906001600160a01b038216820361022257565b602435906001600160a01b038216820361022257565b604081019081106001600160401b0382111761046857604052565b608081019081106001600160401b0382111761046857604052565b90601f801991011681019081106001600160401b0382111761046857604052565b602080825282518183018190529093925f5b8281106116d857505060409293505f838284010152601f8019910116010190565b8181018601518482016040015285016116b7565b909160207f8c5be1e5ebec7d5bd14f71427d1e84f3dd0314c0f7b2291e5b200ac8c7c3b9259160018060a01b0380941693845f526002835260405f20951694855f5282528060405f2055604051908152a3565b909160205f80516020611e898339815191529160018060a01b03809416935f9585875260018452611774836040892054611d4c565b868852600185526040882055169485815260406117948382842054611d37565b91878152600185522055604051908152a3565b6008546001600160701b0380821692607083901c9091169160e01c90565b156117cc57565b60405162461bcd60e51b8152602060048201526011602482015270155b9a5cddd85c158c8e881313d0d2d151607a1b6044820152606490fd5b811561180f570490565b634e487b7160e01b5f52601260045260245ffd5b5f80516020611e8983398151915260205f92611840858554611d37565b845560018060a01b03169384845260018252611860816040862054611d37565b858552600183526040852055604051908152a3565b81810292918115918404141715610ce457565b91908201809211610ce457565b916001600160701b039081841115806119eb575b156119b0576008549363ffffffff9460e01c8542160391858311610ce4577f1c411e9a96e071241c2f21f7726b17ae89e3cab4c78be50e062b03a9fffbbad196604096859416801515806119a5575b8061199a575b611941575b505050607093841b600160701b600160e01b031691169081174260e01b6001600160e01b031916176008819055845191825290921c166020820152a1565b61198f92611987926001600160e01b0391611971919061196c9061197f611977878787858789611e1a565b611e49565b16611875565b600954611888565b600955611e1a565b600a54611888565b600a555f8080611903565b5084821615156118fe565b5084831615156118f8565b60405162461bcd60e51b8152602060048201526013602482015272556e697377617056323a204f564552464c4f5760681b6044820152606490fd5b50818311156118a9565b600554604051622fcfcb60e31b815292939291906001600160a01b03906020908490600490829085165afa928315611b27575f93611ae9575b508216151593600b5491855f14611ad95782611a4b575b50505050565b611a6f91611a6991610bca916001600160701b039081169116611de4565b91611c85565b90818111611a7e575b80611a45565b611a8d5f546112598484611d4c565b90600581029080820460051481151715610ce457600582040361131d57611abd92611ab791611d37565b90611805565b80611ac9575b80611a78565b611ad291611823565b5f80611ac3565b50509050611ae357565b5f600b55565b6020939193813d8211611b1f575b81611b0460209383611684565b8101031261066857519083821682036102745750915f611a2e565b3d9150611af7565b6040513d5f823e3d90fd5b909160405192611b418461164e565b60198452787472616e7366657228616464726573732c75696e743235362960381b60209485015260405163a9059cbb60e01b8186019081526001600160a01b03909216602482015260448082019390935291825290611b9f81611669565b5f92839283809351925af1903d15611c71573d6001600160401b0381116114ed5760405190611bd7601f8201601f1916860183611684565b81523d828583013e5b82611c31575b505015611bf05750565b6064906040519062461bcd60e51b82526004820152601a602482015279155b9a5cddd85c158c8e881514905394d1915497d1905253115160321b6044820152fd5b8051925082159190848315611c4d575b50505090505f80611be6565b919381809450010312610668578201519081151582036102745750805f8084611c41565b6060611be0565b91908203918211610ce457565b905f6003831115611cd157508160019080821c828101809111610ce45791905b848310611cb157505050565b90919350611cc884611cc38184611805565b611888565b821c9190611ca5565b91611cd857565b60019150565b906103e8820191828111610ce4578210611cf457565b60405162461bcd60e51b815260206004820152601b60248201527a536166654d6174683a206164646974696f6e206f766572666c6f7760281b6044820152606490fd5b9190611d439083611888565b918210611cf457565b9190611d589083611c78565b918211611d6157565b60405162461bcd60e51b815260206004820152601f60248201527f536166654d6174683a207375627472616374696f6e20756e646572666c6f77006044820152606490fd5b906103e89182810292818404811482151715610ce45783040361131d57565b90600382029180830460031481151715610ce457600383040361131d57565b5f92918015918215611dfa575b50501561131d57565b91509250611e12611e0b8483611875565b9384611805565b145f80611df1565b607081901b600160701b600160e01b0316906001600160701b03168015908204600160701b141715610ce45790565b6001600160701b0390911690811561180f576001600160e01b0316049056fe556e697377617056323a20494e53554646494349454e545f4c49515549444954ddf252ad1be2c89b69c2b068fc378daa952ba7f163c4a11628f55a4df523b3efa264697066735822122023aa82b242f1794fd16c678637434bfddafd67978945b9d22516997b1b2ec72264736f6c63430008140033"
        }
      ],
      "isFixedGasLimit": false
    }
  ],
  "receipts": [
    {
      "status": "0x1",
      "cumulativeGasUsed": "0x4878b",
      "logs": [
        {
          "address": "0x3ca8f9c04c7e3e1624ac2008f92f6f366a869444",
          "topics": [
            "0x8be0079c531659141344cd1fd0a4f28419497f9722a3daafe3b4186f6b6457e0",
            "0x0000000000000000000000000000000000000000000000000000000000000000",
            "0x000000000000000000000000f39fd6e51aad88f6f4ce6ab8827279cfffb92266"
          ],
          "data": "0x",
          "blockHash": "0x29a1c96d5b13c20c547d049f3e6f083a00f9d0f9ebdba375012b0066b0441813",
          "blockNumber": "0x7",
          "blockTimestamp": "0x6836be2b",
          "transactionHash": "0xe5bc139e705a273629d387178017e6a8056b97c9a9d81e8f20f788a30eb511b3",
          "transactionIndex": "0x0",
          "logIndex": "0x0",
          "removed": false
        },
        {
          "address": "0xb7f8bc63bbcad18155201308c8f3540b07f84f5e",
          "topics": [
            "0xa334ec6a105bc6c7e5fc155a2e1a565c2194e0e5ba193b732e3bac18e7ce1446",
            "0x608e17bb6814e7eb8d564b13416322f3d8a2dc5e36dde75519945008d7848749",
            "0x0000000000000000000000003ca8f9c04c7e3e1624ac2008f92f6f366a869444"
          ],
          "data": "0x",
          "blockHash": "0x29a1c96d5b13c20c547d049f3e6f083a00f9d0f9ebdba375012b0066b0441813",
          "blockNumber": "0x7",
          "blockTimestamp": "0x6836be2b",
          "transactionHash": "0xe5bc139e705a273629d387178017e6a8056b97c9a9d81e8f20f788a30eb511b3",
          "transactionIndex": "0x0",
          "logIndex": "0x1",
          "removed": false
        }
      ],
      "logsBloom": "0x000000001000000000000000000000000000000000400000008000000000000000000000000000000000000000000000000000000000000000000000000004010000000400000000000000000000000000018000000000200000000000000000000000000a0000000000000100000800000000000000080000000000000000400002000002000000100000000000000000000000000000000000000000000000000000000000000000000000000000000000000000000020000000000000800000000000000000200000000000000000000000002000000000020000000020000000000000000000000000000000000000000000000000000000000000000000",
      "type": "0x2",
      "transactionHash": "0xe5bc139e705a273629d387178017e6a8056b97c9a9d81e8f20f788a30eb511b3",
      "transactionIndex": "0x0",
      "blockHash": "0x29a1c96d5b13c20c547d049f3e6f083a00f9d0f9ebdba375012b0066b0441813",
      "blockNumber": "0x7",
      "gasUsed": "0x4878b",
      "effectiveGasPrice": "0x1e7db62f",
      "blobGasPrice": "0x1",
      "from": "0xf39fd6e51aad88f6f4ce6ab8827279cfffb92266",
      "to": "0xb7f8bc63bbcad18155201308c8f3540b07f84f5e",
      "contractAddress": null
    },
    {
      "status": "0x1",
      "cumulativeGasUsed": "0x1d231",
      "logs": [
        {
          "address": "0x3ca8f9c04c7e3e1624ac2008f92f6f366a869444",
          "topics": [
            "0xddf252ad1be2c89b69c2b068fc378daa952ba7f163c4a11628f55a4df523b3ef",
            "0x0000000000000000000000000000000000000000000000000000000000000000",
            "0x000000000000000000000000f39fd6e51aad88f6f4ce6ab8827279cfffb92266"
          ],
          "data": "0x00000000000000000000000000000000000000000000003635c9adc5dea00000",
          "blockHash": "0x2947b02bf3ec79f39064a649be9d2ba04ff85f24893b25fe830c7c23ca8c9a6f",
          "blockNumber": "0x8",
          "blockTimestamp": "0x6836be2b",
          "transactionHash": "0x963b545634e395a1ddf9373303a25f1916890627a5fe3e054c82a23568187851",
          "transactionIndex": "0x0",
          "logIndex": "0x0",
          "removed": false
        },
        {
          "address": "0xb7f8bc63bbcad18155201308c8f3540b07f84f5e",
          "topics": [
            "0x2c00a34097ec0e58039e2abe0b22bad4d9936cde57e2c49c8a1a02980306ce8a",
            "0x608e17bb6814e7eb8d564b13416322f3d8a2dc5e36dde75519945008d7848749",
            "0x000000000000000000000000f39fd6e51aad88f6f4ce6ab8827279cfffb92266"
          ],
          "data": "0x00000000000000000000000000000000000000000000003635c9adc5dea00000",
          "blockHash": "0x2947b02bf3ec79f39064a649be9d2ba04ff85f24893b25fe830c7c23ca8c9a6f",
          "blockNumber": "0x8",
          "blockTimestamp": "0x6836be2b",
          "transactionHash": "0x963b545634e395a1ddf9373303a25f1916890627a5fe3e054c82a23568187851",
          "transactionIndex": "0x0",
          "logIndex": "0x1",
          "removed": false
        }
      ],
      "logsBloom": "0x00000000100000000000000000000000000400000040000000000000000000000000000000000000000000000000000000000000000000000000000000000401000000040000000000000008000000000000800000000000000000000000000000000000020000000000000100000800000000000000000000000010000000000000000000000000000000000000000000000000000000000000000000000000000000000000000000000000000000000000000000000020000000020000800000000002000000200000000000000000000000002000000000020000000020080000000000000000000000000000000000000000000000000000000000000000",
      "type": "0x2",
      "transactionHash": "0x963b545634e395a1ddf9373303a25f1916890627a5fe3e054c82a23568187851",
      "transactionIndex": "0x0",
      "blockHash": "0x2947b02bf3ec79f39064a649be9d2ba04ff85f24893b25fe830c7c23ca8c9a6f",
      "blockNumber": "0x8",
      "gasUsed": "0x1d231",
      "effectiveGasPrice": "0x1ac14e7f",
      "blobGasPrice": "0x1",
      "from": "0xf39fd6e51aad88f6f4ce6ab8827279cfffb92266",
      "to": "0xb7f8bc63bbcad18155201308c8f3540b07f84f5e",
      "contractAddress": null
    },
    {
      "status": "0x1",
      "cumulativeGasUsed": "0x2dbfe",
      "logs": [
        {
          "address": "0x3ca8f9c04c7e3e1624ac2008f92f6f366a869444",
          "topics": [
            "0xddf252ad1be2c89b69c2b068fc378daa952ba7f163c4a11628f55a4df523b3ef",
            "0x0000000000000000000000000000000000000000000000000000000000000000",
            "0x000000000000000000000000f39fd6e51aad88f6f4ce6ab8827279cfffb92266"
          ],
          "data": "0x00000000000000000000000000000000000000000000003635c9adc5dea00000",
          "blockHash": "0x2947b02bf3ec79f39064a649be9d2ba04ff85f24893b25fe830c7c23ca8c9a6f",
          "blockNumber": "0x8",
          "blockTimestamp": "0x6836be2b",
          "transactionHash": "0x49014b861bdb1f5d7924be58df58d93a59d1a95f314c0ad89917fd09143bb42d",
          "transactionIndex": "0x1",
          "logIndex": "0x2",
          "removed": false
        },
        {
          "address": "0xb7f8bc63bbcad18155201308c8f3540b07f84f5e",
          "topics": [
            "0x2c00a34097ec0e58039e2abe0b22bad4d9936cde57e2c49c8a1a02980306ce8a",
            "0x608e17bb6814e7eb8d564b13416322f3d8a2dc5e36dde75519945008d7848749",
            "0x000000000000000000000000f39fd6e51aad88f6f4ce6ab8827279cfffb92266"
          ],
          "data": "0x00000000000000000000000000000000000000000000003635c9adc5dea00000",
          "blockHash": "0x2947b02bf3ec79f39064a649be9d2ba04ff85f24893b25fe830c7c23ca8c9a6f",
          "blockNumber": "0x8",
          "blockTimestamp": "0x6836be2b",
          "transactionHash": "0x49014b861bdb1f5d7924be58df58d93a59d1a95f314c0ad89917fd09143bb42d",
          "transactionIndex": "0x1",
          "logIndex": "0x3",
          "removed": false
        }
      ],
      "logsBloom": "0x00000000100000000000000000000000000400000040000000000000000000000000000000000000000000000000000000000000000000000000000000000401000000040000000000000008000000000000800000000000000000000000000000000000020000000000000100000800000000000000000000000010000000000000000000000000000000000000000000000000000000000000000000000000000000000000000000000000000000000000000000000020000000020000800000000002000000200000000000000000000000002000000000020000000020080000000000000000000000000000000000000000000000000000000000000000",
      "type": "0x2",
      "transactionHash": "0x49014b861bdb1f5d7924be58df58d93a59d1a95f314c0ad89917fd09143bb42d",
      "transactionIndex": "0x1",
      "blockHash": "0x2947b02bf3ec79f39064a649be9d2ba04ff85f24893b25fe830c7c23ca8c9a6f",
      "blockNumber": "0x8",
      "gasUsed": "0x109cd",
      "effectiveGasPrice": "0x1ac14e7f",
      "blobGasPrice": "0x1",
      "from": "0xf39fd6e51aad88f6f4ce6ab8827279cfffb92266",
      "to": "0xb7f8bc63bbcad18155201308c8f3540b07f84f5e",
      "contractAddress": null
    },
    {
      "status": "0x1",
      "cumulativeGasUsed": "0x3e5cb",
      "logs": [
        {
          "address": "0x3ca8f9c04c7e3e1624ac2008f92f6f366a869444",
          "topics": [
            "0xddf252ad1be2c89b69c2b068fc378daa952ba7f163c4a11628f55a4df523b3ef",
            "0x0000000000000000000000000000000000000000000000000000000000000000",
            "0x000000000000000000000000f39fd6e51aad88f6f4ce6ab8827279cfffb92266"
          ],
          "data": "0x00000000000000000000000000000000000000000000003635c9adc5dea00000",
          "blockHash": "0x2947b02bf3ec79f39064a649be9d2ba04ff85f24893b25fe830c7c23ca8c9a6f",
          "blockNumber": "0x8",
          "blockTimestamp": "0x6836be2b",
          "transactionHash": "0x5ade1f2d5eedc3ad0dec522fe938d4bad04b7621b0e2956f4dbcd8f20b90f8fb",
          "transactionIndex": "0x2",
          "logIndex": "0x4",
          "removed": false
        },
        {
          "address": "0xb7f8bc63bbcad18155201308c8f3540b07f84f5e",
          "topics": [
            "0x2c00a34097ec0e58039e2abe0b22bad4d9936cde57e2c49c8a1a02980306ce8a",
            "0x608e17bb6814e7eb8d564b13416322f3d8a2dc5e36dde75519945008d7848749",
            "0x000000000000000000000000f39fd6e51aad88f6f4ce6ab8827279cfffb92266"
          ],
          "data": "0x00000000000000000000000000000000000000000000003635c9adc5dea00000",
          "blockHash": "0x2947b02bf3ec79f39064a649be9d2ba04ff85f24893b25fe830c7c23ca8c9a6f",
          "blockNumber": "0x8",
          "blockTimestamp": "0x6836be2b",
          "transactionHash": "0x5ade1f2d5eedc3ad0dec522fe938d4bad04b7621b0e2956f4dbcd8f20b90f8fb",
          "transactionIndex": "0x2",
          "logIndex": "0x5",
          "removed": false
        }
      ],
      "logsBloom": "0x00000000100000000000000000000000000400000040000000000000000000000000000000000000000000000000000000000000000000000000000000000401000000040000000000000008000000000000800000000000000000000000000000000000020000000000000100000800000000000000000000000010000000000000000000000000000000000000000000000000000000000000000000000000000000000000000000000000000000000000000000000020000000020000800000000002000000200000000000000000000000002000000000020000000020080000000000000000000000000000000000000000000000000000000000000000",
      "type": "0x2",
      "transactionHash": "0x5ade1f2d5eedc3ad0dec522fe938d4bad04b7621b0e2956f4dbcd8f20b90f8fb",
      "transactionIndex": "0x2",
      "blockHash": "0x2947b02bf3ec79f39064a649be9d2ba04ff85f24893b25fe830c7c23ca8c9a6f",
      "blockNumber": "0x8",
      "gasUsed": "0x109cd",
      "effectiveGasPrice": "0x1ac14e7f",
      "blobGasPrice": "0x1",
      "from": "0xf39fd6e51aad88f6f4ce6ab8827279cfffb92266",
      "to": "0xb7f8bc63bbcad18155201308c8f3540b07f84f5e",
      "contractAddress": null
    },
    {
      "status": "0x1",
      "cumulativeGasUsed": "0x4ef98",
      "logs": [
        {
          "address": "0x3ca8f9c04c7e3e1624ac2008f92f6f366a869444",
          "topics": [
            "0xddf252ad1be2c89b69c2b068fc378daa952ba7f163c4a11628f55a4df523b3ef",
            "0x0000000000000000000000000000000000000000000000000000000000000000",
            "0x000000000000000000000000f39fd6e51aad88f6f4ce6ab8827279cfffb92266"
          ],
          "data": "0x00000000000000000000000000000000000000000000003635c9adc5dea00000",
          "blockHash": "0x2947b02bf3ec79f39064a649be9d2ba04ff85f24893b25fe830c7c23ca8c9a6f",
          "blockNumber": "0x8",
          "blockTimestamp": "0x6836be2b",
          "transactionHash": "0xc2b7341371a072f507f05144f868a94c819c419e410ee597090f3b519d17a593",
          "transactionIndex": "0x3",
          "logIndex": "0x6",
          "removed": false
        },
        {
          "address": "0xb7f8bc63bbcad18155201308c8f3540b07f84f5e",
          "topics": [
            "0x2c00a34097ec0e58039e2abe0b22bad4d9936cde57e2c49c8a1a02980306ce8a",
            "0x608e17bb6814e7eb8d564b13416322f3d8a2dc5e36dde75519945008d7848749",
            "0x000000000000000000000000f39fd6e51aad88f6f4ce6ab8827279cfffb92266"
          ],
          "data": "0x00000000000000000000000000000000000000000000003635c9adc5dea00000",
          "blockHash": "0x2947b02bf3ec79f39064a649be9d2ba04ff85f24893b25fe830c7c23ca8c9a6f",
          "blockNumber": "0x8",
          "blockTimestamp": "0x6836be2b",
          "transactionHash": "0xc2b7341371a072f507f05144f868a94c819c419e410ee597090f3b519d17a593",
          "transactionIndex": "0x3",
          "logIndex": "0x7",
          "removed": false
        }
      ],
      "logsBloom": "0x00000000100000000000000000000000000400000040000000000000000000000000000000000000000000000000000000000000000000000000000000000401000000040000000000000008000000000000800000000000000000000000000000000000020000000000000100000800000000000000000000000010000000000000000000000000000000000000000000000000000000000000000000000000000000000000000000000000000000000000000000000020000000020000800000000002000000200000000000000000000000002000000000020000000020080000000000000000000000000000000000000000000000000000000000000000",
      "type": "0x2",
      "transactionHash": "0xc2b7341371a072f507f05144f868a94c819c419e410ee597090f3b519d17a593",
      "transactionIndex": "0x3",
      "blockHash": "0x2947b02bf3ec79f39064a649be9d2ba04ff85f24893b25fe830c7c23ca8c9a6f",
      "blockNumber": "0x8",
      "gasUsed": "0x109cd",
      "effectiveGasPrice": "0x1ac14e7f",
      "blobGasPrice": "0x1",
      "from": "0xf39fd6e51aad88f6f4ce6ab8827279cfffb92266",
      "to": "0xb7f8bc63bbcad18155201308c8f3540b07f84f5e",
      "contractAddress": null
    },
    {
      "status": "0x1",
      "cumulativeGasUsed": "0x109cd",
      "logs": [
        {
          "address": "0x3ca8f9c04c7e3e1624ac2008f92f6f366a869444",
          "topics": [
            "0xddf252ad1be2c89b69c2b068fc378daa952ba7f163c4a11628f55a4df523b3ef",
            "0x0000000000000000000000000000000000000000000000000000000000000000",
            "0x000000000000000000000000f39fd6e51aad88f6f4ce6ab8827279cfffb92266"
          ],
          "data": "0x00000000000000000000000000000000000000000000003635c9adc5dea00000",
          "blockHash": "0xd95f39f18a021a7d58b93e0054cdec9ad7f2ce18e9f7f3ca8f2e3a970f9da972",
          "blockNumber": "0x9",
          "blockTimestamp": "0x6836be2b",
          "transactionHash": "0x374b4312cd4ff5f0264333747bd7e22b34068e0f80c34b9d603104450609cd8e",
          "transactionIndex": "0x0",
          "logIndex": "0x0",
          "removed": false
        },
        {
          "address": "0xb7f8bc63bbcad18155201308c8f3540b07f84f5e",
          "topics": [
            "0x2c00a34097ec0e58039e2abe0b22bad4d9936cde57e2c49c8a1a02980306ce8a",
            "0x608e17bb6814e7eb8d564b13416322f3d8a2dc5e36dde75519945008d7848749",
            "0x000000000000000000000000f39fd6e51aad88f6f4ce6ab8827279cfffb92266"
          ],
          "data": "0x00000000000000000000000000000000000000000000003635c9adc5dea00000",
          "blockHash": "0xd95f39f18a021a7d58b93e0054cdec9ad7f2ce18e9f7f3ca8f2e3a970f9da972",
          "blockNumber": "0x9",
          "blockTimestamp": "0x6836be2b",
          "transactionHash": "0x374b4312cd4ff5f0264333747bd7e22b34068e0f80c34b9d603104450609cd8e",
          "transactionIndex": "0x0",
          "logIndex": "0x1",
          "removed": false
        }
      ],
      "logsBloom": "0x00000000100000000000000000000000000400000040000000000000000000000000000000000000000000000000000000000000000000000000000000000401000000040000000000000008000000000000800000000000000000000000000000000000020000000000000100000800000000000000000000000010000000000000000000000000000000000000000000000000000000000000000000000000000000000000000000000000000000000000000000000020000000020000800000000002000000200000000000000000000000002000000000020000000020080000000000000000000000000000000000000000000000000000000000000000",
      "type": "0x2",
      "transactionHash": "0x374b4312cd4ff5f0264333747bd7e22b34068e0f80c34b9d603104450609cd8e",
      "transactionIndex": "0x0",
      "blockHash": "0xd95f39f18a021a7d58b93e0054cdec9ad7f2ce18e9f7f3ca8f2e3a970f9da972",
      "blockNumber": "0x9",
      "gasUsed": "0x109cd",
      "effectiveGasPrice": "0x177b9b54",
      "blobGasPrice": "0x1",
      "from": "0xf39fd6e51aad88f6f4ce6ab8827279cfffb92266",
      "to": "0xb7f8bc63bbcad18155201308c8f3540b07f84f5e",
      "contractAddress": null
    },
    {
      "status": "0x1",
      "cumulativeGasUsed": "0x5258",
      "logs": [],
      "logsBloom": "0x00000000000000000000000000000000000000000000000000000000000000000000000000000000000000000000000000000000000000000000000000000000000000000000000000000000000000000000000000000000000000000000000000000000000000000000000000000000000000000000000000000000000000000000000000000000000000000000000000000000000000000000000000000000000000000000000000000000000000000000000000000000000000000000000000000000000000000000000000000000000000000000000000000000000000000000000000000000000000000000000000000000000000000000000000000000",
      "type": "0x2",
      "transactionHash": "0x4fb9a9889a1ddba6fa9d3bb9556466733153b1438104be87fc81fccc3c4a9bf8",
      "transactionIndex": "0x0",
      "blockHash": "0x436d2578c19dc9496e6f6c4d18e7dde0ae0b367c907b7ecf8bcdd888a5d73e38",
      "blockNumber": "0xa",
      "gasUsed": "0x5258",
      "effectiveGasPrice": "0x148f9093",
      "blobGasPrice": "0x1",
      "from": "0xf39fd6e51aad88f6f4ce6ab8827279cfffb92266",
      "to": "0xb7f8bc63bbcad18155201308c8f3540b07f84f5e",
      "contractAddress": null
    },
    {
      "status": "0x1",
      "cumulativeGasUsed": "0x2032df",
      "logs": [
        {
          "address": "0x3ca8f9c04c7e3e1624ac2008f92f6f366a869444",
          "topics": [
            "0xddf252ad1be2c89b69c2b068fc378daa952ba7f163c4a11628f55a4df523b3ef",
            "0x0000000000000000000000000000000000000000000000000000000000000000",
            "0x000000000000000000000000b7f8bc63bbcad18155201308c8f3540b07f84f5e"
          ],
          "data": "0x00000000000000000000000000000000000000000000003635c9adc5dea00000",
          "blockHash": "0x24fab4dbcf0ff4d088c23eb43ff7e14d4ae2c52543ca1bfbb0e9d54ad063e6c4",
          "blockNumber": "0xb",
          "blockTimestamp": "0x6836be2b",
          "transactionHash": "0xb241ad3e6a3e8e61ef4626ad36b23d04e63a7b41bf6ceaeb4a7974eb5f71c08f",
          "transactionIndex": "0x0",
          "logIndex": "0x0",
          "removed": false
        },
        {
          "address": "0x3ca8f9c04c7e3e1624ac2008f92f6f366a869444",
          "topics": [
            "0x8c5be1e5ebec7d5bd14f71427d1e84f3dd0314c0f7b2291e5b200ac8c7c3b925",
            "0x000000000000000000000000b7f8bc63bbcad18155201308c8f3540b07f84f5e",
            "0x0000000000000000000000009fe46736679d2d9a65f0992f2272de9f3c7fa6e0"
          ],
          "data": "0x00000000000000000000000000000000000000000000003635c9adc5dea00000",
          "blockHash": "0x24fab4dbcf0ff4d088c23eb43ff7e14d4ae2c52543ca1bfbb0e9d54ad063e6c4",
          "blockNumber": "0xb",
          "blockTimestamp": "0x6836be2b",
          "transactionHash": "0xb241ad3e6a3e8e61ef4626ad36b23d04e63a7b41bf6ceaeb4a7974eb5f71c08f",
          "transactionIndex": "0x0",
          "logIndex": "0x1",
          "removed": false
        },
        {
          "address": "0x5fbdb2315678afecb367f032d93f642f64180aa3",
          "topics": [
            "0x0d3648bd0f6ba80134a33ba9275ac585d9d315f0ad8355cddefde31afa28d0e9",
            "0x0000000000000000000000003ca8f9c04c7e3e1624ac2008f92f6f366a869444",
            "0x000000000000000000000000e7f1725e7734ce288f8367e1bb143e90bb3f0512"
          ],
          "data": "0x000000000000000000000000f4177fde0a6f4626358ba1ac20c9c5dad01745970000000000000000000000000000000000000000000000000000000000000003",
          "blockHash": "0x24fab4dbcf0ff4d088c23eb43ff7e14d4ae2c52543ca1bfbb0e9d54ad063e6c4",
          "blockNumber": "0xb",
          "blockTimestamp": "0x6836be2b",
          "transactionHash": "0xb241ad3e6a3e8e61ef4626ad36b23d04e63a7b41bf6ceaeb4a7974eb5f71c08f",
          "transactionIndex": "0x0",
          "logIndex": "0x2",
          "removed": false
        },
        {
          "address": "0x3ca8f9c04c7e3e1624ac2008f92f6f366a869444",
          "topics": [
            "0xddf252ad1be2c89b69c2b068fc378daa952ba7f163c4a11628f55a4df523b3ef",
            "0x000000000000000000000000b7f8bc63bbcad18155201308c8f3540b07f84f5e",
            "0x000000000000000000000000f4177fde0a6f4626358ba1ac20c9c5dad0174597"
          ],
          "data": "0x00000000000000000000000000000000000000000000003635c9adc5dea00000",
          "blockHash": "0x24fab4dbcf0ff4d088c23eb43ff7e14d4ae2c52543ca1bfbb0e9d54ad063e6c4",
          "blockNumber": "0xb",
          "blockTimestamp": "0x6836be2b",
          "transactionHash": "0xb241ad3e6a3e8e61ef4626ad36b23d04e63a7b41bf6ceaeb4a7974eb5f71c08f",
          "transactionIndex": "0x0",
          "logIndex": "0x3",
          "removed": false
        },
        {
          "address": "0xe7f1725e7734ce288f8367e1bb143e90bb3f0512",
          "topics": [
            "0xe1fffcc4923d04b559f4d29a8bfc6cda04eb5b0d3c460751c2402c5c5cc9109c",
            "0x0000000000000000000000009fe46736679d2d9a65f0992f2272de9f3c7fa6e0"
          ],
          "data": "0x000000000000000000000000000000000000000000000000016345785d8a0000",
          "blockHash": "0x24fab4dbcf0ff4d088c23eb43ff7e14d4ae2c52543ca1bfbb0e9d54ad063e6c4",
          "blockNumber": "0xb",
          "blockTimestamp": "0x6836be2b",
          "transactionHash": "0xb241ad3e6a3e8e61ef4626ad36b23d04e63a7b41bf6ceaeb4a7974eb5f71c08f",
          "transactionIndex": "0x0",
          "logIndex": "0x4",
          "removed": false
        },
        {
          "address": "0xe7f1725e7734ce288f8367e1bb143e90bb3f0512",
          "topics": [
            "0xddf252ad1be2c89b69c2b068fc378daa952ba7f163c4a11628f55a4df523b3ef",
            "0x0000000000000000000000009fe46736679d2d9a65f0992f2272de9f3c7fa6e0",
            "0x000000000000000000000000f4177fde0a6f4626358ba1ac20c9c5dad0174597"
          ],
          "data": "0x000000000000000000000000000000000000000000000000016345785d8a0000",
          "blockHash": "0x24fab4dbcf0ff4d088c23eb43ff7e14d4ae2c52543ca1bfbb0e9d54ad063e6c4",
          "blockNumber": "0xb",
          "blockTimestamp": "0x6836be2b",
          "transactionHash": "0xb241ad3e6a3e8e61ef4626ad36b23d04e63a7b41bf6ceaeb4a7974eb5f71c08f",
          "transactionIndex": "0x0",
          "logIndex": "0x5",
          "removed": false
        },
        {
          "address": "0xf4177fde0a6f4626358ba1ac20c9c5dad0174597",
          "topics": [
            "0xddf252ad1be2c89b69c2b068fc378daa952ba7f163c4a11628f55a4df523b3ef",
            "0x0000000000000000000000000000000000000000000000000000000000000000",
            "0x0000000000000000000000000000000000000000000000000000000000000000"
          ],
          "data": "0x00000000000000000000000000000000000000000000000000000000000003e8",
          "blockHash": "0x24fab4dbcf0ff4d088c23eb43ff7e14d4ae2c52543ca1bfbb0e9d54ad063e6c4",
          "blockNumber": "0xb",
          "blockTimestamp": "0x6836be2b",
          "transactionHash": "0xb241ad3e6a3e8e61ef4626ad36b23d04e63a7b41bf6ceaeb4a7974eb5f71c08f",
          "transactionIndex": "0x0",
          "logIndex": "0x6",
          "removed": false
        },
        {
          "address": "0xf4177fde0a6f4626358ba1ac20c9c5dad0174597",
          "topics": [
            "0xddf252ad1be2c89b69c2b068fc378daa952ba7f163c4a11628f55a4df523b3ef",
            "0x0000000000000000000000000000000000000000000000000000000000000000",
            "0x000000000000000000000000b7f8bc63bbcad18155201308c8f3540b07f84f5e"
          ],
          "data": "0x0000000000000000000000000000000000000000000000008ac7230489e7fc18",
          "blockHash": "0x24fab4dbcf0ff4d088c23eb43ff7e14d4ae2c52543ca1bfbb0e9d54ad063e6c4",
          "blockNumber": "0xb",
          "blockTimestamp": "0x6836be2b",
          "transactionHash": "0xb241ad3e6a3e8e61ef4626ad36b23d04e63a7b41bf6ceaeb4a7974eb5f71c08f",
          "transactionIndex": "0x0",
          "logIndex": "0x7",
          "removed": false
        },
        {
          "address": "0xf4177fde0a6f4626358ba1ac20c9c5dad0174597",
          "topics": [
            "0x1c411e9a96e071241c2f21f7726b17ae89e3cab4c78be50e062b03a9fffbbad1"
          ],
          "data": "0x00000000000000000000000000000000000000000000003635c9adc5dea00000000000000000000000000000000000000000000000000000016345785d8a0000",
          "blockHash": "0x24fab4dbcf0ff4d088c23eb43ff7e14d4ae2c52543ca1bfbb0e9d54ad063e6c4",
          "blockNumber": "0xb",
          "blockTimestamp": "0x6836be2b",
          "transactionHash": "0xb241ad3e6a3e8e61ef4626ad36b23d04e63a7b41bf6ceaeb4a7974eb5f71c08f",
          "transactionIndex": "0x0",
          "logIndex": "0x8",
          "removed": false
        },
        {
          "address": "0xf4177fde0a6f4626358ba1ac20c9c5dad0174597",
          "topics": [
            "0x4c209b5fc8ad50758f13e2e1088ba56a560dff690a1c6fef26394f4c03821c4f",
            "0x0000000000000000000000009fe46736679d2d9a65f0992f2272de9f3c7fa6e0"
          ],
          "data": "0x00000000000000000000000000000000000000000000003635c9adc5dea00000000000000000000000000000000000000000000000000000016345785d8a0000",
          "blockHash": "0x24fab4dbcf0ff4d088c23eb43ff7e14d4ae2c52543ca1bfbb0e9d54ad063e6c4",
          "blockNumber": "0xb",
          "blockTimestamp": "0x6836be2b",
          "transactionHash": "0xb241ad3e6a3e8e61ef4626ad36b23d04e63a7b41bf6ceaeb4a7974eb5f71c08f",
          "transactionIndex": "0x0",
          "logIndex": "0x9",
          "removed": false
        },
        {
          "address": "0xb7f8bc63bbcad18155201308c8f3540b07f84f5e",
          "topics": [
            "0x64b83944e79c3ce8d4c297411de637c3e102d064677aac0c163976ebdcd6f50e",
            "0x0000000000000000000000003ca8f9c04c7e3e1624ac2008f92f6f366a869444"
          ],
          "data": "0x00000000000000000000000000000000000000000000003635c9adc5dea00000000000000000000000000000000000000000000000000000016345785d8a00000000000000000000000000000000000000000000000000008ac7230489e7fc18",
          "blockHash": "0x24fab4dbcf0ff4d088c23eb43ff7e14d4ae2c52543ca1bfbb0e9d54ad063e6c4",
          "blockNumber": "0xb",
          "blockTimestamp": "0x6836be2b",
          "transactionHash": "0xb241ad3e6a3e8e61ef4626ad36b23d04e63a7b41bf6ceaeb4a7974eb5f71c08f",
          "transactionIndex": "0x0",
          "logIndex": "0xa",
          "removed": false
        }
      ],
      "logsBloom": "0x0000000010000000040000008000000000000000004000000000000000000100000000000200000000040000000000001040000000000000000000000020040100000100000000000000000a800000000000800000000020000000008000400000000040020000000200000000000800008100000008080000000414000000000002000000000000000000000000000000000001004000080000000200000000020800000800000000000002000000000000000000000000000000000000800000000042000000000000000000021040000000000000001000000000020020000010000000000000080000080000000000000000000000c00000000000000000",
      "type": "0x2",
      "transactionHash": "0xb241ad3e6a3e8e61ef4626ad36b23d04e63a7b41bf6ceaeb4a7974eb5f71c08f",
      "transactionIndex": "0x0",
      "blockHash": "0x24fab4dbcf0ff4d088c23eb43ff7e14d4ae2c52543ca1bfbb0e9d54ad063e6c4",
      "blockNumber": "0xb",
      "gasUsed": "0x2032df",
      "effectiveGasPrice": "0x11fe8b36",
      "blobGasPrice": "0x1",
      "from": "0xf39fd6e51aad88f6f4ce6ab8827279cfffb92266",
      "to": "0xb7f8bc63bbcad18155201308c8f3540b07f84f5e",
      "contractAddress": null
    }
  ],
  "libraries": [],
  "pending": [],
  "returns": {},
  "timestamp": 1748418092,
  "chain": 31337,
  "commit": null
}