{
  "transactions": [
    {
      "hash": "0x255ac7e7d85a3eaf6d30be13afe5c2fcf637a6cc35d0e54464cdf9f789c9c41b",
      "transactionType": "CALL",
      "contractName": null,
      "contractAddress": "0xcf7ed3acca5a467e9e704c703e8d87f634fb0fc9",
      "function": "approve(address,uint256)",
      "arguments": [
        "0x9fE46736679d2D9a65F0992F2272dE9f3c7fa6e0",
        "10000000000000000000000"
      ],
      "transaction": {
        "from": "0xf39fd6e51aad88f6f4ce6ab8827279cfffb92266",
        "to": "0xcf7ed3acca5a467e9e704c703e8d87f634fb0fc9",
        "gas": "0xfc27",
        "value": "0x0",
        "input": "0x095ea7b30000000000000000000000009fe46736679d2d9a65f0992f2272de9f3c7fa6e000000000000000000000000000000000000000000000021e19e0c9bab2400000",
        "nonce": "0x7",
        "chainId": "0x7a69"
      },
      "additionalContracts": [],
      "isFixedGasLimit": false
    },
    {
      "hash": "0xe892da5b15cdb8a79547a94e0f3bd7a91fb5c4238e28da01d5bb2eff6bf60297",
      "transactionType": "CALL",
      "contractName": null,
      "contractAddress": "0x9fe46736679d2d9a65f0992f2272de9f3c7fa6e0",
      "function": "addLiquidityETH(address,uint256,uint256,uint256,address,uint256)",
      "arguments": [
        "0xCf7Ed3AccA5a467e9e704C703E8D87F634fB0Fc9",
        "10000000000000000000000",
        "10000000000000000000000",
        "5000000000000000000",
        "0x9f7cF1d1F558E57ef88a59ac3D47214eF25B6A06",
        "1748277171"
      ],
      "transaction": {
        "from": "0xf39fd6e51aad88f6f4ce6ab8827279cfffb92266",
        "to": "0x9fe46736679d2d9a65f0992f2272de9f3c7fa6e0",
        "gas": "0x6445f",
        "value": "0x4563918244f40000",
        "input": "0xf305d719000000000000000000000000cf7ed3acca5a467e9e704c703e8d87f634fb0fc900000000000000000000000000000000000000000000021e19e0c9bab240000000000000000000000000000000000000000000000000021e19e0c9bab24000000000000000000000000000000000000000000000000000004563918244f400000000000000000000000000009f7cf1d1f558e57ef88a59ac3d47214ef25b6a0600000000000000000000000000000000000000000000000000000000683497b3",
        "nonce": "0x8",
        "chainId": "0x7a69"
      },
      "additionalContracts": [],
      "isFixedGasLimit": false
    },
    {
      "hash": "0xfde17f30e3bb5234481d0c329f43f3ccd004d957c627916da212592919c7ab51",
      "transactionType": "CALL",
      "contractName": null,
      "contractAddress": "0x9fe46736679d2d9a65f0992f2272de9f3c7fa6e0",
      "function": "swapExactETHForTokens(uint256,address[],address,uint256)",
      "arguments": [
        "0",
        "[0xe7f1725E7734CE288F8367e1Bb143E90bb3F0512, 0xCf7Ed3AccA5a467e9e704C703E8D87F634fB0Fc9]",
        "0x9f7cF1d1F558E57ef88a59ac3D47214eF25B6A06",
        "1748277171"
      ],
      "transaction": {
        "from": "0xf39fd6e51aad88f6f4ce6ab8827279cfffb92266",
        "to": "0x9fe46736679d2d9a65f0992f2272de9f3c7fa6e0",
        "gas": "0x2e910",
        "value": "0xde0b6b3a7640000",
        "input": "0x7ff36ab5000000000000000000000000000000000000000000000000000000000000000000000000000000000000000000000000000000000000000000000000000000800000000000000000000000009f7cf1d1f558e57ef88a59ac3d47214ef25b6a0600000000000000000000000000000000000000000000000000000000683497b30000000000000000000000000000000000000000000000000000000000000002000000000000000000000000e7f1725e7734ce288f8367e1bb143e90bb3f0512000000000000000000000000cf7ed3acca5a467e9e704c703e8d87f634fb0fc9",
        "nonce": "0x9",
        "chainId": "0x7a69"
      },
      "additionalContracts": [],
      "isFixedGasLimit": false
    },
    {
      "hash": "0x7d5b315046df13765fbfaa98f3491bb65b284a4bd4d80d91386b5ac265ce2739",
      "transactionType": "CALL",
      "contractName": null,
      "contractAddress": "0xcf7ed3acca5a467e9e704c703e8d87f634fb0fc9",
      "function": "approve(address,uint256)",
      "arguments": [
        "0x9fE46736679d2D9a65F0992F2272dE9f3c7fa6e0",
        "1000000000000000000000"
      ],
      "transaction": {
        "from": "0xf39fd6e51aad88f6f4ce6ab8827279cfffb92266",
        "to": "0xcf7ed3acca5a467e9e704c703e8d87f634fb0fc9",
        "gas": "0x10aeb",
        "value": "0x0",
        "input": "0x095ea7b30000000000000000000000009fe46736679d2d9a65f0992f2272de9f3c7fa6e000000000000000000000000000000000000000000000003635c9adc5dea00000",
        "nonce": "0xa",
        "chainId": "0x7a69"
      },
      "additionalContracts": [],
      "isFixedGasLimit": false
    },
    {
      "hash": "0x1b8cb9d9663b75ea67a4838e0ebd72ce512b1839280fcfd4e77ae861a9ca3cd8",
      "transactionType": "CALL",
      "contractName": null,
      "contractAddress": "0xdc64a140aa3e981100a9beca4e685f962f0cf6c9",
      "function": "approve(address,uint256)",
      "arguments": [
        "0x9fE46736679d2D9a65F0992F2272dE9f3c7fa6e0",
        "1000000000000000000000"
      ],
      "transaction": {
        "from": "0xf39fd6e51aad88f6f4ce6ab8827279cfffb92266",
        "to": "0xdc64a140aa3e981100a9beca4e685f962f0cf6c9",
        "gas": "0x10aeb",
        "value": "0x0",
        "input": "0x095ea7b30000000000000000000000009fe46736679d2d9a65f0992f2272de9f3c7fa6e000000000000000000000000000000000000000000000003635c9adc5dea00000",
        "nonce": "0xb",
        "chainId": "0x7a69"
      },
      "additionalContracts": [],
      "isFixedGasLimit": false
    },
    {
      "hash": "0xb3e038d2a582c36eabaa8ea6588928ef995cfd345c675a2629e2737e74d8e625",
      "transactionType": "CALL",
      "contractName": null,
      "contractAddress": "0x9fe46736679d2d9a65f0992f2272de9f3c7fa6e0",
      "function": "addLiquidity(address,address,uint256,uint256,uint256,uint256,address,uint256)",
      "arguments": [
        "0xCf7Ed3AccA5a467e9e704C703E8D87F634fB0Fc9",
        "0xDc64a140Aa3E981100a9becA4E685f962f0cF6C9",
        "1000000000000000000000",
        "1000000000000000000000",
        "1000000000000000000000",
        "1000000000000000000000",
        "0x9f7cF1d1F558E57ef88a59ac3D47214eF25B6A06",
        "1748277171"
      ],
      "transaction": {
        "from": "0xf39fd6e51aad88f6f4ce6ab8827279cfffb92266",
        "to": "0x9fe46736679d2d9a65f0992f2272de9f3c7fa6e0",
        "gas": "0x5e08c",
        "value": "0x0",
        "input": "0xe8e33700000000000000000000000000cf7ed3acca5a467e9e704c703e8d87f634fb0fc9000000000000000000000000dc64a140aa3e981100a9beca4e685f962f0cf6c900000000000000000000000000000000000000000000003635c9adc5dea0000000000000000000000000000000000000000000000000003635c9adc5dea0000000000000000000000000000000000000000000000000003635c9adc5dea0000000000000000000000000000000000000000000000000003635c9adc5dea000000000000000000000000000009f7cf1d1f558e57ef88a59ac3d47214ef25b6a0600000000000000000000000000000000000000000000000000000000683497b3",
        "nonce": "0xc",
        "chainId": "0x7a69"
      },
      "additionalContracts": [],
      "isFixedGasLimit": false
    },
    {
      "hash": "0xccddbecd65d0f2398ab7f805af576ced64ea42304856cd55a6a6cf9d9e52cd48",
      "transactionType": "CALL",
      "contractName": null,
      "contractAddress": "0xcf7ed3acca5a467e9e704c703e8d87f634fb0fc9",
      "function": "approve(address,uint256)",
      "arguments": [
        "0x9fE46736679d2D9a65F0992F2272dE9f3c7fa6e0",
        "100000000000000000000"
      ],
      "transaction": {
        "from": "0xf39fd6e51aad88f6f4ce6ab8827279cfffb92266",
        "to": "0xcf7ed3acca5a467e9e704c703e8d87f634fb0fc9",
        "gas": "0x10aeb",
        "value": "0x0",
        "input": "0x095ea7b30000000000000000000000009fe46736679d2d9a65f0992f2272de9f3c7fa6e00000000000000000000000000000000000000000000000056bc75e2d63100000",
        "nonce": "0xd",
        "chainId": "0x7a69"
      },
      "additionalContracts": [],
      "isFixedGasLimit": false
    },
    {
      "hash": "0xae6980dff354bab88b9951e61071ebee67f390f4a23f58b986881a5c86aa5899",
      "transactionType": "CALL",
      "contractName": null,
      "contractAddress": "0x9fe46736679d2d9a65f0992f2272de9f3c7fa6e0",
      "function": "swapExactTokensForTokens(uint256,uint256,address[],address,uint256)",
      "arguments": [
        "100000000000000000000",
        "0",
        "[0xCf7Ed3AccA5a467e9e704C703E8D87F634fB0Fc9, 0xDc64a140Aa3E981100a9becA4E685f962f0cF6C9]",
        "0x9f7cF1d1F558E57ef88a59ac3D47214eF25B6A06",
        "1748277171"
      ],
      "transaction": {
        "from": "0xf39fd6e51aad88f6f4ce6ab8827279cfffb92266",
        "to": "0x9fe46736679d2d9a65f0992f2272de9f3c7fa6e0",
        "gas": "0x2d337",
        "value": "0x0",
        "input": "0x38ed17390000000000000000000000000000000000000000000000056bc75e2d63100000000000000000000000000000000000000000000000000000000000000000000000000000000000000000000000000000000000000000000000000000000000a00000000000000000000000009f7cf1d1f558e57ef88a59ac3d47214ef25b6a0600000000000000000000000000000000000000000000000000000000683497b30000000000000000000000000000000000000000000000000000000000000002000000000000000000000000cf7ed3acca5a467e9e704c703e8d87f634fb0fc9000000000000000000000000dc64a140aa3e981100a9beca4e685f962f0cf6c9",
        "nonce": "0xe",
        "chainId": "0x7a69"
      },
      "additionalContracts": [],
      "isFixedGasLimit": false
    }
  ],
  "receipts": [
    {
      "status": "0x1",
      "cumulativeGasUsed": "0xb68f",
      "logs": [
        {
          "address": "0xcf7ed3acca5a467e9e704c703e8d87f634fb0fc9",
          "topics": [
            "0x8c5be1e5ebec7d5bd14f71427d1e84f3dd0314c0f7b2291e5b200ac8c7c3b925",
            "0x000000000000000000000000f39fd6e51aad88f6f4ce6ab8827279cfffb92266",
            "0x0000000000000000000000009fe46736679d2d9a65f0992f2272de9f3c7fa6e0"
          ],
          "data": "0x00000000000000000000000000000000000000000000021e19e0c9bab2400000",
          "blockHash": "0x4a6e10d456fded973e5561d81fda5b83d6016b25ec7a3672d56eb4f02ae658af",
          "blockNumber": "0x2",
          "blockTimestamp": "0x68348a0b",
          "transactionHash": "0x255ac7e7d85a3eaf6d30be13afe5c2fcf637a6cc35d0e54464cdf9f789c9c41b",
          "transactionIndex": "0x0",
          "logIndex": "0x0",
          "removed": false
        }
      ],
      "logsBloom": "0x00000000000000000000000000000000000000000000000000000000000000000000000000000000000400000000080000400000000000000000000000200001000000000000000000000000000000000000000000000000000000000000400000000000000000000000000100000000000000000000000000000000000000000000000008000000000000000000000000000000000000000000000000000000020000000000000000000000000000000000000000000000000000000000000000000000000000200000000000000000000000002000000000000000000000000010000000000000000000000000000000000000000000000000000000000000",
      "type": "0x2",
      "transactionHash": "0x255ac7e7d85a3eaf6d30be13afe5c2fcf637a6cc35d0e54464cdf9f789c9c41b",
      "transactionIndex": "0x0",
      "blockHash": "0x4a6e10d456fded973e5561d81fda5b83d6016b25ec7a3672d56eb4f02ae658af",
      "blockNumber": "0x2",
      "gasUsed": "0xb68f",
      "effectiveGasPrice": "0x3d6ab00b",
      "blobGasPrice": "0x1",
      "from": "0xf39fd6e51aad88f6f4ce6ab8827279cfffb92266",
      "to": "0xcf7ed3acca5a467e9e704c703e8d87f634fb0fc9",
      "contractAddress": null
    },
    {
      "status": "0x1",
      "cumulativeGasUsed": "0x44902",
      "logs": [
        {
          "address": "0xcf7ed3acca5a467e9e704c703e8d87f634fb0fc9",
          "topics": [
            "0xddf252ad1be2c89b69c2b068fc378daa952ba7f163c4a11628f55a4df523b3ef",
            "0x000000000000000000000000f39fd6e51aad88f6f4ce6ab8827279cfffb92266",
            "0x0000000000000000000000006b4306f6f81a5391c111983dfbcfb32bd034e615"
          ],
          "data": "0x00000000000000000000000000000000000000000000021e19e0c9bab2400000",
          "blockHash": "0xce0300c1d0dca2d6a7089385ef651173169fd268561e1349931ed9a1f49888ff",
          "blockNumber": "0x3",
          "blockTimestamp": "0x68348a0b",
          "transactionHash": "0xe892da5b15cdb8a79547a94e0f3bd7a91fb5c4238e28da01d5bb2eff6bf60297",
          "transactionIndex": "0x0",
          "logIndex": "0x0",
          "removed": false
        },
        {
          "address": "0xe7f1725e7734ce288f8367e1bb143e90bb3f0512",
          "topics": [
            "0xe1fffcc4923d04b559f4d29a8bfc6cda04eb5b0d3c460751c2402c5c5cc9109c",
            "0x0000000000000000000000009fe46736679d2d9a65f0992f2272de9f3c7fa6e0"
          ],
          "data": "0x0000000000000000000000000000000000000000000000004563918244f40000",
          "blockHash": "0xce0300c1d0dca2d6a7089385ef651173169fd268561e1349931ed9a1f49888ff",
          "blockNumber": "0x3",
          "blockTimestamp": "0x68348a0b",
          "transactionHash": "0xe892da5b15cdb8a79547a94e0f3bd7a91fb5c4238e28da01d5bb2eff6bf60297",
          "transactionIndex": "0x0",
          "logIndex": "0x1",
          "removed": false
        },
        {
          "address": "0xe7f1725e7734ce288f8367e1bb143e90bb3f0512",
          "topics": [
            "0xddf252ad1be2c89b69c2b068fc378daa952ba7f163c4a11628f55a4df523b3ef",
            "0x0000000000000000000000009fe46736679d2d9a65f0992f2272de9f3c7fa6e0",
            "0x0000000000000000000000006b4306f6f81a5391c111983dfbcfb32bd034e615"
          ],
          "data": "0x0000000000000000000000000000000000000000000000004563918244f40000",
          "blockHash": "0xce0300c1d0dca2d6a7089385ef651173169fd268561e1349931ed9a1f49888ff",
          "blockNumber": "0x3",
          "blockTimestamp": "0x68348a0b",
          "transactionHash": "0xe892da5b15cdb8a79547a94e0f3bd7a91fb5c4238e28da01d5bb2eff6bf60297",
          "transactionIndex": "0x0",
          "logIndex": "0x2",
          "removed": false
        },
        {
          "address": "0x6b4306f6f81a5391c111983dfbcfb32bd034e615",
          "topics": [
            "0xddf252ad1be2c89b69c2b068fc378daa952ba7f163c4a11628f55a4df523b3ef",
            "0x0000000000000000000000000000000000000000000000000000000000000000",
            "0x0000000000000000000000000000000000000000000000000000000000000000"
          ],
          "data": "0x00000000000000000000000000000000000000000000000000000000000003e8",
          "blockHash": "0xce0300c1d0dca2d6a7089385ef651173169fd268561e1349931ed9a1f49888ff",
          "blockNumber": "0x3",
          "blockTimestamp": "0x68348a0b",
          "transactionHash": "0xe892da5b15cdb8a79547a94e0f3bd7a91fb5c4238e28da01d5bb2eff6bf60297",
          "transactionIndex": "0x0",
          "logIndex": "0x3",
          "removed": false
        },
        {
          "address": "0x6b4306f6f81a5391c111983dfbcfb32bd034e615",
          "topics": [
            "0xddf252ad1be2c89b69c2b068fc378daa952ba7f163c4a11628f55a4df523b3ef",
            "0x0000000000000000000000000000000000000000000000000000000000000000",
            "0x0000000000000000000000009f7cf1d1f558e57ef88a59ac3d47214ef25b6a06"
          ],
          "data": "0x00000000000000000000000000000000000000000000000c1f2aedd5821cb240",
          "blockHash": "0xce0300c1d0dca2d6a7089385ef651173169fd268561e1349931ed9a1f49888ff",
          "blockNumber": "0x3",
          "blockTimestamp": "0x68348a0b",
          "transactionHash": "0xe892da5b15cdb8a79547a94e0f3bd7a91fb5c4238e28da01d5bb2eff6bf60297",
          "transactionIndex": "0x0",
          "logIndex": "0x4",
          "removed": false
        },
        {
          "address": "0x6b4306f6f81a5391c111983dfbcfb32bd034e615",
          "topics": [
            "0x1c411e9a96e071241c2f21f7726b17ae89e3cab4c78be50e062b03a9fffbbad1"
          ],
          "data": "0x00000000000000000000000000000000000000000000021e19e0c9bab24000000000000000000000000000000000000000000000000000004563918244f40000",
          "blockHash": "0xce0300c1d0dca2d6a7089385ef651173169fd268561e1349931ed9a1f49888ff",
          "blockNumber": "0x3",
          "blockTimestamp": "0x68348a0b",
          "transactionHash": "0xe892da5b15cdb8a79547a94e0f3bd7a91fb5c4238e28da01d5bb2eff6bf60297",
          "transactionIndex": "0x0",
          "logIndex": "0x5",
          "removed": false
        },
        {
          "address": "0x6b4306f6f81a5391c111983dfbcfb32bd034e615",
          "topics": [
            "0x4c209b5fc8ad50758f13e2e1088ba56a560dff690a1c6fef26394f4c03821c4f",
            "0x0000000000000000000000009fe46736679d2d9a65f0992f2272de9f3c7fa6e0"
          ],
          "data": "0x00000000000000000000000000000000000000000000021e19e0c9bab24000000000000000000000000000000000000000000000000000004563918244f40000",
          "blockHash": "0xce0300c1d0dca2d6a7089385ef651173169fd268561e1349931ed9a1f49888ff",
          "blockNumber": "0x3",
          "blockTimestamp": "0x68348a0b",
          "transactionHash": "0xe892da5b15cdb8a79547a94e0f3bd7a91fb5c4238e28da01d5bb2eff6bf60297",
          "transactionIndex": "0x0",
          "logIndex": "0x6",
          "removed": false
        }
      ],
      "logsBloom": "0x08000000000000000000000080000000000000000000000000000000000001000000000000000000000c00000000080010400000000000000000000000000001000040000000000000000008000000000000000000000000000000008000500000000000020000000000000100000800000000000008000000000010000000000000000008000000000000800000000000000001000000080000200000000000000000004000000000000000010000000400000000000000000000000000000000000002000000200000000000021000000000002000001000000000000020000000000000000000000000000000000000000000000000c00000000000000000",
      "type": "0x2",
      "transactionHash": "0xe892da5b15cdb8a79547a94e0f3bd7a91fb5c4238e28da01d5bb2eff6bf60297",
      "transactionIndex": "0x0",
      "blockHash": "0xce0300c1d0dca2d6a7089385ef651173169fd268561e1349931ed9a1f49888ff",
      "blockNumber": "0x3",
      "gasUsed": "0x44902",
      "effectiveGasPrice": "0x35c3799d",
      "blobGasPrice": "0x1",
      "from": "0xf39fd6e51aad88f6f4ce6ab8827279cfffb92266",
      "to": "0x9fe46736679d2d9a65f0992f2272de9f3c7fa6e0",
      "contractAddress": null
    },
    {
      "status": "0x1",
      "cumulativeGasUsed": "0x1fd72",
      "logs": [
        {
          "address": "0xe7f1725e7734ce288f8367e1bb143e90bb3f0512",
          "topics": [
            "0xe1fffcc4923d04b559f4d29a8bfc6cda04eb5b0d3c460751c2402c5c5cc9109c",
            "0x0000000000000000000000009fe46736679d2d9a65f0992f2272de9f3c7fa6e0"
          ],
          "data": "0x0000000000000000000000000000000000000000000000000de0b6b3a7640000",
          "blockHash": "0x0d19c761da2fdfea634dd010af789b3458fd4a5e8557bc70d21eafb899043083",
          "blockNumber": "0x4",
          "blockTimestamp": "0x68348a0b",
          "transactionHash": "0xfde17f30e3bb5234481d0c329f43f3ccd004d957c627916da212592919c7ab51",
          "transactionIndex": "0x0",
          "logIndex": "0x0",
          "removed": false
        },
        {
          "address": "0xe7f1725e7734ce288f8367e1bb143e90bb3f0512",
          "topics": [
            "0xddf252ad1be2c89b69c2b068fc378daa952ba7f163c4a11628f55a4df523b3ef",
            "0x0000000000000000000000009fe46736679d2d9a65f0992f2272de9f3c7fa6e0",
            "0x0000000000000000000000006b4306f6f81a5391c111983dfbcfb32bd034e615"
          ],
          "data": "0x0000000000000000000000000000000000000000000000000de0b6b3a7640000",
          "blockHash": "0x0d19c761da2fdfea634dd010af789b3458fd4a5e8557bc70d21eafb899043083",
          "blockNumber": "0x4",
          "blockTimestamp": "0x68348a0b",
          "transactionHash": "0xfde17f30e3bb5234481d0c329f43f3ccd004d957c627916da212592919c7ab51",
          "transactionIndex": "0x0",
          "logIndex": "0x1",
          "removed": false
        },
        {
          "address": "0xcf7ed3acca5a467e9e704c703e8d87f634fb0fc9",
          "topics": [
            "0xddf252ad1be2c89b69c2b068fc378daa952ba7f163c4a11628f55a4df523b3ef",
            "0x0000000000000000000000006b4306f6f81a5391c111983dfbcfb32bd034e615",
            "0x0000000000000000000000009f7cf1d1f558e57ef88a59ac3d47214ef25b6a06"
          ],
          "data": "0x00000000000000000000000000000000000000000000005a1fcb15f810669707",
          "blockHash": "0x0d19c761da2fdfea634dd010af789b3458fd4a5e8557bc70d21eafb899043083",
          "blockNumber": "0x4",
          "blockTimestamp": "0x68348a0b",
          "transactionHash": "0xfde17f30e3bb5234481d0c329f43f3ccd004d957c627916da212592919c7ab51",
          "transactionIndex": "0x0",
          "logIndex": "0x2",
          "removed": false
        },
        {
          "address": "0x6b4306f6f81a5391c111983dfbcfb32bd034e615",
          "topics": [
            "0x1c411e9a96e071241c2f21f7726b17ae89e3cab4c78be50e062b03a9fffbbad1"
          ],
          "data": "0x0000000000000000000000000000000000000000000001c3fa15b3c2a1d968f900000000000000000000000000000000000000000000000053444835ec580000",
          "blockHash": "0x0d19c761da2fdfea634dd010af789b3458fd4a5e8557bc70d21eafb899043083",
          "blockNumber": "0x4",
          "blockTimestamp": "0x68348a0b",
          "transactionHash": "0xfde17f30e3bb5234481d0c329f43f3ccd004d957c627916da212592919c7ab51",
          "transactionIndex": "0x0",
          "logIndex": "0x3",
          "removed": false
        },
        {
          "address": "0x6b4306f6f81a5391c111983dfbcfb32bd034e615",
          "topics": [
            "0xd78ad95fa46c994b6551d0da85fc275fe613ce37657fb8d5e3d130840159d822",
            "0x0000000000000000000000009fe46736679d2d9a65f0992f2272de9f3c7fa6e0",
            "0x0000000000000000000000009f7cf1d1f558e57ef88a59ac3d47214ef25b6a06"
          ],
          "data": "0x00000000000000000000000000000000000000000000000000000000000000000000000000000000000000000000000000000000000000000de0b6b3a764000000000000000000000000000000000000000000000000005a1fcb15f8106697070000000000000000000000000000000000000000000000000000000000000000",
          "blockHash": "0x0d19c761da2fdfea634dd010af789b3458fd4a5e8557bc70d21eafb899043083",
          "blockNumber": "0x4",
          "blockTimestamp": "0x68348a0b",
          "transactionHash": "0xfde17f30e3bb5234481d0c329f43f3ccd004d957c627916da212592919c7ab51",
          "transactionIndex": "0x0",
          "logIndex": "0x4",
          "removed": false
        }
      ],
      "logsBloom": "0x08200000000000000000000080000000000000000000000000000000000000000000000000000000000c00000000080010400000000000000000000000000001000040000000000000000008000000200000000000000000000000008000500000000000000000000000000000000000000000000000000000000010000000000000000008000000000000800000000000000001000000080000204000000000000000004000000000000000010000000400000000000000000000000000000000000002000000000000000000001000000000000000001000000000000000000000000000000000000000000000000000000000000000c00000000000000000",
      "type": "0x2",
      "transactionHash": "0xfde17f30e3bb5234481d0c329f43f3ccd004d957c627916da212592919c7ab51",
      "transactionIndex": "0x0",
      "blockHash": "0x0d19c761da2fdfea634dd010af789b3458fd4a5e8557bc70d21eafb899043083",
      "blockNumber": "0x4",
      "gasUsed": "0x1fd72",
      "effectiveGasPrice": "0x2f2b4049",
      "blobGasPrice": "0x1",
      "from": "0xf39fd6e51aad88f6f4ce6ab8827279cfffb92266",
      "to": "0x9fe46736679d2d9a65f0992f2272de9f3c7fa6e0",
      "contractAddress": null
    },
    {
      "status": "0x1",
      "cumulativeGasUsed": "0xb683",
      "logs": [
        {
          "address": "0xcf7ed3acca5a467e9e704c703e8d87f634fb0fc9",
          "topics": [
            "0x8c5be1e5ebec7d5bd14f71427d1e84f3dd0314c0f7b2291e5b200ac8c7c3b925",
            "0x000000000000000000000000f39fd6e51aad88f6f4ce6ab8827279cfffb92266",
            "0x0000000000000000000000009fe46736679d2d9a65f0992f2272de9f3c7fa6e0"
          ],
          "data": "0x00000000000000000000000000000000000000000000003635c9adc5dea00000",
          "blockHash": "0x85065ca8f4a6e4043a1d64b5d270ebb405ff589d42c2a08865ae79013492e1b6",
          "blockNumber": "0x5",
          "blockTimestamp": "0x68348a0b",
          "transactionHash": "0x7d5b315046df13765fbfaa98f3491bb65b284a4bd4d80d91386b5ac265ce2739",
          "transactionIndex": "0x0",
          "logIndex": "0x0",
          "removed": false
        }
      ],
      "logsBloom": "0x00000000000000000000000000000000000000000000000000000000000000000000000000000000000400000000080000400000000000000000000000200001000000000000000000000000000000000000000000000000000000000000400000000000000000000000000100000000000000000000000000000000000000000000000008000000000000000000000000000000000000000000000000000000020000000000000000000000000000000000000000000000000000000000000000000000000000200000000000000000000000002000000000000000000000000010000000000000000000000000000000000000000000000000000000000000",
      "type": "0x2",
      "transactionHash": "0x7d5b315046df13765fbfaa98f3491bb65b284a4bd4d80d91386b5ac265ce2739",
      "transactionIndex": "0x0",
      "blockHash": "0x85065ca8f4a6e4043a1d64b5d270ebb405ff589d42c2a08865ae79013492e1b6",
      "blockNumber": "0x5",
      "gasUsed": "0xb683",
      "effectiveGasPrice": "0x2952f7e4",
      "blobGasPrice": "0x1",
      "from": "0xf39fd6e51aad88f6f4ce6ab8827279cfffb92266",
      "to": "0xcf7ed3acca5a467e9e704c703e8d87f634fb0fc9",
      "contractAddress": null
    },
    {
      "status": "0x1",
      "cumulativeGasUsed": "0x16d06",
      "logs": [
        {
          "address": "0xdc64a140aa3e981100a9beca4e685f962f0cf6c9",
          "topics": [
            "0x8c5be1e5ebec7d5bd14f71427d1e84f3dd0314c0f7b2291e5b200ac8c7c3b925",
            "0x000000000000000000000000f39fd6e51aad88f6f4ce6ab8827279cfffb92266",
            "0x0000000000000000000000009fe46736679d2d9a65f0992f2272de9f3c7fa6e0"
          ],
          "data": "0x00000000000000000000000000000000000000000000003635c9adc5dea00000",
          "blockHash": "0x85065ca8f4a6e4043a1d64b5d270ebb405ff589d42c2a08865ae79013492e1b6",
          "blockNumber": "0x5",
          "blockTimestamp": "0x68348a0b",
          "transactionHash": "0x1b8cb9d9663b75ea67a4838e0ebd72ce512b1839280fcfd4e77ae861a9ca3cd8",
          "transactionIndex": "0x1",
          "logIndex": "0x1",
          "removed": false
        }
      ],
      "logsBloom": "0x00000000000000000000000000000000000000000000000000000000000000000000000000000000000400000000000000400000000000000000000000200000000000000000000000000000000000000000000000000000000000000000400000000000000000000000000100000000000000000000000000000000000000000000000000000000000000000000000000000000000000000000000000000000020000000000000000000000000000000000000000000000000000000000000000000000000000200000000000000000000000002020000000000000000000000010000000000000000000000000000000000001000000000100000000000000",
      "type": "0x2",
      "transactionHash": "0x1b8cb9d9663b75ea67a4838e0ebd72ce512b1839280fcfd4e77ae861a9ca3cd8",
      "transactionIndex": "0x1",
      "blockHash": "0x85065ca8f4a6e4043a1d64b5d270ebb405ff589d42c2a08865ae79013492e1b6",
      "blockNumber": "0x5",
      "gasUsed": "0xb683",
      "effectiveGasPrice": "0x2952f7e4",
      "blobGasPrice": "0x1",
      "from": "0xf39fd6e51aad88f6f4ce6ab8827279cfffb92266",
      "to": "0xdc64a140aa3e981100a9beca4e685f962f0cf6c9",
      "contractAddress": null
    },
    {
      "status": "0x1",
      "cumulativeGasUsed": "0x5ae4a",
      "logs": [
        {
          "address": "0xcf7ed3acca5a467e9e704c703e8d87f634fb0fc9",
          "topics": [
            "0xddf252ad1be2c89b69c2b068fc378daa952ba7f163c4a11628f55a4df523b3ef",
            "0x000000000000000000000000f39fd6e51aad88f6f4ce6ab8827279cfffb92266",
            "0x000000000000000000000000da82d145d3720116e0725bbb0ed8ac2981319904"
          ],
          "data": "0x00000000000000000000000000000000000000000000003635c9adc5dea00000",
          "blockHash": "0x85065ca8f4a6e4043a1d64b5d270ebb405ff589d42c2a08865ae79013492e1b6",
          "blockNumber": "0x5",
          "blockTimestamp": "0x68348a0b",
          "transactionHash": "0xb3e038d2a582c36eabaa8ea6588928ef995cfd345c675a2629e2737e74d8e625",
          "transactionIndex": "0x2",
          "logIndex": "0x2",
          "removed": false
        },
        {
          "address": "0xdc64a140aa3e981100a9beca4e685f962f0cf6c9",
          "topics": [
            "0xddf252ad1be2c89b69c2b068fc378daa952ba7f163c4a11628f55a4df523b3ef",
            "0x000000000000000000000000f39fd6e51aad88f6f4ce6ab8827279cfffb92266",
            "0x000000000000000000000000da82d145d3720116e0725bbb0ed8ac2981319904"
          ],
          "data": "0x00000000000000000000000000000000000000000000003635c9adc5dea00000",
          "blockHash": "0x85065ca8f4a6e4043a1d64b5d270ebb405ff589d42c2a08865ae79013492e1b6",
          "blockNumber": "0x5",
          "blockTimestamp": "0x68348a0b",
          "transactionHash": "0xb3e038d2a582c36eabaa8ea6588928ef995cfd345c675a2629e2737e74d8e625",
          "transactionIndex": "0x2",
          "logIndex": "0x3",
          "removed": false
        },
        {
          "address": "0xda82d145d3720116e0725bbb0ed8ac2981319904",
          "topics": [
            "0xddf252ad1be2c89b69c2b068fc378daa952ba7f163c4a11628f55a4df523b3ef",
            "0x0000000000000000000000000000000000000000000000000000000000000000",
            "0x0000000000000000000000000000000000000000000000000000000000000000"
          ],
          "data": "0x00000000000000000000000000000000000000000000000000000000000003e8",
          "blockHash": "0x85065ca8f4a6e4043a1d64b5d270ebb405ff589d42c2a08865ae79013492e1b6",
          "blockNumber": "0x5",
          "blockTimestamp": "0x68348a0b",
          "transactionHash": "0xb3e038d2a582c36eabaa8ea6588928ef995cfd345c675a2629e2737e74d8e625",
          "transactionIndex": "0x2",
          "logIndex": "0x4",
          "removed": false
        },
        {
          "address": "0xda82d145d3720116e0725bbb0ed8ac2981319904",
          "topics": [
            "0xddf252ad1be2c89b69c2b068fc378daa952ba7f163c4a11628f55a4df523b3ef",
            "0x0000000000000000000000000000000000000000000000000000000000000000",
            "0x0000000000000000000000009f7cf1d1f558e57ef88a59ac3d47214ef25b6a06"
          ],
          "data": "0x00000000000000000000000000000000000000000000003635c9adc5de9ffc18",
          "blockHash": "0x85065ca8f4a6e4043a1d64b5d270ebb405ff589d42c2a08865ae79013492e1b6",
          "blockNumber": "0x5",
          "blockTimestamp": "0x68348a0b",
          "transactionHash": "0xb3e038d2a582c36eabaa8ea6588928ef995cfd345c675a2629e2737e74d8e625",
          "transactionIndex": "0x2",
          "logIndex": "0x5",
          "removed": false
        },
        {
          "address": "0xda82d145d3720116e0725bbb0ed8ac2981319904",
          "topics": [
            "0x1c411e9a96e071241c2f21f7726b17ae89e3cab4c78be50e062b03a9fffbbad1"
          ],
          "data": "0x00000000000000000000000000000000000000000000003635c9adc5dea0000000000000000000000000000000000000000000000000003635c9adc5dea00000",
          "blockHash": "0x85065ca8f4a6e4043a1d64b5d270ebb405ff589d42c2a08865ae79013492e1b6",
          "blockNumber": "0x5",
          "blockTimestamp": "0x68348a0b",
          "transactionHash": "0xb3e038d2a582c36eabaa8ea6588928ef995cfd345c675a2629e2737e74d8e625",
          "transactionIndex": "0x2",
          "logIndex": "0x6",
          "removed": false
        },
        {
          "address": "0xda82d145d3720116e0725bbb0ed8ac2981319904",
          "topics": [
            "0x4c209b5fc8ad50758f13e2e1088ba56a560dff690a1c6fef26394f4c03821c4f",
            "0x0000000000000000000000009fe46736679d2d9a65f0992f2272de9f3c7fa6e0"
          ],
          "data": "0x00000000000000000000000000000000000000000000003635c9adc5dea0000000000000000000000000000000000000000000000000003635c9adc5dea00000",
          "blockHash": "0x85065ca8f4a6e4043a1d64b5d270ebb405ff589d42c2a08865ae79013492e1b6",
          "blockNumber": "0x5",
          "blockTimestamp": "0x68348a0b",
          "transactionHash": "0xb3e038d2a582c36eabaa8ea6588928ef995cfd345c675a2629e2737e74d8e625",
          "transactionIndex": "0x2",
          "logIndex": "0x7",
          "removed": false
        }
      ],
      "logsBloom": "0x00000000000000000000400080000000000000080000000000000000000001400000000000000000000400000000080000400000000000000000000000000001000040000000000000000008000000000000000000000000000000000000400000000020020000000000000100000800000000000008000000000010000000000000080008000000000000800000000000000000000000080000000000000000000000004000000000000000000000000000000000000000000000000000000000000002000000200000000000020000000000002020001000000000000020000000000000000000000000000000000000000001000000000100000000000000",
      "type": "0x2",
      "transactionHash": "0xb3e038d2a582c36eabaa8ea6588928ef995cfd345c675a2629e2737e74d8e625",
      "transactionIndex": "0x2",
      "blockHash": "0x85065ca8f4a6e4043a1d64b5d270ebb405ff589d42c2a08865ae79013492e1b6",
      "blockNumber": "0x5",
      "gasUsed": "0x44144",
      "effectiveGasPrice": "0x2952f7e4",
      "blobGasPrice": "0x1",
      "from": "0xf39fd6e51aad88f6f4ce6ab8827279cfffb92266",
      "to": "0x9fe46736679d2d9a65f0992f2272de9f3c7fa6e0",
      "contractAddress": null
    },
    {
      "status": "0x1",
      "cumulativeGasUsed": "0xb683",
      "logs": [
        {
          "address": "0xcf7ed3acca5a467e9e704c703e8d87f634fb0fc9",
          "topics": [
            "0x8c5be1e5ebec7d5bd14f71427d1e84f3dd0314c0f7b2291e5b200ac8c7c3b925",
            "0x000000000000000000000000f39fd6e51aad88f6f4ce6ab8827279cfffb92266",
            "0x0000000000000000000000009fe46736679d2d9a65f0992f2272de9f3c7fa6e0"
          ],
          "data": "0x0000000000000000000000000000000000000000000000056bc75e2d63100000",
          "blockHash": "0xdc3fa865a7fb87d627feba39086b18ff023d22b273232d31009927d54cca06e6",
          "blockNumber": "0x6",
          "blockTimestamp": "0x68348a0b",
          "transactionHash": "0xccddbecd65d0f2398ab7f805af576ced64ea42304856cd55a6a6cf9d9e52cd48",
          "transactionIndex": "0x0",
          "logIndex": "0x0",
          "removed": false
        }
      ],
      "logsBloom": "0x00000000000000000000000000000000000000000000000000000000000000000000000000000000000400000000080000400000000000000000000000200001000000000000000000000000000000000000000000000000000000000000400000000000000000000000000100000000000000000000000000000000000000000000000008000000000000000000000000000000000000000000000000000000020000000000000000000000000000000000000000000000000000000000000000000000000000200000000000000000000000002000000000000000000000000010000000000000000000000000000000000000000000000000000000000000",
      "type": "0x2",
      "transactionHash": "0xccddbecd65d0f2398ab7f805af576ced64ea42304856cd55a6a6cf9d9e52cd48",
      "transactionIndex": "0x0",
      "blockHash": "0xdc3fa865a7fb87d627feba39086b18ff023d22b273232d31009927d54cca06e6",
      "blockNumber": "0x6",
      "gasUsed": "0xb683",
      "effectiveGasPrice": "0x24496b1a",
      "blobGasPrice": "0x1",
      "from": "0xf39fd6e51aad88f6f4ce6ab8827279cfffb92266",
      "to": "0xcf7ed3acca5a467e9e704c703e8d87f634fb0fc9",
      "contractAddress": null
    },
    {
      "status": "0x1",
      "cumulativeGasUsed": "0x2a505",
      "logs": [
        {
          "address": "0xcf7ed3acca5a467e9e704c703e8d87f634fb0fc9",
          "topics": [
            "0xddf252ad1be2c89b69c2b068fc378daa952ba7f163c4a11628f55a4df523b3ef",
            "0x000000000000000000000000f39fd6e51aad88f6f4ce6ab8827279cfffb92266",
            "0x000000000000000000000000da82d145d3720116e0725bbb0ed8ac2981319904"
          ],
          "data": "0x0000000000000000000000000000000000000000000000056bc75e2d63100000",
          "blockHash": "0xdc3fa865a7fb87d627feba39086b18ff023d22b273232d31009927d54cca06e6",
          "blockNumber": "0x6",
          "blockTimestamp": "0x68348a0b",
          "transactionHash": "0xae6980dff354bab88b9951e61071ebee67f390f4a23f58b986881a5c86aa5899",
          "transactionIndex": "0x1",
          "logIndex": "0x1",
          "removed": false
        },
        {
          "address": "0xdc64a140aa3e981100a9beca4e685f962f0cf6c9",
          "topics": [
            "0xddf252ad1be2c89b69c2b068fc378daa952ba7f163c4a11628f55a4df523b3ef",
            "0x000000000000000000000000da82d145d3720116e0725bbb0ed8ac2981319904",
            "0x0000000000000000000000009f7cf1d1f558e57ef88a59ac3d47214ef25b6a06"
          ],
          "data": "0x000000000000000000000000000000000000000000000004ea2ce4749290c686",
          "blockHash": "0xdc3fa865a7fb87d627feba39086b18ff023d22b273232d31009927d54cca06e6",
          "blockNumber": "0x6",
          "blockTimestamp": "0x68348a0b",
          "transactionHash": "0xae6980dff354bab88b9951e61071ebee67f390f4a23f58b986881a5c86aa5899",
          "transactionIndex": "0x1",
          "logIndex": "0x2",
          "removed": false
        },
        {
          "address": "0xda82d145d3720116e0725bbb0ed8ac2981319904",
          "topics": [
            "0x1c411e9a96e071241c2f21f7726b17ae89e3cab4c78be50e062b03a9fffbbad1"
          ],
          "data": "0x00000000000000000000000000000000000000000000003ba1910bf341b000000000000000000000000000000000000000000000000000314b9cc9514c0f397a",
          "blockHash": "0xdc3fa865a7fb87d627feba39086b18ff023d22b273232d31009927d54cca06e6",
          "blockNumber": "0x6",
          "blockTimestamp": "0x68348a0b",
          "transactionHash": "0xae6980dff354bab88b9951e61071ebee67f390f4a23f58b986881a5c86aa5899",
          "transactionIndex": "0x1",
          "logIndex": "0x3",
          "removed": false
        },
        {
          "address": "0xda82d145d3720116e0725bbb0ed8ac2981319904",
          "topics": [
            "0xd78ad95fa46c994b6551d0da85fc275fe613ce37657fb8d5e3d130840159d822",
            "0x0000000000000000000000009fe46736679d2d9a65f0992f2272de9f3c7fa6e0",
            "0x0000000000000000000000009f7cf1d1f558e57ef88a59ac3d47214ef25b6a06"
          ],
          "data": "0x0000000000000000000000000000000000000000000000056bc75e2d6310000000000000000000000000000000000000000000000000000000000000000000000000000000000000000000000000000000000000000000000000000000000000000000000000000000000000000000000000000000000004ea2ce4749290c686",
          "blockHash": "0xdc3fa865a7fb87d627feba39086b18ff023d22b273232d31009927d54cca06e6",
          "blockNumber": "0x6",
          "blockTimestamp": "0x68348a0b",
          "transactionHash": "0xae6980dff354bab88b9951e61071ebee67f390f4a23f58b986881a5c86aa5899",
          "transactionIndex": "0x1",
          "logIndex": "0x4",
          "removed": false
        }
      ],
      "logsBloom": "0x00200000000000000000400080000000000000080000000000000000000000400000000000000000000400000000080000400000000000000000000000000001000040000000000000000008000000200000000000000000000000000000400000000020020000000000000100000000000000000000000000000010000000000000080008000000000000800000000000000000000000080000004000000000000000004000000000000000000000000000000000000000000000000000000000000002000000200000000000000000000000002020001000000000000000000000000000000000000000000000000000000001000000000100000000000000",
      "type": "0x2",
      "transactionHash": "0xae6980dff354bab88b9951e61071ebee67f390f4a23f58b986881a5c86aa5899",
      "transactionIndex": "0x1",
      "blockHash": "0xdc3fa865a7fb87d627feba39086b18ff023d22b273232d31009927d54cca06e6",
      "blockNumber": "0x6",
      "gasUsed": "0x1ee82",
      "effectiveGasPrice": "0x24496b1a",
      "blobGasPrice": "0x1",
      "from": "0xf39fd6e51aad88f6f4ce6ab8827279cfffb92266",
      "to": "0x9fe46736679d2d9a65f0992f2272de9f3c7fa6e0",
      "contractAddress": null
    }
  ],
  "libraries": [],
  "pending": [],
  "returns": {},
  "timestamp": 1748273675,
  "chain": 31337,
  "commit": null
}